:020000040800F2
:10000000605801202103000833140008E913000898
:100010003114000811070008312100080000000019
:10002000000000000000000000000000690200085D
:100030008311000800000000BD02000871180008CC
:100040003B0300083B0300083B0300083B03000898
:100050003B0300083B0300083B0300083B03000888
:100060003B0300083B0300083B0300083B03000878
:100070003B0300083B030008590D0008990D0008D8
:100080003B0300083B0300083B0300083B03000858
:10009000150700083B0300083B0300083B0300086A
:1000A0003B0300083B0300083B0300083B03000838
:1000B000E11800083B0300083B0300083B0300086D
:1000C0003B0300083B0300083B0300083B03000818
:1000D0003B030008A11C0008391D0008A51D0008ED
:1000E0003B0300083B0300083B0300083B030008F8
:1000F0003B0300083B0300083B0300083B030008E8
:100100003B0300083B0300083B0300083B030008D7
:10011000211C00083B030008F91800083B030008F5
:100120003B0300083B0300083B0300083B030008B7
:100130003B0300083B0300083B0300083B030008A7
:100140005D0700083B0300083B0300083B03000871
:10015000D90D00081D0E00085D0E0008411E0008A4
:100160003B0300083B0300083B0300083B03000877
:100170003B0300083B0300083B0300083B03000867
:100180003B0300083B03000800F002F800F05CF8B5
:100190000AA090E8000C82448344AAF10107DA45E2
:1001A00001D100F051F8AFF2090EBAE80F0013F0D8
:1001B000010F18BFFB1A43F001031847BCAA000047
:1001C000DCAA00000A444FF0000C10F8013B13F0C9
:1001D000070408BF10F8014B1D1108BF10F8015BA0
:1001E000641E05D010F8016B641E01F8016BF9D193
:1001F00013F0080F1EBF10F8014BAD1C0C1B09D1EA
:100200006D1E58BF01F801CBFAD505E014F8016B5B
:1002100001F8016B6D1EF9D59142D6D370470000ED
:100220000023002400250026103A28BF78C1FBD8FF
:10023000520728BF30C148BF0B6070471FB509F097
:1002400082FF1FBD10B510BD00F034FA1146FFF754
:10025000F5FF06F010F900F052FA03B4FFF7F2FFD1
:1002600003BC02F000F800002A4B19680868B0E8E7
:10027000F04F80F30988BFF36F8F4FF0000080F3D9
:10028000118870470000000006480068006880F38D
:10029000088862B661B6BFF34F8FBFF36F8F00DF80
:1002A00000BF00BF08ED00E0DFF80C00016841F47A
:1002B00070010160704700BF88ED00E0EFF3098036
:1002C000BFF36F8F134B1A681EF0100F08BF20ED9D
:1002D000108A20E9F04F106008B44FF0200080F33E
:1002E0001188BFF34F8FBFF36F8F08F09BFD4FF066
:1002F000000080F3118808BC19680868B0E8F04F66
:100300001EF0100F08BFB0EC108A80F30988BFF30D
:100310006F8F704724000020EFF3058070470000C6
:100320000948804709480047FEE7FEE7FEE7FEE789
:10033000FEE7FEE7FEE7FEE7FEE7FEE704480549C5
:10034000054A064B7047000085180008890100081F
:100350006052012060580120605401206054012047
:10036000DFED300AB5EEC00A60EE200ABDEEE01AFD
:1003700011EE100AF1EE10FA38BF401E00EE100A1E
:100380009FED291AB8EEC00A70EEC00A20EE810A6D
:10039000BCEEC00A10EE100A00EE100A0028B8EEFB
:1003A000C00A10EE810AB8BF002004DBB0F5807FE0
:1003B000C8BF4FF480701D4960EE000AB6EE001A07
:1003C000DFED1C2A9FED1A2A60EE011A60EE225A18
:1003D00020EE813A20EE022A21EEA01A01EB8000E5
:1003E00073EE655A62EE202AB7EE006A33EE003AE9
:1003F000D0EC043A76EE611A71EE600A35EEE20A4C
:1004000033EE413A32EEC21A70EEA10A20EE230A10
:1004100064EE831A04EE200A45EE011A31EE800ADA
:100420007047000083F9223E000080435CA400086E
:10043000ABAA2A3EABAAAA3EDFED300AB5EEC00A4F
:1004400060EE200ABDEEE01A11EE100AF1EE10FA8D
:1004500038BF401E00EE100A9FED291AB8EEC00A00
:1004600070EEC00A20EE810ABCEEC00A10EE100A3F
:1004700000EE100A0028B8EEC00A10EE810AB8BFDC
:10048000002004DBB0F5807FC8BF4FF480701D49A9
:1004900060EE000AB6EE001ADFED1C2A9FED1A2A64
:1004A00060EE011A60EE225A20EE813A20EE022A16
:1004B00021EEA01A01EB800073EE655A62EE202A4D
:1004C000B7EE006A33EE003AD0EC043A76EE611AE9
:1004D00071EE600A35EEE20A33EE413A32EEC21AAC
:1004E00070EEA10A20EE230A64EE831A04EE200ABD
:1004F00045EE011A31EE800A7047000083F9223E72
:10050000000080436CA80008ABAA2A3EABAAAA3E12
:100510007047032A40F2308010F0030C00F0158081
:1005200011F8013BBCF1020F624498BF11F801CBF6
:1005300000F8013B38BF11F8013BA2F1040298BF5B
:1005400000F801CB38BF00F8013B11F0030300F0C5
:100550002580083AC0F0088051F8043B083A51F869
:1005600004CBA0E80810F5E7121D5CBF51F8043B6E
:1005700040F8043BAFF30080D20724BF11F8013BE1
:1005800011F801CB48BF11F8012B24BF00F8013B43
:1005900000F801CB48BF00F8012B704710B5203A96
:1005A000C0F00B80B1E81850203AA0E81850B1E82C
:1005B0001850A0E81850BFF4F5AF5FEA027C24BFE2
:1005C000B1E81850A0E8185044BF18C918C0BDE8D9
:1005D00010405FEA827C24BF51F8043B40F8043BA2
:1005E00008BF7047D20728BF31F8023B48BF11F857
:1005F000012B28BF20F8023B48BF00F8012B7047B1
:1006000002F0FF0343EA032242EA024200F002B88A
:100610004FF000020429C0F0128010F0030C00F02B
:100620001B80CCF1040CBCF1020F18BF00F8012BA9
:10063000A8BF20F8022BA1EB0C0100F00DB85FEA77
:10064000C17C24BF00F8012B00F8012B48BF00F843
:10065000012B70474FF0000200B5134694469646B2
:10066000203922BFA0E80C50A0E80C50B1F12001C5
:10067000BFF4F7AF090728BFA0E80C5048BF0CC073
:100680005DF804EB890028BF40F8042B08BF7047D1
:1006900048BF20F8022B11F0804F18BF00F8012B43
:1006A00070477047704770477047000000487047B8
:1006B000005201207546FFF7F9FFAE460500694676
:1006C000534620F00700854618B020B5FFF736FEE8
:1006D000BDE820404FF000064FF000074FF0000843
:1006E0004FF0000B21F00701AC46ACE8C009ACE8C4
:1006F000C009ACE8C009ACE8C0098D46704710B528
:100700000446AFF300802046BDE81040FFF7A5BDCA
:10071000FEE7000010B586B00D4C0221204600F027
:1007200025F9002812D00221204600F055F8094989
:10073000204600F039F801AA0021204600F008FA0E
:1007400005480168002901D001A8884706B010BDFE
:100750000064004008000032BC00002010B50E4CC0
:100760000221204600F002F9002814D00221204680
:1007700000F032F80949204600F016F8084A002136
:10078000204600F0E5F907488168002903D0BDE85C
:1007900010400348084710BD0068004008000032C0
:1007A00064380120C00000200A4A914202D1002191
:1007B00081617047C1F313028B0101D5C26070479C
:1007C0004B0101D502617047090101D58260704774
:1007D000426070477000F03030B5082310240422C6
:1007E000B1F5007F33D011DC20292AD007DC0129A4
:1007F00022D0042923D0082900D1C46030BD40296B
:1008000021D0B1F5807FF9D1426030BD0025B1F52E
:10081000004F20D008DCB1F5806F1AD0B1F5006F21
:10082000F3D18561426030BDB1F5803F0DD0B1F5A7
:10083000003FF8D1446030BD0849816030BDC360DD
:1008400030BD036130BD046130BD436030BD4260E6
:1008500030BD426030BD8561426030BD01010100A4
:1008600010B50C4988420AD101214C06204600F0FF
:10087000B9FE2046BDE81040002100F0B3BE0121C2
:100880008C06204600F0AEFE2046BDE81040002158
:1008900000F0A8BE00640040F0B5827A01219140CA
:1008A000304C226842F0010222602E4D1C352A682D
:1008B0008A432A602B4A067B0C322B4B002E14D124
:1008C00016688E4316604688C78846EA0746877AC8
:1008D00003EBC707C7F840660688878846EA0746DD
:1008E000877A03EBC707C7F84466067B012E14D14D
:1008F00016680E4316604288068842EA0642867AE7
:1009000003EBC606C6F84026C288868842EA06423D
:10091000867A03EBC603C3F84426124AC37A121D33
:100920003BB113680B4313600E4A0389143223B1A1
:1009300006E013688B431360F6E713688B4313607C
:100940000389012B02D113680B431360407B0128FC
:1009500002D1286808432860206820F00100206048
:10096000F0BD00000066004000600040024600202C
:1009700053690B425DD0B1F5807F4AD016DC08295F
:1009800037D009DC01292CD002292ED0042950D1DE
:10099000D068082100F0DAB910292ED0202930D0F3
:1009A000402946D11069102100F0D0B9B1F5004FAF
:1009B0003BD00CDCB1F5007F2FD0B1F5806F30D08B
:1009C000B1F5006F35D19069702100F0BFB9B1F574
:1009D000803F1AD0B1F5003F2BD15068102100F0B4
:1009E000B5B99068134900F0B1B9D068032100F09F
:1009F000ADB9D068102100F0A9B91069032100F049
:100A0000A5B91069082100F0A1B95068082100F0CB
:100A10009DB99069012100F099B99069022100F017
:100A200095B99069042100F091B95068042100F053
:100A30008DB9704701010100002A03D042690A43C1
:100A40004261704742698A434261704710B5002293
:100A5000036823F002030360036843F001030360AB
:100A60004FF6FF7300E0521C4468E40701D19A423C
:100A7000F9D14268D2073ED08A79012A3DD0026876
:100A800022F080020260CA79012A3BD0026822F07B
:100A9000400202600A7A012A39D0026822F020025C
:100AA00002604A7A012A37D0026822F010020260FE
:100AB0008A7A012A35D0026822F008020260CA7AD6
:100AC000012A33D0026822F0040202608A78CC78CE
:100AD000920742EA04620C7942EA04424C7909889E
:100AE00042EA0452491E0A43C261016821F0010131
:100AF0000160002120E0002010BD026842F0800269
:100B00000260C0E7026842F040020260C2E7026889
:100B100042F020020260C4E7026842F01002026064
:100B2000C6E7026842F008020260C8E7026842F0C5
:100B300004020260CAE7491C4268D20701D0994208
:100B4000F9D14068C00701D0002010BD012010BDC0
:100B500010B500EB0113D3F8B04104F00404147293
:100B6000002C2CD0D3F8B041E408546003F5D873BE
:100B70001C6804F0020454725C6804F00F04947260
:100B80005C68240AD4749C68D4729C68240A147328
:100B90009C68240C54739C68240E9473DC68D47392
:100BA000DC68240A1474DC68240C5474DB681B0EA3
:100BB000937449B1016941F02001016110BDD3F87E
:100BC000B041640D1460D1E7C16841F02001C160FB
:100BD00010BD00218171C171017241728172C172B7
:100BE0008170C170032101710221417101210180D5
:100BF000704730B50246002093685B010AD49068C4
:100C0000000101D5012005E09068C00001D5022057
:100C100000E0042004283BD002EB0012D2F880311F
:100C200003F00103C2F880310B7A93B3D2F880410C
:100C30004D681C434B7A43EAC5031C43C2F880410C
:100C40008B7A03F00F038B7202F5C072536823F0A6
:100C50000F03536053688C7A23435360CB7A8C7BA9
:100C60000D7B43EA04634C7B240444EA05242343BC
:100C70009360CB7B8C7C43EA04634C7C097C24042A
:100C800044EA01210B43D360116841F00101116076
:100C900030BDFFE7D2F880314C7A23430C8843EA19
:100CA0004453C2F88031CBE70022002904D0012947
:100CB00006D002290BD107E082681848024006E0FE
:100CC00082681748024002E08268164802401649CE
:100CD000501A8A4218D007DC92B16FF08060101869
:100CE00010D0022809D113E0B0F5007F12D00F49CF
:100CF00040180BD0B0F5003F0ED00020C0B27047B6
:100D00000220FBE70020F9E70020F7E70020F5E7E5
:100D10000120F3E70120F1E70120EFE703000004E1
:100D20000003000800000310000100080001FFF7A5
:100D300005489FED040A80ED040A80ED030A80ED6A
:100D4000020A704700000000340100200246002023
:100D50000A4200D00120704770B50C4D0C4C29465A
:100D6000204600F08DF900280FD02946204600F0DB
:100D700095F80021204600F0BDF8BDE87040012242
:100D800040F22661034801F059B970BD0080001897
:100D9000586002400048004070B50C4D0C4C29468C
:100DA000204600F06DF900280FD02946204600F0BB
:100DB00075F80021204600F09DF8BDE87040012242
:100DC00040F22661034801F039B970BD208000204F
:100DD00070600240004C004070B50C4D0C4C294630
:100DE000204600F033F901280FD12946204600F0B3
:100DF00055F82946204600F067F806488168002922
:100E000003D0BDE870400448084770BD008800204A
:100E100088640240A0000020A82F012070B50C4D6E
:100E20000C4C2946204600F02BF900280FD029460B
:100E3000204600F033F80021204600F05BF8BDE8C2
:100E40007040012240F22661034801F0F7B870BDFE
:100E500000802020A06402400014014070B50C4DB9
:100E60000C4C2946204600F00BF900280FD02946EB
:100E7000204600F013F80021204600F03BF8BDE8C2
:100E80007040012240F22661034801F0D7B870BDDE
:100E900000800028B864024000100140074A9042D8
:100EA00001D2074801E005481038064A8B0001EAE4
:100EB000020101D5C1607047816070471064024033
:100EC000006002407D0F7D0F074A904201D2074823
:100ED00001E005481038064A8B0001EA020101D5FD
:100EE000C16070478160704710640240006002403A
:100EF0007D0F7D0F002904D0016841F001010160E0
:100F00007047016821F00101016070472DE9F0434D
:100F1000016821F0010101600021016041608160F0
:100F2000C1600161212141613E493E4A10394FF0C3
:100F30003D08904203D1C1F80880BDE8F083394AEA
:100F40004FF474651832904201D18D60F5E7354A4F
:100F50004FF474163032904201D18E60EDE7314A81
:100F60004FF074674832904201D18F60E5E72D4B16
:100F70002D4A6033984201D1CA60DEE7294C2B4BE1
:100F80007834A04201D1CB60D7E7DFF898C0284C75
:100F90000CF1900C604501D1CC60CEE7DFF8849075
:100FA0004FF03D5C09F1A809484502D1C1F80CC0D9
:100FB000C3E72049DFF87C900839484502D1C1F8E1
:100FC0000080BAE7DFF86C8008F11808404501D1CD
:100FD0000D60B2E7174D3035A84201D10E60ACE785
:100FE000144D4835A84201D10F60A6E7114D1149B3
:100FF0006035091FA84201D10A609EE70D4A783288
:10100000904201D10B6098E70A4A9032904201D198
:101010000C6092E7074AA83290428ED1C1F800C016
:101020008BE70000106002403D000020400F0020D0
:1010300000003D2010640240014600200968C907F5
:1010400000D001207047406880B2704702460020FF
:10105000084B9A4201D2084A01E0064A103A8B0036
:1010600001D5526800E01268044B1A400A4200D0D1
:101070000120704710640240006002407D0F7D0F28
:1010800030B500240F4A904201D20F4A01E00D4AC8
:10109000103A0E4B194205D01E2303EAD1250368EE
:1010A0002B4002E0406900F08003880001D55068C1
:1010B00000E01068064A1040084201D003B1012444
:1010C000204630BD10640240006002403C0F3C0FDF
:1010D0007D0F7D0F0B0609D522B1436943F08003D4
:1010E000436103E0436923F080034361802905D015
:1010F00001F01E011AB102680A43026070470268DB
:101100008A4302607047000030B50368124A1340FA
:10111000CC680A682243D1E905452C432243CC69B7
:1011200022430C6A22434C6A22438C6A22434C6B52
:1011300022438C6B22431A430260426922F0070368
:10114000D1E90B2422431A4342610A6942604A688A
:1011500082608968C16030BD3F801CF0416070478B
:101160000021016041608160C16001614161816174
:10117000C161016241628162C16201634163816355
:10118000704770472DE9F041002201274FF0030C12
:1011900007FA02F50B682B40AB422CD106685300CE
:1011A0000CFA03F4A64306600E79D0F800809E4046
:1011B00046EA080606600E79012E01D0022E12D1F1
:1011C0008668A64386604E79D0F808809E4046EA3D
:1011D000080686604668AE43466045688E7996404C
:1011E000B6B235434560C568A543C560CC799C401F
:1011F000C3681C43C460521C102AC9D3BDE8F081E7
:1012000010B54B07DB0E9A40C90800EB8100016A5C
:101210000F249C40A1430162016A1143016210BD89
:101220000246002012690A4200D001207047418323
:10123000704701837047000000487047B4390120AF
:1012400010B503461046002B01D0084C0AE04FF6BB
:10125000FF7010BD13F8012B4240D2B234F81220B7
:1012600082EA1020491E4A1CF4D110BD5AA200087F
:1012700010B5054C03E010F8013B5340E25C491EF9
:101280004B1CF8D1104610BD5AA1000810B500F053
:101290002DFA034C207000F053FA607010BD00006E
:1012A000E20000202D4AD2F8A405B0F902102C4823
:1012B0008160B2F9A21FC160D2F8A41FB1F9021077
:1012C000016102F58051B1F9721241610021816121
:1012D000C16102F5806191EDDE0ABDEEC00A80EDCC
:1012E000080A91EDDF0ABDEEC00A80ED090A5268D6
:1012F0009FED1C0AD2ED000A60EE800AFDEEE00AC6
:10130000C0ED0A0AD2ED010A60EE800AFDEEE00AA5
:10131000C0ED0B0AD2ED020A60EE800AFDEEE00A93
:10132000C0ED0C0AD2ED030A20EE800ABDEEC00A21
:1013300080ED0D0A91EDAD0ABDEEC00A80ED0E0AFA
:1013400091EDAF0ABDEEC00A80ED0F0A91EDAE0A35
:10135000BDEEC00A80ED100A70470000883F0120F2
:10136000880100200000C8422DE9F047044604F53A
:101370008055012685F8606284F8806784F89C6552
:10138000DFF86080002788F800604FF4FA6948466B
:1013900007F012FB88F80160484607F00DFB95F84E
:1013A000600201281BD194F88007012817D194F816
:1013B0009C05012813D198F8000001280FD198F856
:1013C000010001280BD185F8607284F8807784F8D9
:1013D0009C7585F87462BDE8F04700F069BFBDE810
:1013E000F0870000F4000020FEE7000002494CF600
:1013F000CC400860704700000030004002494AF6C7
:10140000AA20086070470000003000400149486091
:1014100070470000003000400149886070470000BC
:101420000030004001490860704700000030004073
:10143000FEE7704730B50F23C27801250178002AF6
:101440001FD0154A126802F4E062C2F5E062C2F3EE
:101450000722C2F10404D3404278A24084781C40A1
:101460001443220101F1E02181F80024007800F00A
:101470001F018D404009800000F1E020C0F80051BC
:1014800030BD01F01F0085404809800000F1E020D8
:10149000C0F8805130BD00000CED00E00249084367
:1014A00002490860704700000000FA050CED00E0FA
:1014B0002DE9F04106462DED028B0024344DDFED81
:1014C000338A95ED238A5BE0285D552856D128198B
:1014D000C17A552952D1817D55294FD1C07D5328DC
:1014E0004CD104F1160028448178C2784379114424
:1014F0000279077A1A440A4481795318C27913444D
:101500003B44477A3B44A833DBB2807A984239D1D6
:1015100041EA022008F06EFB9FED1E1B53EC112BDD
:1015200008F0B8FB9FED1D1B53EC112B08F0B2FB2C
:1015300008F07AFAC5F8880000EE100A30EE480A82
:1015400010EE101AC5F89010164A914208DD00EE10
:10155000100A30EE680A30EE480A85ED240A0AE0E7
:10156000114A914207D900EE100A30EE280A30EEF7
:10157000480A85ED240A012085F89400641CE4B231
:10158000B442A1D3BDEC028BBDE8F0810000B443AE
:1015900008390120000000000000003F00000000AA
:1015A0000080664000009643000096C3054A00296B
:1015B00003D01168014311607047116881431160C5
:1015C0007047000030380240054A002903D01168F6
:1015D000014311607047116881431160704700003A
:1015E00040380240054A002903D0116801431160C8
:1015F0007047116881431160704700002038024035
:10160000054A002903D01168014311607047116831
:10161000814311607047000044380240054A0029A8
:1016200003D0116801431160704711688143116054
:10163000704700002438024070B5244B196801F04F
:101640000C01234C00291ED0224E04291DD008294C
:101650001DD00460196801F0F00109091E4A545CAC
:101660000168E14041601C6804F4E054A40A145D80
:1016700021FA04F484601B6803F460435B0BD25CC2
:10168000D140C16070BD0460E4E70660E2E70F4A44
:10169000121F1168C1F38055116801F03F0135B187
:1016A000B6FBF1F11468C4F38814614305E0B4FBA0
:1016B000F1F11468C4F3881461431268C2F3014263
:1016C000521C5200B1FBF2F10160C3E7083802403E
:1016D0000024F40040787D01140000200048704789
:1016E0000839012000487047E200002070B5124D13
:1016F00080212846FFF794FD104C012805D0802159
:101700002846FFF78DFD20B106E06088401C608010
:1017100002E06088401E6080B4F9020000210228C7
:1017200003DB01202070618004E010F1020F01DC76
:1017300021706180207870BD00000240DC00002034
:1017400070B5124D40212846FFF76AFD104C012864
:1017500005D040212846FFF763FD20B106E0A088B0
:10176000401CA08002E0A088401EA080B4F90400C4
:101770000021022803DB01206070A18004E010F149
:10178000020F01DC6170A180607870BD0000024032
:10179000DC00002000487047F43901200CB500221D
:1017A000019200922749086840F4803008604FF4A5
:1017B000A043086800F4003000900198401C01909C
:1017C000009810B901989842F3D10868800302D5B7
:1017D0000120009000E000920098012831D11948C2
:1017E0004030026842F0805202601748026842F4BA
:1017F000404202601348083002680260026842F406
:1018000000420260026842F4A0520260021F0F4BC5
:1018100013600A6842F080720A600A689201FCD57F
:101820000B4A40F205711160016821F0030101606B
:10183000016841F0020101600168C1F381010229E0
:10184000FAD10CBD00380240007000401954400726
:10185000003C02404FF0E021042804D0086920F049
:10186000040008617047086940F00400086170478F
:1018700010B507F0C1FE012803D0BDE8104007F005
:10188000FDBB10BD10B51248016841F47001016044
:101890001048016841F0010101600E4A0021083240
:1018A000116002680C4B1A400260031D0B4A1A605B
:1018B000026822F48022026006480C300160FFF7C3
:1018C0006DFF03494FF000608039086010BD0000D3
:1018D00088ED00E000380240FFFFF6FE10300024E3
:1018E00010B501218C07204600F042F82046BDE8E3
:1018F0001040012100F02DB810B50C4C01212046FC
:1019000000F036F8002810D00121204600F021F820
:101910000121204600F01AF805490888401C00B251
:1019200008800A2801D10020088010BD0010004066
:101930009C000020002904D0018841F08001018032
:101940007047018821F0800101807047C9430182FE
:101950007047C94301827047002904D0018841F0D3
:10196000010101807047018821F001010180704769
:1019700002460020138A0B4092890A40002B02D0B5
:10198000002A00D00120704730B5028C22F00102FD
:101990000284058C8388028B22F0700222F00302FD
:1019A0000C88144325F002028D8915434A882A4386
:1019B0000D4DA84202D00D4DA8420FD122F00805CE
:1019C000CA892A4322F004058A882A4323F48073B3
:1019D00023F400730D8A1D434B8A2B4383800483B9
:1019E00089684163028430BD000001400004014069
:1019F000028B22F008020A430283704770B5028C02
:101A000022F010020284028C8388048B24F4E044C8
:101A100024F440760D884FF6FF7404EA052535431B
:101A200022F020028E8904EA061616434A8804EA48
:101A300002123243114EB04202D0114EB04217D1C1
:101A400022F08002CE8904EA0616164326F04006EC
:101A50008A8804EA0212324323F4806323F4006389
:101A60000E8A04EA86061E434B8A04EA8303334344
:101A70008380058389688163028470BD0000014012
:101A800000040140028B22F400624FF6FF7303EA68
:101A9000012111430183704730B50288164C174D60
:101AA000A0420DD0A8420BD0B0F1804F08D0144B0B
:101AB000984205D0134B984202D0134B984203D161
:101AC00022F070034A881A43104B984206D0104BFC
:101AD000984203D022F440730A891A4302804A686C
:101AE000C2620A880285A04201D0A84201D1897A47
:101AF00001860121818230BD0000014000040140C7
:101B00000004004000080040000C004000100040AD
:101B10000014004070B596B001213C48FFF746FD27
:101B20000121C804FFF750FD394E08220A21304632
:101B3000FFF766FB08220B213046FFF761FB4FF4ED
:101B40004061149102218DF8541000248DF8564004
:101B50008DF8551001258DF8575014A93046FFF720
:101B600011FB2C4E304600F0C9F94FF4E1300F90D4
:101B7000ADF84040ADF84240ADF844400C20ADF81F
:101B80004600ADF848400FA9304600F073FA342003
:101B90008DF84C008DF84F5006208DF84D0013A89D
:101BA000FFF748FC012240F22441304600F046FA9B
:101BB0000121304600F08CF9174D2846FFF7A6F9B1
:101BC00068050090301D0190144802900394402055
:101BD00004900594000106900794089480100990E1
:101BE0004FF440300A900B940C940D940E94694677
:101BF0002846FFF789FA01212846FFF77BF90122E1
:101C00004021304600F070F916B070BD040020008D
:101C100000080240004C004040600240C8380120EB
:101C200070B51C4D40F22441284600F0E7F9002829
:101C30002ED0194C00212046FFF75CF92046FFF713
:101C4000FBF90028FAD128881248001D00881248A4
:101C50004830FFF7F8F9C0F14000C0B200210F4A48
:101C6000A2F1400303E05D5C5554491C89B28142F6
:101C7000F9D3022182F89410FFF71AFC4021204684
:101C8000FFF76CFA2046BDE870400121FFF732B93A
:101C900070BD0000004C0040406002400839012047
:101CA000F8B500240094214E40F2266739463046AC
:101CB00000F0A4F91E4D012809D13946304600F044
:101CC000FFF800223946304600F0B8F92C7034464F
:101CD00040F22441204600F091F900281FD02088CE
:101CE0000090A08800901348FFF7ADF90090686855
:101CF000B0B1018A9DF80020891A8289531E1940CB
:101D00004368194441609DF8003003828368CB1A10
:101D1000934204D98160C18941F00401C181F8BDB9
:101D2000C18941F00201C181F8BD000000100140ED
:101D3000A00000208864024038B500200090164CB6
:101D400040F22441204600F059F900281ED0208896
:101D5000201D008800901148FFF775F90090104889
:101D60000068A0B1018A009A891A8289531E19401D
:101D7000436819444160009B03828368CB1A9342F5
:101D800004D98160C18941F00401C18138BDC18994
:101D900041F00201C18138BD00440040886002402A
:101DA000B0000020F8B500240094224E40F22667CF
:101DB0003946304600F022F91F4D012809D1394635
:101DC000304600F07DF800223946304600F036F902
:101DD0002C70344640F22441204600F00FF90028D0
:101DE00021D0208800901348001D008800901348DF
:101DF000FFF729F900906868B0B1018A9DF80020CA
:101E0000891A8289531E19404368194441609DF81C
:101E1000003003828368CB1A934204D98160C18960
:101E200041F00401C181F8BDC18941F00201C181C5
:101E3000F8BD000000480040B400002028600240C7
:101E400070B5194C40F22441204600F0D7F8002824
:101E500028D0164D00212846FFF74CF82846FFF7FA
:101E6000EBF80028FAD120880F48001D008828468A
:101E7000FFF7E9F8C0F1800082B200210C4C0D4B55
:101E800003E0585C6054491C89B29142F9D3802127
:101E90002846FFF763F901212846FFF72BF80120B8
:101EA00084F8480070BD000000140140286402401E
:101EB000F4390120E43301208A05C94301807047C9
:101EC00040F66A120A0A01219140C9430180704715
:101ED000002904D0818941F40051818170478189B2
:101EE00021F4005181817047002A03D0828A0A437D
:101EF00082827047828A8A438282704710B537494E
:101F0000884209D101211020FFF788FB0021BDE89C
:101F100010401020FFF782BB314988420AD10121CD
:101F20004C042046FFF75EFB2046BDE81040002130
:101F3000FFF758BB2B4988420AD101218C04204667
:101F4000FFF750FB2046BDE810400021FFF74ABBD9
:101F5000254988420AD10121CC042046FFF742FBE3
:101F60002046BDE810400021FFF73CBB1F498842D6
:101F70000AD101210C052046FFF734FB2046BDE8BD
:101F800010400021FFF72EBB1949884209D10121D9
:101F90002020FFF743FB0021BDE810402020FFF781
:101FA0003DBB144988420AD101218C072046FFF726
:101FB00019FB2046BDE810400021FFF713BB0E4976
:101FC00088420AD1440501212046FFF70BFB204639
:101FD000BDE810400021FFF705BB10BD0010014017
:101FE0000044004000480040004C004000500040C9
:101FF0000014014000780040007C004070B50024CF
:1020000040F66A12C1F3421301F01F05012606FAD9
:1020100005F2012B0CD0022B0DD0838A1340090A44
:102020008E40008830400BB100B10124204670BDC5
:1020300083891340F3E7038A1340F0E710B540F6B5
:102040006A13C1F3421301F01F040121A140012BC7
:1020500007D0022B07D014303AB102680A4302605D
:1020600010BD0C30F8E71030F6E702688A430260D2
:1020700010BD00007FB504460D46208A20F4405173
:10208000E88808432082A08941F20C618843A9882E
:102090002A8911436A8902431143A181A08A20F44D
:1020A0004071A8890843A0826846FFF7C5FA1E4818
:1020B000844202D01D48844201D1039800E0029876
:1020C000A189090408D500EBC00101EB00102968C3
:1020D0004900B0FBF1F007E000EBC00101EB00109C
:1020E00029688900B0FBF1F06422B0FBF2F109012C
:1020F0000B096FF018056B4300EB8300A3891D04E7
:102100004FF0320307D503EBC000B0FBF2F000F054
:102110000700084306E003EB0010B0FBF2F000F00C
:102120000F00084320817FBD0010014000140140D2
:10213000FEE7000010B50020264C94F84810012955
:1021400046D1617F3039092906D801EB4102C2EB43
:10215000C11100EBC10080B2A17F3039092906D836
:1021600001EBC10202EB011100EB810080B2E17FC3
:102170003039092904D801EB810100EB410080B21C
:1021800094F82010A1F13002092A02D8303808440E
:1021900080B200EE100AB2EE041AF8EE400A80EEA9
:1021A000810A10EE100A07F05DFF9FED0B1B53EC48
:1021B000112B07F06DFE07F037FC606408490A78C0
:1021C000032A02D104220A702064002084F8480007
:1021D00010BD0000F4390120666666666666104030
:1021E000E500002030B505460C46002D01D0022C3C
:1021F00001D8002030BD0A48A11E02882846FFF7FA
:102200001FF82919C2B211F8023C9A4206D111F8FE
:10221000011CB1EB102F01D1012030BD002030BDD9
:10222000E600002030B505460C46002D01D0022CFA
:1022300001D8002030BDFF22611E2846FFF718F8A4
:10224000291911F8011C814201D1012030BD002063
:1022500030BD2DED020B019820F0004001909DED66
:10226000000B02B07047704701EBD17253105B4214
:10227000834202DD0844401E00B2B0EB620F02DD73
:10228000401A401C00B27047032006F09FB80000BF
:10229000052006F091FB02F0F5FB044C60606068DD
:1022A000FFF762F8022006F087FBF8E7F400002051
:1022B0000148C06806F056BDFC0000200148C06817
:1022C00006F0C6BCFC000020F0B585B000246421F7
:1022D00048434FF40471009100218DF808108DF8E7
:1022E000091002218DF80A10010A8DF80B108DF8E3
:1022F0000C000A4F69463846FEF77BFC064640F65E
:10230000FF7501E0641CA4B231463846FEF7CCFCF0
:10231000002801D1AC42F5D305B0F0BD0064004007
:10232000F0B585B0002440F2FF11009100218DF836
:1023300008108DF8091008238DF80A30030A8DF86B
:102340000B308DF80C008DF80D108DF80E10100A62
:102350008DF80F008DF810208DF811108DF81210E7
:102360000A4F69463846FEF744FC064640F6FF75BC
:1023700001E0641CA4B231463846FEF795FC002803
:1023800001D1AC42F5D305B0F0BD000000640040BF
:10239000F0B585B000244FF40075009500258DF848
:1023A00008508DF8095008258DF80A50050A8DF857
:1023B0000B508DF80C00080A8DF80D008DF80E10EA
:1023C000100A8DF80F008DF81020180A8DF81100F2
:1023D0008DF812300A4F69463846FEF70AFC064669
:1023E00040F6FF7501E0641CA4B231463846FEF7A2
:1023F0005BFC002801D1AC42F5D305B0F0BD000074
:1024000000640040F0B585B0002440F2FF11009157
:1024100000218DF808108DF8091008218DF80A1098
:10242000010A8DF80B108DF80C000A4F69463846EA
:10243000FEF7DFFB064640F6FF7501E0641CA4B220
:1024400031463846FEF730FC002801D1AC42F5D3C6
:1024500005B0F0BD00640040F0B585B000244FF435
:102460000075009500258DF808508DF80950082555
:102470008DF80A50050A8DF80B508DF80C00080AEB
:102480008DF80D008DF80E10100A8DF80F008DF8E4
:102490001020180A8DF811008DF812300A4F694685
:1024A0003846FEF7A6FB064640F6FF7501E0641CC1
:1024B000A4B231463846FEF7F7FB002801D1AC4202
:1024C000F5D305B0F0BD000000640040F0B585B064
:1024D00000244FF40072009200228DF808208DF83D
:1024E000092008238DF80A30030A8DF80B308DF887
:1024F0000C00080A8DF80D008DF80E108DF80F20D5
:102500008DF810208DF811208DF812200A4F6946A1
:102510003846FEF76EFB064640F6FF7501E0641C88
:10252000A4B231463846FEF7BFFB002801D1AC42C9
:10253000F5D305B0F0BD0000006400402DE9F04F78
:102540008BB00646DDF850A00F4690469946012113
:102550000820FFF72BF801214806FFF735F803257F
:10256000099502208DF8280000248DF82A408DF866
:10257000295001258DF82B50DFF8A8B009A958463D
:10258000FEF700FE092200215846FEF739FE092217
:1025900001215846FEF734FE8DF81E408DF81F507D
:1025A0008DF820508DF821408DF822408DF8234081
:1025B0008DF81AA08DF81B608DF81C708DF81D80A9
:1025C000ADF81890184E06A93046FEF73FFA8DF880
:1025D00012408DF813408DF81450ADF80840ADF856
:1025E0000A40ADF80C40ADF80E40ADF810408DF843
:1025F000155002A8FEF750F9012202213046FEF7DD
:102600001BFA14208DF804008DF805508DF8064053
:102610008DF8075001A8FEF70DFF0BB00020BDE8B4
:10262000F08F0000000C024000640040F0B585B05F
:10263000002440F2FF12009200228DF808208DF84D
:10264000092008228DF80A20020A8DF80B208DF847
:102650000C00080A8DF80D008DF80E100A4F69461F
:102660003846FEF7C6FA064640F6FF7501E0641CE0
:10267000A4B231463846FEF717FB002801D1AC4220
:10268000F5D305B0F0BD000000640040F0B585B0A2
:10269000002440F2FF11009100218DF808108DF800
:1026A000091008218DF80A10010A8DF811108DF813
:1026B00012000A4F69463846FEF79BFA064640F676
:1026C000FF7501E0641CA4B231463846FEF7ECFA0F
:1026D000002801D1AC42F5D305B0F0BD0064004044
:1026E000F0B585B0002440F2FF21009100218DF863
:1026F00008108DF8091008228DF80A208DF80F10A7
:102700008DF810000A4F69463846FEF772FA064601
:1027100040F6FF7501E0641CA4B231463846FEF76E
:10272000C3FA002801D1AC42F5D305B0F0BD0000DA
:1027300000640040F0B585B0002404F0ADFE40F226
:102740000241009100218DF808108DF8091008222F
:102750008DF80A20020A8DF80B208DF80C008DF8F8
:102760000D108DF80E108DF80F108DF810108DF8DB
:1027700011108DF812100A4F69463846FEF739FAE3
:10278000064640F6FF7501E0641CA4B231463846A7
:10279000FEF78AFA002801D1AC42F5D305B0F0BDAE
:1027A00000680040F0B585B0002440F2014100917E
:1027B00000218DF808108DF8091008218DF80A10F5
:1027C0008189090A8DF80B10017B8DF80C10C189E5
:1027D000090A8DF80D10817B8DF80E10818A090A87
:1027E0008DF80F10017D8DF81010817AC27A01EBFF
:1027F000810102EB41018DF81110C17C807C401CED
:1028000000EB800001EB40008DF812000A4F694692
:102810003846FEF7EEF9064640F6FF7501E0641C07
:10282000A4B231463846FEF73FFA002801D1AC4247
:10283000F5D305B0F0BD000000680040F0B585B0EC
:1028400000244FF48061009100218DF808108DF86C
:10285000091008218DF80A108188090A8DF80B10DB
:1028600001798DF80C10C188090A8DF80D10817955
:102870008DF80E100189090A8DF80F10017A8DF874
:102880001010817AC27A01EB810102EB41018DF8CF
:102890001110C17C807C401C00EB800001EB4000EB
:1028A0008DF812000A4F69463846FEF7A2F906462F
:1028B00040F6FF7501E0641CA4B231463846FEF7CD
:1028C000F3F9002801D1AC42F5D305B0F0BD00000A
:1028D00000680040F0B585B0DDE90A7500244FF4CA
:1028E0004076009600268DF808608DF8096006266F
:1028F0008DF80A606426704301EB810100EB410012
:1029000010448DF80B00180A8DF80C008DF80D306E
:102910008DF80E70280A8DF80F008DF810500A4FB0
:1029200069463846FEF765F9064640F6FF7501E050
:10293000641CA4B231463846FEF7B6F9002801D12E
:10294000AC42F5D305B0F0BD0068004010B506F00C
:1029500061FE034932304860BDE8104003F052BCCC
:10296000C00000202DE9F04F8BB00746DDF850B0D5
:10297000884691469A4601210220FEF717FE012162
:102980008806FEF721FE344E092205213046FEF767
:1029900037FC092206213046FEF732FC6020029007
:1029A00002208DF80C0000248DF80E4003208DF8D5
:1029B0000D0001258DF80F5002A93046FEF7E2FB0D
:1029C00040208DF804008DF805508DF806408DF8F4
:1029D000075001A8FEF72EFD204E3046FDF740FFC0
:1029E00008A8FEF7F6F88DF826408DF827508DF8E8
:1029F00028508DF829408DF82A408DF82B508DF8FD
:102A000022B08DF823708DF824808DF82590ADF8D4
:102A100020A008A93046FEF719F80E208DF81A00FC
:102A20008DF81B408DF81C50ADF81040ADF81240E9
:102A3000ADF81440ADF81640ADF818408DF81D50B3
:102A400004A8FDF729FF012202213046FDF7F4FF1B
:102A50000BB00020BDE8F08F000402400068004089
:102A6000F0B585B0002440F20132009200228DF8CA
:102A700008208DF8092006228DF80A208DF80B0019
:102A80008DF80C100A4F69463846FEF7B2F8064634
:102A900040F6FF7501E0641CA4B231463846FEF7EB
:102AA00003F9002801D1AC42F5D305B0F0BD000018
:102AB00000680040F0B585B0002440F2FF1100919D
:102AC00000218DF808108DF8091002228DF80A20D7
:102AD000020A8DF80B208DF80C008DF80D108DF882
:102AE0000E108DF80F108DF810108DF811108DF854
:102AF00012100A4F69463846FEF77BF8064640F644
:102B0000FF7501E0641CA4B231463846FEF7CCF8EC
:102B1000002801D1AC42F5D305B0F0BD00680040FB
:102B200010B504F00BFCA0F12801502904D8BDE831
:102B3000104000B2FFF7C8BBBDE810405020FFF7BF
:102B4000C3BB00002DE9F04F80462DED048B83B010
:102B500089469246894FB8F800003988401A04B275
:102B6000ADF80440B9F800007988401A05B2ADF814
:102B70000650BAF80000B988401A06B2ADF80860ED
:102B80007F48F1EE069AB0EE0C9A0068A7F1080BA8
:102B9000F3EE038AC07A01286FD100EE104AB8EE36
:102BA000C00A01F091FD10EE100A7649884217DD47
:102BB00008EE104AB8EEC80A01F086FDB8EEC81A51
:102BC000B7F90000C1EE000A00EE100AB8EEC00A24
:102BD00000EEA90ABDEEC00A10EE100AA8F8000027
:102BE00000EE105AB8EEC00A01F06EFD10EE100AA9
:102BF0006549884217DD08EE105AB8EEC80A01F0A0
:102C000063FDB8EEC81AB7F90200C1EE000A00EE83
:102C1000100AB8EEC00A00EE890ABDEEC00A10EE36
:102C2000100AA9F80000DBF804000078032801D09E
:102C3000042822D100EE106AB8EEC00A01F044FD6B
:102C400010EE100A5149884217DD08EE106AB8EEFE
:102C5000C80A01F039FDB8EEC81AB7F90400C1EE90
:102C6000000A00EE100AB8EEC00A00EEA80ABDEE97
:102C7000C00A10EE100AAAF8000041480068C07AA5
:102C800003286DD100EE104AB8EEC00A01F01CFD19
:102C900010EE100A3B49884217DD08EE104AB8EEE4
:102CA000C80A01F011FDB8EEC81AB7F90000C1EE6C
:102CB000000A00EE100AB8EEC00A00EEA90ABDEE46
:102CC000C00A10EE100AA8F8000000EE105AB8EE84
:102CD000C00A01F0F9FC10EE100A2B49884217DDFA
:102CE00008EE105AB8EEC80A01F0EEFCB8EEC81AA9
:102CF000B7F90200C1EE000A00EE100AB8EEC00AF1
:102D000000EE890ABDEEC00A10EE100AA9F8000014
:102D1000DBF804000078032822D100EE106AB8EE38
:102D2000C00A01F0D1FC10EE100A1849884217DDE4
:102D300008EE106AB8EEC80A01F0C6FCB8EEC81A70
:102D4000B7F90400C1EE000A00EE100AB8EEC00A9E
:102D500000EEA80ABDEEC00A10EE100AAAF80000A4
:102D6000B8F800003880B9F800007880BAF80000A0
:102D7000B88003B0BDEC048BBDE8F08F6801002083
:102D8000683B01200000B040000060400000984116
:102D90001CB504F087FB05F065F8FEF7BBFE124991
:102DA000104808601249114808601349114808602A
:102DB0001349124808601349002008604FF47A70E4
:102DC00001F04EFA04F08AFF04F060FF0E4805217E
:102DD000CDE90010002380220CA1104806F0DCFB96
:102DE0001CBD0000A5300008BC0000202D320008EA
:102DF000C8000020153B0008200100200D3A000803
:102E0000A8000020AC00002030010020636861733E
:102E10007369735F7461736B00000000413E0008CA
:102E200070B50446204600F0D1FC04F05BFE00289B
:102E30007AD0002084F8240184F8980184F80C02E8
:102E400084F8800204F04EFE944D022809D0A87840
:102E500001286AD0022869D0032868D0042867D0E6
:102E6000BDE0A8789FED8E0A012806D0052844D041
:102E7000032849D004285CD06AE0D4ED050A94ED1B
:102E8000061A30EE811A85ED021AD4ED030AD4ED4C
:102E9000041A70EEA11AC5ED031AD4ED070AC5EDA8
:102EA000040AF5EEC00AF1EE10FA14D1B5EEC01A1C
:102EB000F1EE10FA04D1F5EEC01AF1EE10FA0AD0D4
:102EC000D4F8B000D0F8900001EE100AB1EE411A2B
:102ED00084EDC31A04E0D4F8B0008C30416801607E
:102EE000C4EDC30A04F53E7003F04CFA00EE100A7C
:102EF000B8EEC00A85ED040A2AE085ED040A85EDE6
:102F0000030A85ED020A23E094ED050AD4ED060AD2
:102F100094ED041A204670EE200A94ED030A30EE78
:102F2000010A01F021F813E09DE02FE032E035E0E6
:102F300045E094ED050AD4ED060A94ED041A204606
:102F400070EE200A94ED030A30EE010A00F020FE34
:102F5000E878012801D028B108E00221204600F0DD
:102F6000E1FD03E00121204600F0DCFDE8780328C4
:102F700002D0022805D032E00221204604F0A6FA51
:102F80002DE00121204604F0A1FA28E0204600F0BF
:102F90002DFA24E0204600F067FA20E02068B0F91E
:102FA0000010B0F9020000EE101AF8EEC00A00EEB0
:102FB000100A2046B8EEC00A00F0D6FF0FE02068E5
:102FC000B0F90010B0F9020000EE101AF8EEC00AD5
:102FD00000EE100A2046B8EEC00A00F0D9FD94EDCC
:102FE000090A85ED050A94ED080A85ED060A95EDB6
:102FF000040ABDEEC00A10EE100A95ED030A03B2F2
:10300000BDEEC00A10EE100A95ED020A02B2BDEE46
:10301000C00A10EE100A01B2204600F01BFE95ED2A
:10302000050ABDEEC00A10EE100A95ED060A02B2BE
:10303000BDEEC00A10EE100A01B2204604F020FBDB
:1030400095ED080ABDEEC00A10EE100A95ED070ACC
:1030500002B2BDEEC00A10EE100A01B22046BDE871
:10306000704004F069BA032084F8240184F89801C0
:1030700084F80C0284F88002002000F01BFF00237B
:103080001A461946204600F0E5FD0022114620466A
:1030900004F0F6FABDE8704004F008BA34010020EC
:1030A0000000000030B403685E49A3F201234FF42E
:1030B0000052112B14D2DFE803F00915202B3648FB
:1030C0007E6C13135A13131313138B00027BC37AF2
:1030D00042EA03220A80827B407B42EA0020488049
:1030E00030BC7047027BC37A42EA03228A82827B29
:1030F000407B42EA0020C882F2E7027BC37A42EAC0
:1031000003220A85827B407B42EA00204885E7E76C
:10311000027BC37A42EA03228A87827B407B42EAAF
:103120000020C887DCE7017BC37A41EA03233D49DD
:103130008C310B80837B407B43EA002048803948F8
:10314000242130BC8C3003F095BA017BC37A41EA6C
:1031500003233449A0310B80837B407B43EA00206A
:1031600048803048242130BCA03003F083BA017B72
:10317000C37A41EA03232B4964310B80837B407B74
:1031800043EA002048802748012130BC643003F026
:1031900071BA017BC37A41EA0323224978310B805B
:1031A000837B407B43EA002048801E48242130BCBA
:1031B000783003F05FBA017BC27A41EA02221949F2
:1031C00050310A80827B407B42EA0020488087E7BA
:1031D0000B30018800EE101A1249F8EE400A9FEDFC
:1031E000120AB43180EE801A81ED001A428800EE96
:1031F000902AF8EE600A80EE801A81ED011A82882A
:1032000000EE902AF8EE600A80EE801A81ED021A34
:10321000C08800EE900AF8EE600A80EE801A81ED18
:10322000031A5DE7283701200000C84210B5026884
:103230001E49B2F5407F08D0A2F54072013A03D191
:10324000C27ACA72007B087310BDC37A6422B3FBD2
:10325000F2F38B70C37AB3FBF2F402FB14320A2A46
:1032600001D2012200E000220A70C27A0A23B2FBD6
:10327000F3F403FB14224A70427B037B9FED0C1A8C
:1032800042EA032200EE102AB8EE400AC0EE010A1C
:103290009FED080A30EEC00A81ED010A827B8A7236
:1032A000027CC07B42EA0020088110BD8C380120DE
:1032B0000000C8420000344310B50446606890ED39
:1032C000010A04F5806080ED030A204600F008F84A
:1032D000204600F025FC2046BDE8104000F0C4BAAE
:1032E00010B500219FED400A01EB410200EBC20244
:1032F000136CB3F9024000EE904AF8EEE00AC2ED1A
:10330000120A1B8800EE903AF8EE600AC2ED140A29
:1033100001EB4103C3EB411300EB8303D3ED3A0A06
:1033200060EE800AC2ED110A491C89B20429DBD380
:10333000A03081684A68B2F9022000EE902AF8EEC7
:10334000E00AC1ED0F0A81684A68128800EE902AEF
:10335000F8EE600AC1ED110AC1684A68B2F90220AC
:1033600000EE902AF8EEE00AC1ED0F0AC1684A6843
:10337000128800EE902AF8EE600AC1ED110A016889
:103380004A68B2F9022000EE902AF8EEE00AC1ED98
:10339000100A01684A68128800EE902AF8EE600A66
:1033A000C1ED120A0168D1ED200A60EE800AC1ED7C
:1033B0000F0A41684A68B2F9022000EE902AF8EE3E
:1033C000E00AC1ED100A41684A68128800EE902AAE
:1033D000F8EE600AC1ED120A4068D0ED3D0A20EE19
:1033E000800A80ED0F0A10BD0000FA4310B5016895
:1033F0001A4CB1F9001000EE101AB8EEC00A84EDB4
:10340000020A0168B1F9021000EE101AB8EEC00A03
:1034100084ED030A00F5806191ED030A84ED040A4E
:1034200080EDC30A9FED0E0A00F53E7002F0AAFF80
:1034300000EE100AB8EEC00A84ED040ABDEEC00A20
:10344000084A514210EE100A02F0D4FE00EE100AB3
:10345000B8EEC00A84ED040A10BD0000340100205B
:103460000000000018FCFFFF70B504462DED028B34
:1034700004F5806520689FED360A364E01880029E4
:1034800001D14088E8B386ED040A95ED030A00F007
:10349000C3FE2068B0F9020000EE900AF8EEE00AE0
:1034A00020EE200A86ED030A95ED030A04F0F0F9F8
:1034B0002068B0F9020000EE900AF8EEE00A20EE73
:1034C000200A86ED020A2068008818B395ED030AE9
:1034D00004F0DEF92068B0F9000000EE900AB8EEC2
:1034E000E01AD6ED030A40EE410AC6ED030A95ED57
:1034F000030A00F091FE2068B0F9000000EE900A87
:1035000000E008E0B8EEE01AD6ED020A40EE010A4B
:10351000C6ED020A03E086ED020A86ED030A95ED88
:10352000030A00F079FE9FED0C8A20EE080ABDEE3A
:10353000C00A86ED090A95ED030A04F0A9F920EE08
:10354000080ABDEEC00A86ED0A0ABDEC028B70BD0A
:1035500000000000340100200000C84270B504469D
:103560002DED028B01F09EFA20600025284601F027
:1035700067FA05EB450104EBC10108646D1CEDB26F
:10358000042DF3D301F0A6FA3434616F486001F0E2
:1035900099FAA16F486001F08DFAE16E486001F080
:1035A00085FA216F486001F0BDFA44F8300C03F051
:1035B000B9FE84F8E80303F0BBFE84F8E90301F0E8
:1035C00051FA44F82C0C01F081FAA06001F034FAB1
:1035D00075494860FEF782F8E067343C9FED738AD6
:1035E00004F57870B0EE480A00F0C0FFB0EE480A6B
:1035F00004F57C7000F0BAFF9FED6D8AB6EE001AFC
:10360000B2EE020AB0EE482AF0EE481AF0EE480A8E
:1036100004F1B40003F012F9B0EE482AF0EE481AB3
:10362000B6EE001AF0EE480AB2EE020A04F5947003
:1036300003F004F9B0EE482AF0EE481AB6EE001A8C
:10364000F0EE480AB2EE020A04F5CE7003F0F6F886
:10365000B0EE482AF0EE481AB6EE001AF0EE480A2C
:10366000B2EE020A04F5047003F0E8F8B0EE482A5E
:10367000F0EE481A9FED4F1AF0EE480A9FED4E0A01
:1036800004F5217003F0DAF8B0EE482AF0EE481A9B
:10369000B3EE041ADFED498AB1EE0C0A04F53E7070
:1036A000F0EE680A03F0CAF8B6EE000A84EDD80A14
:1036B0009FED430A84EDD70A84EDD28AB0EE482A02
:1036C000F0EE481A9FED3F1AF7EE000AB2EE040A38
:1036D00004F55B7003F0B2F8A03484EDCD8AB1EE4E
:1036E000040A84EDCC0AE068B0EE482A4C30F0EED3
:1036F000481AB0EE481AF0EE480AB3EE040A03F096
:103700009DF8E068B0EE482AC030F0EE481AB0EEFE
:10371000481AF0EE480AB1EE000A03F08FF8A068EC
:10372000B0EE482A4C30F0EE481AB0EE481AF0EEEF
:10373000480A9FED250A03F081F8A068B0EE482AF8
:10374000C030F0EE481AB0EE681AF0EE480AB0EE5B
:10375000080A03F073F82068B0EE482A00F59A7062
:10376000F0EE481AB7EE001AF0EE480AB3EE040A7B
:1037700003F064F86068A03C00F5D470B0EE482A0D
:10378000F0EE481AB7EE001AF0EE480AB3EE040A5B
:1037900003F054F8012000F08DFBBDEC028B2046B5
:1037A000BDE87040FFF79CBD600100209EEF273D03
:1037B00000000000CDCC2C410000C8420AD7233CB9
:1037C000000034430000A4410000704270B504467C
:1037D00001262068234DC07A012815D160688078C1
:1037E000012811D104F084F92068807A012804D0DE
:1037F000032805D0022805D006E00420A87003E0C5
:10380000AE7001E00220A8702068C17A03291CD1A3
:10381000807A012804D0032806D0022810D014E0B2
:10382000012004F065F910E004F05CF9022800D0F2
:10383000AE70022004F05CF9204602F025FE04E0A0
:103840000520A870012004F053F92068C07A0228EE
:1038500006D10020A870E870BDE8704004F048B9B7
:1038600070BD0000340100202DE9FC47054600240E
:103870002C484FF47A584068007805282FD004EB84
:10388000440005EBC006434696ED120ABDEEC00AA1
:1038900010EE100A96ED130A02B2BDEEC00A10EE49
:1038A000100A01B204EB4400C0EB441005EB8000A9
:1038B000B43002F049FFA6F85600641CE4B2042CB0
:1038C000DDD3002000EB400105EBC10154314A88F3
:1038D0000A80401CC0B20428F4D3BDE8FC8700274E
:1038E00005F5217904EB4400CDE9007805EBC0062D
:1038F000002296ED120A4946BDEEC00A10EE100AEB
:1039000003B204EB4400C0EB441005EB8000B4307C
:1039100002F0F6FEA6F85600641CE4B2042CE1D3D3
:10392000CFE700006001002070B5054605F5806412
:1039300095F81004012826D0E86B2E49406888428B
:103940004BDD03F0FBFC06469FED2B0A85EDE00AFC
:10395000E86B90ED010A05F55B7002F0FBFB94ED5E
:10396000050AD5EDE20A30EE600A84ED050A643EF0
:10397000142E19D8B2EE041AF3EE080A00F0ACFEC9
:1039800084ED050A18E003F0D9FC00EE100AB1EE50
:10399000041AF8EE400A80EE810ADFED180A20EEE4
:1039A000200A84ED050A70BDB0EE081AF3EE020A93
:1039B00000F092FE84ED050A94ED060ADFED100A90
:1039C0009FED101A20EE200AD4ED050A00EE810AC0
:1039D00084ED050A84ED060A70BD0B4890ED010ADE
:1039E000B5EEC00AF1EE10FAF6D1B2EE000A84ED9F
:1039F000050A70BD0000404100009C41CDCC8C3FC9
:103A00008FC2753F0AD7233DDC3701202DE9F041F5
:103A10000446002C78D03D4D2868401C28600528BD
:103A200003D102F0EFFB0020286003F067FC207850
:103A30006178374A40EA0120C0F30A0010806178BB
:103A4000A378C90841EA4311C1F30A035380A1785E
:103A5000E578890941EA8501257941EA8521C1F3A3
:103A60000A05958021796679490841EAC611C1F3B2
:103A70000A01D1806679B60996726679C6F3011695
:103A8000D672A679E77946EA07269681267A677A7A
:103A900046EA0726D681A67AE77A46EA07261682FC
:103AA000267B9674667BD674A67BE77B46EA072660
:103AB0009682267C647C46EA0424C4F30A04A0F5BA
:103AC00080601080A3F580635380A5F580659580A4
:103AD000A1F58061D180A4F580641481052103F0F3
:103AE00005FC1080B2F90200052103F0FFFB5080B5
:103AF000B2F90400052103F0F9FB9080B2F9060049
:103B0000052103F0F3FBD080BDE8F081D000002058
:103B10009E3901200148406870470000D000002015
:103B2000FFF77EB910B52DED028B01299FED168AA6
:103B3000164C06D0022904D084ED078ABDEC028B16
:103B400010BD6FF0020202EB41014FF416625143C7
:103B500000EE101AB8EEC00A84ED070AD0F8A000F3
:103B60004068B0F9020002F040FBB0F5967FE5DC5A
:103B70002078401CC0B220700528DFD900202070BA
:103B800084ED078ADAE7000000000000340100201D
:103B900070B504462DED028BF0EE408AB0EE608ADF
:103BA0009FED290AF5EEC08A284DF1EE10FA04D1F6
:103BB000B5EEC08AF1EE10FA3CD085ED040AD4F8D7
:103BC000B000D0F8900000EE100A00F025FB20EEC7
:103BD000280A85ED030AD4F8B000D0F8900000EE72
:103BE000100A03F055FE20EE280A85ED020AB5EE14
:103BF000C08AF1EE10FA1AD054F8B00FD0F8900045
:103C000000EE100A03F044FED5ED030A40EE480A28
:103C1000C5ED030A2068D0F8900000EE100A00F00D
:103C2000FBFAD5ED020A40EE080AC5ED020ABDEC2A
:103C3000028B70BD85ED040A9FED050A85ED020A31
:103C400085ED030AF3E700000000C84234010020BC
:103C5000000000002DE9FF4104462DED028B2046B7
:103C6000FFF762FE03F03EFF04F5787604F57C77FB
:103C70009FED708A04F5806530B36F484068007826
:103C800002284DD003284BD0042849D0012843D125
:103C900005AA04A903A8FEF755FFBDF90C00404290
:103CA00000EE100A3046B8EEC00A00F043FCBDF941
:103CB000100000EE100A3846B8EEC00A00F03AFCD8
:103CC000BDF80C00F0B37BE0BDF90C00404200EE03
:103CD000100A3046B8EEC00A00F02CFCBDF9100006
:103CE00000EE100A3846B8EEC00A00F023FC85ED5D
:103CF000008A85ED018A85ED028A4C3484ED008AC4
:103D000084ED068A84ED0C8A84ED128A00202081DD
:103D100020842087A4F85000BDEC028BBDE8FF8111
:103D200084EDFA8A84EDFE8ABDF90C00404200EE73
:103D3000100AB8EEC00A85ED000ABDF9100000EEC9
:103D4000900A00E03AE0F8EEE00AC5ED010ABDF99C
:103D5000140001EE100AB8EEC11A85ED021AF1EE58
:103D6000601A71EEC01A31EE812AD5ED051A62EEA5
:103D7000212A9FED322A62EE822AC4ED132A70EEC8
:103D8000C02A72EE812A62EEA12A62EE822AC4ED76
:103D9000192A70EE602A72EE812A62EEA12A62EE82
:103DA000822AC4ED1F2A30EE800A30EE010A20EE8E
:103DB000210A20EE020A84ED250AADE784EDFA8A95
:103DC000BDF8100008B984EDFE8A94EDFA0A85ED7D
:103DD000000AD4EDFE0AC5ED010ABDF9140001EE9A
:103DE000100AB8EEC11A85ED021AF1EE601A71EEF2
:103DF000C01A31EE812AD5ED051A22EE212A84ED72
:103E0000132A30EEC02A32EE012A22EE212A84ED56
:103E1000192A30EE602A32EE012A22EE212A84EDA0
:103E20001F2A30EE800A30EE010A20EE210A84EDCE
:103E3000250A71E700000000600100206666663F09
:103E4000052004F0B9FD1948FFF788FB1849002048
:103E50000860164C1548FFF72FFA04F0D9FC1348F8
:103E600000F064F85434B4F94830B4F93020B4F9AF
:103E70001810B4F90000FEF78BFA606DB0F9480035
:103E8000FEF72EFCA06DB0F94800FEF7FFFB206D99
:103E9000B0F93810E06C543CB0F93800FEF7C6FBBE
:103EA00004F0D6FC022004F087FDD3E7683B012034
:103EB0008402424210B504461B499FED1A0A81ED67
:103EC000000A81ED010A81ED020AA1F56D7181ED13
:103ED000000A81ED060A81ED0C0A81ED120A00222A
:103EE0000A810A840A87A1F850204A814A844A87B5
:103EF000A1F85220A1F14C00FCF71AFF002C0FD0C2
:103F000000231A4619461846FEF742FA00221146C7
:103F10001046FEF705FABDE81040002003F0E8BDAA
:103F200010BD000000000000683F012010B50D4CDE
:103F3000216800290AD10068C17A032902D1817A57
:103F400003290BD0FEF77AFC0120206020680128AD
:103F500003D1FEF7EFFB0020206010BDFEF722FC2E
:103F6000F2E700006001002070B504462DED028BE1
:103F7000B0EE408AF0EE608AD4F8B0005F4D5E4A41
:103F8000D0F89010B5F90400914201DD012804D069
:103F90005B4A914206D918B104E00020A88001E0F4
:103FA0000120A880B5F904209FED560A5348B0F9C6
:103FB000060052B1012A53D085ED020A85ED030AAD
:103FC00085ED040ABDEC028B70BDB0F5167F01DCF7
:103FD0001430E880B5F9060000EE900AF8EEE00A29
:103FE000C5ED040AB5EEC08AF1EE10FA04D1F5EE83
:103FF000C08AF1EE10FA2ED000EE101A00F00CF983
:1040000020EE080A85ED030A54F8B00FD0F89000AE
:1040100000EE100A03F03CFC20EE080A85ED020ACF
:104020002068D0F8900000EE100A03F031FCD5EDC6
:10403000030A40EE680AC5ED030A2068D0F8900034
:1040400000EE100A00F0E8F8D5ED020A40EE280A6A
:10405000C5ED020AB6E785ED020A85ED030AB1E770
:1040600010F5167F01DB1438E880B5F9060000EE84
:10407000900AF8EEE00AC5ED040AB5EEC08AF1EE4A
:1040800010FA04D1F5EEC08AF1EE10FA2ED000EE4F
:10409000101A00F0C1F820EE080A85ED030A54F862
:1040A000B00FD0F8900000EE100A03F0F1FB20EE04
:1040B000080A85ED020A2068D0F8900000EE100A88
:1040C00003F0E6FBD5ED030A40EE680AC5ED030AEE
:1040D0002068D0F8900000EE100A00F09DF8D5EDB1
:1040E000020A40EE280AC5ED020A6BE785ED020AD6
:1040F00085ED030A66E700000000C8413401002096
:104100000000C8C10000000010B501FB02F303EB82
:10411000D374B0EB640F01DD01FB1200594201EBD7
:10412000D171B0EB610F00DA181A10BD70B50446FA
:104130004FF41836D4F81C0304F5806501290ED01D
:1041400002290CD000694FF4B471484390FBF6F09B
:1041500000EE100AB8EEC00A85ED050A70BD4A42AD
:10416000032101EB4201144A514300EE101AB8EE4C
:10417000C00A85ED030AB0F9020002F036F83228D1
:10418000ECDC0E49C888401C00B2C8806428E5DD1C
:104190000020C880D4F81C034FF4B4710069484370
:1041A00090FBF6F000EE100AB8EEC00A85ED050AA5
:1041B000012084F8180470BDA8E4FFFF74010020FA
:1041C00070B506460024002505F022FC06F5805156
:1041D00081F861020F4A601E32F8143022F8103064
:1041E000641CE4B2052CF6D391F961021081002120
:1041F00032F81100284485B2491CC9B20529F7D309
:104200000520B5FBF0F0002802D1D6F8A41F086104
:1042100070BD00003C2F01209FED031AF0EE400A14
:1042200080EE810AFCF79CB8E12E654210B5044689
:104230000420FDF70FFB094804704FF47A714C43DA
:10424000012141804FF0E021086940F0020008613F
:104250004C61086940F00100086110BD9800002021
:1042600070B5044605F0C8F901280CD0094D6888DE
:10427000844203D3B4FBF0F004F09EFB6888B4FBE7
:10428000F0F100FB11444FF47A706043BDE87040D8
:1042900000F002B89800002070B500214FF0E02532
:1042A0006C690A4A12785043AB69AA699A42FCD0F9
:1042B00003D2A3EB0203194403E0A4EB0206334448
:1042C000194413468142F0D370BD000098000020CD
:1042D0000EB50BA0D0E900128068CDE90012029063
:1042E000052004F069FB094CD4F89C0230B1002091
:1042F000C4F89C02642004F05FFBF5E70120F7E7B7
:104300000102030405060708090A00000080404274
:10431000002A02D0531E1A4202D04FF0FF307047DD
:104320000023436083600160828102820020704725
:104330002DE9F04104460F46D4E90101411A104627
:1043400002F09EF80546A089A168421E1140411A5C
:10435000284602F095F80646A189A068491E084043
:104360002168324601443846FCF7D3F8AA1BB81935
:104370002168FCF7CEF8A0682844A0602846BDE874
:10438000F0812DE9F04104460F46D4E90101401ABD
:10439000A189091A104602F073F80546A0896168E0
:1043A000421E1140411A284602F06AF80646A189C9
:1043B0006068491E08402168324608443946FCF7C7
:1043C000A8F8AA1BB9192068FCF7A3F8606828446C
:1043D00060602846BDE8F08110B502F099FF324CCC
:1043E000D4ED210AF8EEE00AB4EE600AF1EE10FA1C
:1043F00023D002F08DFFBDEEC00A10EE100AC4F803
:1044000084000F2806D0122809D016280CD01E28A8
:104410000FD012E040F2195003F08CFA0DE040F298
:104420002A5003F087FA08E040F2535003F082FA72
:1044300003E04FF4AF6003F07DFA03F099F91A48F6
:1044400094F87C10083042F21C53032910D0C1B1FB
:1044500001291BD004291ED02168B1F902200021B6
:1044600002F072F9A4F88000BDE8104001F002BF2C
:104470002168B1F90220002102F066F9A4F8800059
:10448000F2E74FF4FA5000F0ABFAEDE741F2941086
:1044900000F0A6FAE8E72168B1F90220034902F02A
:1044A00053F9A4F88000DFE7D43A0120F0F1FFFFD0
:1044B00010B500F0DBFA134C44F8600C00F0F2FA8F
:1044C00044F85C0C032020770220A077DFED0E1A61
:1044D000B0EE001ADFED0D0AB0EE612AB2EE0E0A60
:1044E000A4F1580002F0AAF90020E077606220846D
:1044F00040F2195003F01EFAB7EE000A84ED0B0AE1
:1045000010BD0000343B012000000000CDCC4C3E2B
:1045100070B54FF47A7003F00DFA054C0025258034
:1045200001F0A0FE6560B7EE000A84ED030A70BDDD
:10453000543B012010EE101A016000EE101AC16801
:10454000B7EE001A00EE901A20EE200A00EE901A44
:10455000416831EE601A00EE901A01EE200A10EE6A
:10456000101A8160416000EE101A7047002806D0D2
:1045700000210160416010EE102AC2608160704726
:1045800041F27621095C032906D10121F2EE040AE9
:104590009FED020A00F004B8704700000000A0423E
:1045A0002DE9F04105462DED028BB0EE408AF0EE8C
:1045B000608A0127D5F81C044FF4183605F580648D
:1045C000012911D0022940D000694FF4B471484349
:1045D00090FBF6F000EE100AB8EEC00A84ED440A33
:1045E000BDEC028BBDE8F08194ED440ADFED330AA7
:1045F00030EE600A84ED440A94ED451A71EE481AD3
:10460000B4EEE10AF1EE10FA01D8C4ED441A0069E3
:104610004FF4B471484390FBF6F000EE100AB8EE88
:10462000C00A30EE080A30EE410A00F04DF8B4EE50
:10463000E80AF1EE10FAD3D885F8187494ED450A1B
:1046400030EE480A84ED440ACAE794ED440ADFEDEF
:104650001C0A30EE200A84ED440A00694FF4B4715C
:10466000484390FBF6F000EE100AD4ED450AB8EE90
:10467000C00A30EE600A00F027F8B4EEE80A1148EC
:10468000F1EE10FA02D80189491C0181B0F9081035
:104690001429A5DBD5F81C144FF4B47209695143F1
:1046A00091FBF6F100EE101AB8EEC00A84ED440A50
:1046B00085F820750021018192E70000CDCCCC3E29
:1046C0009A99993E74010020B5EEC00AF1EE10FAF5
:1046D00001D2B1EE400A7047B4EEE00AF1EE10FAF2
:1046E00002DDB0EE600A7047B4EEC10AF1EE10FAD6
:1046F000F9D2B0EE410A704710B5532140F63E00A2
:1047000003F066FA034940F257400860091D08604B
:1047100010BD00003408004010B50446204600F0EB
:1047200008F8204601F078F92046BDE8104000F076
:1047300034B88169B1F9021000EE101AB8EEC00A5F
:1047400080ED440AD0F81C11B1F9021000EE101AE5
:10475000B8EEC00A80ED820AD0F81C12B1F902103E
:1047600000EE101AB8EEC00A80EDC20AD0F81C1391
:10477000B1F9021000EE101A00F58061B8EEC00A1F
:1047800081ED020AD0F81C04B0F9020000EE100A14
:10479000B8EEC00A81ED420A70472DE9FC47044695
:1047A000002794F80C1104F190004FF47A5842F667
:1047B000F826002948D0012956D0A4F8187194F899
:1047C000181204F5CA70002971D001296ED0A4F81E
:1047D0001A7294F8181304F525704FF4183900294B
:1047E00076D0012975D0A4F81A7394F8181404F53A
:1047F000657004F5806500296CD001296BD0A4F8A0
:104800001A74D4F81C044FF4B4710069484390FB47
:10481000F9F000B2CDE9000695ED020A04F58461D5
:10482000BDEEC00A10EE100A95ED440A03B2BDEECB
:10483000C00A10EE100A02B204F2944001F060FFC8
:10484000A4F82205BDE8FC8794ED450AA16943461A
:10485000BDEEC00AB1F9022010EE101A09B201F043
:1048600073FFA4F81801AAE7A1694FF4B4720969AB
:1048700051434FF4583291FBF2F109B2CDE90016E1
:1048800094ED440ABDEEC00A10EE101A94ED420AEF
:104890000BB2BDEEC00A10EE101A0AB204F11C01F0
:1048A00001F02EFFA4F8180189E700E014E094ED70
:1048B000830AD4F81C114346BDEEC00AB1F90220A8
:1048C00010EE101A09B201F03FFFA4F81A0280E7B7
:1048D00024E034E053E063E0D4F81C114FF4B472E8
:1048E000096951434FF4902291FBF2F109B2CDE9ED
:1048F000001694ED820ABDEEC00A10EE101A94ED77
:10490000850A0BB2BDEEC00A10EE101A0AB204F509
:10491000907101F0F5FEA4F81A025AE794ED830AAB
:10492000D4F81C114346BDEEC00AB1F9022010EEC6
:10493000101A09B201F008FFA4F81A0355E7D4F8D9
:104940001C124FF4B4720969514391FBF9F109B299
:10495000CDE9001694EDC20ABDEEC00A10EE101AA1
:1049600094EDC50A0BB2BDEEC00A10EE101A0AB2E1
:1049700004F5087101F0C4FEA4F81A0335E795EDBB
:10498000030AD4F81C134346BDEEC00AB1F9022055
:1049900010EE101A09B201F0D7FEA4F81A0430E79D
:1049A000D4F81C134FF4B4720969514391FBF9F127
:1049B00009B2CDE9001695ED020ABDEEC00A10EE6F
:1049C000101A95ED050A0BB2BDEEC00A10EE101AD2
:1049D0000AB204F5487101F093FEA4F81A0410E736
:1049E00070B50646134C42F21C53214694F87F5092
:1049F0000A6801F10800012D07D0B2F90220002158
:104A000001F0A2FEA4F8800070BD00EE106A8034B0
:104A1000B8EE400AD4ED030A20EE800ABDEEC00ACB
:104A200010EE101A09B26180B2F9022001F08CFE7A
:104A3000208070BDD43A0120004870473601002024
:104A400000F00300024900EB800001EB800070479A
:104A50002837012000487047300100200048704787
:104A60003C38012000487047D43A01200048704784
:104A700078370120004870475038012000487047BF
:104A80007601002000487047883F012000487047A9
:104A900070010020004870479C3801200048704792
:104AA000EC370120004870479E39012000487047CC
:104AB000C837012000487047B437012000487047CC
:104AC0002801002000487047A037012000487047A7
:104AD000DC370120004870478C37012001207047E7
:104AE00000487047283801200048704714380120DA
:104AF000004870470038012000694FF4B4725043F9
:104B0000490390FBF1F000EE100A0348B8EEC00A2A
:104B100080ED020A70470000D00100200048704775
:104B200078380120004870478C3801201CB501F00E
:104B300091FA03F097F9FDF7A7FB04F053FF04F097
:104B400039FFFFF7D9FD01F073FB01F093FB154925
:104B500013480860154914480860052003F026FD35
:104B600002F060FD124900200860134911480860F6
:104B70004FF4FA64204603F01FFF204603F01CFFA9
:104B8000204603F019FF0D480521CDE90010002350
:104B90004FF480720AA10D4804F0FEFC1CBD000019
:104BA000F14E0008BC00002019500008C800002089
:104BB000A80000200D5A00082001002070010020EC
:104BC00067696D62616C5F7461736B001D5A0008E8
:104BD00010B5044604F58051A06891ED9A0AD0ED15
:104BE000080A30EEC00A81ED990A6068F1EE040A05
:104BF00090ED000A20EE200A80ED0E0A606890ED2C
:104C0000010A80ED0F0A606890ED010A10EE102A8B
:104C1000B2F17E5F03DD20EE000A80ED0F0A6068CE
:104C20009FED330A0023D0ED0E0AF5EEC00AF1EE37
:104C300010FA15D1028E521C12B202866068052A43
:104C400004DAD0ED040AC0ED0F0A1BE01AD1038686
:104C500062684FF001005086606880ED040A11E040
:104C6000038660684386D4F8A405D0ED040A04F5F1
:104C70008060F8EEE00AC0EDE10A6068D0ED0F0A4E
:104C8000C0ED040A6068D0ED0F0AF5EEC00AF1EE3F
:104C900010FA13D1818E491C09B2818660680529FA
:104CA00004DC90ED050A80ED0F0A12E0838660684F
:104CB00080ED0F0A606880ED050A0AE0838660686F
:104CC00090ED0F0A80ED050AA06890ED080A81EDCD
:104CD0009A0A606890ED0E0A04F69430FFF72AFCF9
:104CE000606880ED0E0A2046BDE8104000F002B872
:104CF000000000002DE9FC5F044641F2900260686C
:104D0000A61841F20412418EA71890ED000A43F252
:104D1000B06804F5D26A04F2047B42F6F82904F57F
:104D20008055012908D0B5EEC00AF1EE10FA4DD831
:104D3000002000F017FA4CE0B5EEC00AF1EE10FAD0
:104D400003D8002000F00EFA02E0012000F00AFA79
:104D500004F58060514690EDE10ABDEEC00A10EE08
:104D6000100A00B2CDE90008A06890ED050ABDEE7A
:104D7000C00A10EE100A03B2D4F8A405008A02B2E9
:104D8000584601F094FC4042A4F8A20FA06895EDAB
:104D90009A0A9FED2A1AD0ED080A30EE600ADFED7C
:104DA000280A01F045FBBDEEC00A0022314610EE94
:104DB000100A00B2CDE90009D4F8A40FB0F902300E
:104DC000384601F09DFCA5F8720232E0012000F0A7
:104DD000C9F960680022514690ED0E0ABDEEC00A86
:104DE00010EE100A00B2CDE90008A06890ED050AA7
:104DF000BDEEC00A10EE100A03B2584601F057FC8F
:104E0000A4F8A20F60680022314690ED0F0AB1EEBF
:104E1000400ABDEEC00A10EE100A00B2CDE900094A
:104E2000D4F8A40FB0F90230384601F040FCA5F8E0
:104E30007202BDE8FC5FFCF735BA000000003443A5
:104E4000000034C370B50546284600F093FD274C9A
:104E5000E178A078814204D0002000F095FEA0788F
:104E6000E07002F03FFEC0B302F03CFE022809D021
:104E7000A17801292CD0022936D12846BDE87040FE
:104E8000FFF7A6BE2079062802D1284600F04CFF85
:104E90002079082802D1284600F092FF20790728BF
:104EA00002D1284600F0BCFE2079092802D128460C
:104EB00000F0B6FF20790A2802D1284601F02AF82E
:104EC00020790B2810D12846BDE87040FFF758BB69
:104ED0002846BDE8704000F02DBC02F0E7FABDE8BE
:104EE0007040022000F050BE70BD00007401002030
:104EF00030B4016840F20325464CA1F203234FF47D
:104F00000052A94250D019DC01292BD0A1F5007123
:104F1000013937D0012923D1017BC37A41EA032328
:104F20003C4928310B80837B407B43EA002048804A
:104F30003848242130BC283001F09CBB012B45D0DF
:104F4000022B55D0A3F5A643523B09D1817B427B6E
:104F500041EA02216180017CC07B41EA0020A080FF
:104F600030BC7047817B427C41EA0261027CC07B9D
:104F7000120442EA0020014388B22080C0F191006F
:104F80002061EDE7017BC37A41EA03232149143113
:104F90000B80837B407B43EA002048801D481B2117
:104FA00030BC143001F066BB017BC37A41EA0323B5
:104FB00018493C310B80837B407B43EA00204880CA
:104FC0001448132130BC3C3001F054BB017BC37A40
:104FD00041EA03230F4950310B80837B407B43EA36
:104FE000002048800B48132130BC503001F042BBF8
:104FF000017BC37A41EA0323064964310B80837B3A
:10500000407B43EA002048800248132130BC6430D2
:1050100001F030BBEC37012070B504462068A0F5E4
:105020000070053811D0A0F58070384DFB384FF076
:105030000A061CD0012841D0022805D1207BE17A44
:1050400040EA01203249087070BD207BE17A314D81
:1050500040EA012028804FF400523921284601F00F
:1050600009FBA07B617B40EA0120688070BDFDF7F1
:105070006DFC207BE17A40EA0120A880A07B617B67
:1050800040EA0120E880207CE17B40EA0120288181
:10509000607CB0FBF6F0A872607CB0FBF6F106FB1A
:1050A0001100E872A07CB0FBF6F0401EA874A07C52
:1050B000B0FBF6F106FB1100E87470BDFDF746FC8D
:1050C000207BE17A40EA0120A881A07B617B40EA55
:1050D0000120E881207CE17B40EA0120A882607CFD
:1050E000B0FBF6F0A872607CB0FBF6F106FB110095
:1050F000E872A07CB0FBF6F0401EA874A07CB0FB68
:10510000F6F106FB1100E87470BD00009E39012025
:10511000C000002078380120D0F8A4054FF4B47105
:1051200000694843C11700EB9150801200EE100A4D
:105130000448B8EEC00A80ED040A9FED030A80ED32
:10514000030A7047740100200000000004489FED2E
:10515000030A80ED040A80ED030A70470000000096
:10516000740100202DE9F0472DED0A8BF1EE088A3D
:10517000B2EE00BA9FED8A0A8A4CB7EE008A002888
:105180007BD0DFED89BA012878D09FED88CA9FEDEA
:1051900088AA9FED889AF2EE049ADFED87AAA4F51B
:1051A000806141F2041201EB020841F2900201F227
:1051B000047601F5D26701F5805501EB020902285A
:1051C0007ED0032878D1484601F018FB404601F014
:1051D00015FB384601F012FB304601F00FFBF0EEF4
:1051E0006A8AB0EE4C2AF0EE681AB2EE081AF0EEB7
:1051F000080A9FED720A484601F020FB85ED3BAAA4
:1052000085ED3C9AC5ED379A85ED3E8AB0EE080AE9
:1052100085ED3D0AC5ED288AB0EE4C2AF0EE4C1A19
:10522000B0EE4C1AF0EE4C0A9FED650A404601F0D4
:1052300005FBB0EE4C2ADFED631AB2EE0E1AF7EE64
:10524000000AB2EE0F0A384601F0F8FA9FED5E0A46
:1052500084EDBB0A9FED5D0A84EDBC0A84EDB7BA0C
:10526000B0EE040A84EDBE0AC4EDBDBAC4EDA88A4E
:10527000B0EE4C2AF0EE4C1A01E00DE021E09FED7B
:10528000541AF0EE4C0ABDEC0A8B3046B1EE0E0A11
:10529000BDE8F04701F0D2BAF3EE020AC4EDA40A69
:1052A000C4EDA58ADFED4B0AC4EDA60A84EDC1BAB0
:1052B00084EDC20A84EDC38ABDEC0A8BBDE8F08799
:1052C00012E0F5EE000AC4EDA40AF0EE000AC4ED07
:1052D000A50AC4EDA6BAF1EE000AC4EDC10A84ED38
:1052E000C20A84EDC38AE7E7484601F087FA4046E0
:1052F00001F084FA384601F081FA304601F07EFA76
:10530000B0EE4CBAB2EE0E1AB0EE4B2AF0EE4B1ADB
:10531000F0EE000A9FED300A484601F08FFA85ED65
:105320003BAA85ED3C9AC5ED379A85ED3E8AC5EDE1
:105330003D8AC5ED28AAB0EE4B2AF0EE4B1AB0EE2E
:105340004B1AF0EE4B0AB3EE040A404601F076FA2F
:10535000B0EE4B2AF0EE4B1AB0EE4B1AF0EE000A0C
:105360009FED1E0A384601F069FAB3EE040A84ED97
:10537000B70A84EDBE8A84EDBD0AC4EDA8AAB0EEDA
:105380004B2AF0EE4B1AB0EE4B1AF0EE4B0ABDEC86
:105390000A8B3046B2EE000ABDE8F04701F04EBA83
:1053A000CDCCCC3D8843012000002042000000000D
:1053B0000000FA430000FAC300007A4400002A43C8
:1053C000CDCCC4410000FA440000344300007AC34D
:1053D0000000344200000C4200002043000048421C
:1053E0002DE9F04104462DED048BFFF75BFB2060B7
:1053F0000026C4F82465FFF791FBC4F8A40FFFF75B
:105400004DFBC4F8A405FBF717FF6060FFF72AFB0C
:10541000E060FFF733FBB2494864FFF73BFBA06055
:10542000FCF7B8F92061FCF75DF96061FFF760FBFC
:10543000A061FFF759FBC4F81C01FFF751FBC4F84A
:105440001C02FFF70BFBC4F81C03FFF713FBC4F8A7
:105450001C0401F019FFA06890ED080A04F58050C3
:10546000074680ED9A0AD4F81C044FF4B47104F591
:105470008065006948434FF4183190FBF1F000EE6D
:10548000100AB8EEC00A85ED450A85ED440A9FED85
:10549000950A04F5F160FFF769F89FED930A04F6A9
:1054A0009430FFF763F804F5F36002F033FA04F682
:1054B000A43002F02FFA9FED8D8AB0EE482ADFED7E
:1054C0008C1A9FED8C1AF7EE080A9FED8B0A04F5F3
:1054D000B56001F0B3F99FED890A85ED810A9FED72
:1054E000880A85ED820AB2EE000A85ED7D0AF6EEA5
:1054F000000AC5ED840A85ED830AB0EE482AF0EE75
:10550000481AB1EE081AF0EE480AB2EE050A04F2A3
:105510001C6001F093F9B0EE482AF0EE481ADFED76
:10552000798AF0EE480AB0EE681A9FED770A04F621
:10553000A87001F083F9B0EE482AF0EE481A9FED0A
:10554000739A41F21C00F0EE480AB0EE491AB2EE2E
:10555000080A204401F072F9B0EE482AF0EE481A29
:10556000B0EE681AF0EE480A9FED690A41F2781031
:10557000204401F063F941F2EC10B0EE482AF0EE5D
:10558000481AB0EE481AF0EE480AB2EE020A204479
:1055900001F054F9B0EE482AF0EE481AB0EE681A5D
:1055A000F0EE480A9FED5B0A04F11C0001F046F999
:1055B000B0EE482AF0EE481AB0EE491AF0EE480A6A
:1055C000B1EE000A04F1900001F038F9B0EE482A7B
:1055D000F0EE481AB0EE481AF0EE480AB0EE680A4B
:1055E00004F5907001F02AF9B0EE482AF0EE481A5E
:1055F000B0EE491AF0EE480A9FED479A04F5CA70DA
:10560000B0EE490A01F01AF9B0EE482AF0EE481A55
:10561000B0EE481AF0EE480A9FED400A04F5087013
:1056200001F00CF9DFED3E9AB0EE482AF0EE481A90
:10563000B0EE691AF0EE480AB0EE490A04F525709A
:1056400001F0FCF8B0EE482AF0EE481AB0EE481A25
:10565000F0EE480A9FED330A04F5487001F0EEF8C9
:10566000B0EE482AF0EE481AB0EE691AF0EE480A99
:105670009FED2D0A04F5657001F0E0F8B0EE482AC0
:10568000F0EE481A9FED291AF0EE480AB0EE680ACB
:1056900004F5846001F0D2F8B0EE482AF0EE481A22
:1056A0009FED231AF0EE480AB1EE000A04F294408E
:1056B00001F0C4F80220FFF755FD012000F064FA64
:1056C00084F80C6184F8186284F8186384F818640C
:1056D00084F8206587F87662BDEC048BBDE8F08124
:1056E000880100200F0BB53D17829C3D0000000093
:1056F0000000FA440000964200007042000034436B
:1057000000007AC30000C84200002043CDCC4C3ECC
:10571000000016430000C843F6289C3F0000C94221
:105720000AD7A33C9A99A5410000F44100004842E1
:10573000CDCC4C3D70B504462DED028B02F0D2F974
:10574000F6EE001A9FED401A9FED402ADFED408AE9
:10575000404D022844D020689FED3F8AB0F90400F4
:1057600000EE100AB8EEC00A60EE080A95ED030AD2
:1057700000EEA10A85ED030AF0EE420A00F058FEA1
:1057800085ED030A20689FED351AB0F9060000EE9A
:10579000100AB8EEC00A60EE080A95ED040A00EEA1
:1057A000810A85ED040ABBEE061AF0EE680AFEF7E0
:1057B00093FF85ED040A95ED040ABDEEC00A10EED4
:1057C000100A95ED030A02B2BDEEC00ABDEC028BD1
:1057D00010EE100A01B22046BDE8704000F046B855
:1057E0002068DFED1F0AB0F90C0000EE100AB8EED9
:1057F000C00A60EE200A95ED030A00EEA10A85EDCD
:10580000030AF0EE420A00F013FE85ED030A206859
:10581000DFED140A9FED141AB0F90E0000EE100A25
:10582000B8EEC00A60EE200A95ED040A00EEC10A47
:1058300085ED040ABBEE061AF0EE680AFEF74CFF8F
:1058400085ED040AB7E7000000003443000034C3CC
:105850000000184274010020C3642A3B9A99993EC3
:105860005839343CBC74133CCDCCCC3E2DE9FC41C2
:1058700004461746A06804F5805590ED080AD5ED5A
:105880009A0A30EE600A85ED990A484200EE900AC5
:105890009FED351AF8EEE00A30EEC00ADFED330A6C
:1058A00000F0C6FD324E86ED010AB4F9A20F372191
:1058B00000EE100A04F5F360B8EEC00A01F0F2FF42
:1058C000BDEEC00A10EE100A00B2A4F8A20F00EE5E
:1058D000100A04F5F160B8EEC00AFEF72BFEBDEE2B
:1058E000C00A10EE100AA4F8A20FD4F8A4054FF4D1
:1058F000B47243F2B06100695043C21700EB92509A
:10590000C7EBA02000B2CDE90001A068002204F599
:10591000B56190ED050ABDEEC00A10EE100A03B2A3
:1059200004F21C6000F0C3FEA4F8A20F96ED010A79
:1059300042F6F8210022BDEEC00A10EE100A00B2B5
:10594000CDE90001D4F8A40F04F6A871B0F9023033
:1059500041F21C00204400F0D3FEA5F87202BDE81D
:10596000FC41FBF79FBC000000003443000034C33F
:10597000880100202DE9F041044601272068224DCE
:1059800004F58056C07A01280AD196F874020128DD
:1059900002D0FCF793FC03E0012002F0A9F8AF70FD
:1059A0002068C17A032922D1807A012804D00328F3
:1059B00008D0022816D01AE0012002F099F803203E
:1059C000A87014E002F08EF8022804D0AF70EF70D7
:1059D000012000F0D9F8022002F08AF8204600F0F9
:1059E00027FE04E0012002F083F80220A87020685E
:1059F000C07A022806D10024AC70002002F078F8AA
:105A000086F87442BDE8F0817401002001484068C6
:105A100070470000C0000020FFF714BA2DED028B84
:105A200082B0012002F0C8FF2948FFF7D9FC2949BC
:105A300000200860264D284E9FED288ADFED288A39
:105A400005F58054FCF776FBFBF720FC204800F0BE
:105A500049F81F48FEF760FED5F8A405716C008A6E
:105A6000097880B2CDE9001094ED9B0A94F8752274
:105A700094F8611230EE080A20EE280ABDEEC00A42
:105A800010EE100A03B294F87402FCF723FFB5F984
:105A9000A20F0021FCF71AFDB4F97202FDF70AF813
:105AA000686941780078FCF7DBFFB5F91A34B5F97D
:105AB0001A23B5F91A12B5F91801FCF7CDFCB5F99E
:105AC0002205FCF79FFC022002F076FFBAE70000F7
:105AD000883F0120880242428801002000003443B0
