:020000040800F2
:100000004840012055020008E12F0008DD290008C2
:10001000752F0008CD060008054800080000000004
:100020000000000000000000000000009D0100082A
:10003000AD26000800000000F1010008513E000854
:100040006F0200086F0200086F0200086F020008CC
:100050006F0200086F0200086F0200086F020008BC
:100060006F0200086F0200086F0200086F020008AC
:100070006F0200086F0200086F0200086F0200089C
:100080006F0200086F0200086F0200086F0200088C
:10009000F90800086F0200086F0200086F020008EC
:1000A0006F0200086F0200086F0200086F0200086C
:1000B0006F020008D93E00086F0200086F020008B6
:1000C0006F0200086F0200086F0200086F0200084C
:1000D0006F0200086F02000801440008794400081C
:1000E0006F0200086F0200086F0200086F0200082C
:1000F0006F0200086F0200086F0200086F0200081C
:100100006F0200086F0200086F0200086F0200080B
:100110006D4200086F0200086F0200086F020008BD
:100120006F020008A92300086F0200086F02000890
:100130006F0200086F0200086F0200086F020008DB
:10014000950C00086F0200086F0200086F0200089B
:10015000E92300086F0200086F020008F944000854
:100160006F0200086F0200086F0200086F020008AB
:100170006F0200086F0200086F0200086F0200089B
:100180006F0200086F020008DFF80CD000F048FA98
:1001900000480047B54C0008484001202A4B196828
:1001A0000868B0E8F04F80F30988BFF36F8F4FF015
:1001B000000080F3118870470000000006480068C6
:1001C000006880F3088862B661B6BFF34F8FBFF353
:1001D0006F8F00DF00BF00BF08ED00E0DFF80C000C
:1001E000016841F470010160704700BF88ED00E0D4
:1001F000EFF30980BFF36F8F134B1A681EF0100FD7
:1002000008BF20ED108A20E9F04F106008B44FF0CD
:10021000500080F31188BFF34F8FBFF36F8F05F04D
:100220002DFC4FF0000080F3118808BC19680868A5
:10023000B0E8F04F1EF0100F08BFB0EC108A80F34A
:100240000988BFF36F8F70474C000020EFF30580E3
:10025000704700000648804706480047FEE7FEE773
:10026000FEE7FEE7FEE7FEE7FEE7FEE7FEE7FEE766
:100270007D3E00088901000840EA01039B0703D086
:1002800009E008C9121F08C0042AFAD203E011F8D5
:10029000013B00F8013B521EF9D27047D2B201E097
:1002A00000F8012B491EFBD270470022F6E710B57B
:1002B00013460A4604461946FFF7F0FF204610BDD4
:1002C0002DE9FE4F81EA030404F0004421F00041CF
:1002D00000944FF0000B23F0004350EA01045ED07D
:1002E00052EA03045BD0C3F30A54C1F30A552C4409
:1002F000A4F2F3340194A0FB0254C1F3130141F4BE
:100300008011C3F3130343F4801301FB024400FB89
:10031000034E840A970A44EA815447EA8357A4FBB0
:10032000076802958D0A05FB07854FEA932C04FBAD
:100330000C542705029D4FEA065847EA1637B5EBDD
:1003400008056EEB070C870E920E47EA811742EA0A
:100350008312A7FB0201B6EB0B0164EB00042B0D2B
:1003600043EA0C335E1844EB1C50DA465146E7FB77
:100370000201C5F313044FEA0B3343EA14534FEA67
:100380000432019C43EA0603A4F10C040294009C8D
:10039000CDE900B400F0F5F803B0BDE8F08F00201F
:1003A0000146F9E72DE9F04D81EA030404F0004B22
:1003B00021F0004514464FF0000A23F0004150EAB6
:1003C000050220D054EA01021DD0C5F30A570246A7
:1003D000C5F31303C1F31300C1F30A5640F48015AB
:1003E00043F48013A7EB0608101BD64608F2FD382D
:1003F00073EB050002D308F1010801E092185B419C
:10040000B8F1000F03DA00200146BDE8F08D0020AE
:100410004FF48011064684460EE0171B73EB050768
:1004200005D3121B63EB050306434CEA010C490894
:100430004FEA300092185B4150EA0107EDD152EAD1
:10044000030012D082EA040083EA0501084305D0C4
:10045000101BAB4106D20122002306E000224FF020
:10046000004302E06FF0010253101AEB06004CEB60
:10047000085110EB0A0041EB0B01BDE8F04D00F014
:1004800071B80EB5C10F80EAE0700844CA070021B8
:1004900040F233438DE80E000A460B4600F071F837
:1004A00003B000BD0EB540F2334102910021CDE909
:1004B00000110A460B4600F064F803B000BD01F0DD
:1004C000004330B421F0004150EA010206D00A0D89
:1004D000A2F56072C1F31301002A02DC30BC0020D7
:1004E0007047440F44EAC104C100E01830BC00EB7F
:1004F000C250AFF300800029A8BF7047401C4900DC
:1005000008BF20F00100704710B4B0FA80FC00FA78
:100510000CF050EA010404BF10BC704749B1CCF1A3
:10052000200421FA04F411FA0CF118BF012121432F
:100530000843A3EB0C01CB1D4FEA00614FEA1020EA
:1005400042BF002010BC704700EBC350104400298C
:10055000A4BF10BC7047401C490008BF20F0010038
:1005600010BC704710B5141E73F1000408DA401C6B
:1005700041F1000192185B411A4301D120F00100C2
:1005800010BD2DE9F04D92469B4611B1B1FA81F2B2
:1005900002E0B0FA80F22032904600F053F80446B0
:1005A0000F4640EA0A0041EA0B0153465A46084307
:1005B00013D0114653EA010019D0C8F14002504649
:1005C00000F04FF805460E4650465946424600F0A8
:1005D00039F8084305D0012004E020463946BDE83B
:1005E000F08D0020054346EAE0762C4337430A9815
:1005F0006305E40AA0EB08000022FD0A44EA475420
:100600000A3002D500200146E9E7010510196941C9
:10061000DDE9084500196941BDE8F04DA2E7000099
:10062000064C074D06E0E06840F0010394E807003F
:1006300098471034AC42F6D3FFF7AAFDF8750008CE
:1006400018760008202A04DB203A00FA02F1002084
:1006500070479140C2F1200320FA03F31943904000
:100660007047202A04DB203A21FA02F0002170476B
:1006700021FA02F3D040C2F120029140084319460A
:10068000704700000A4A91680B78AC2B02D1CB79F5
:10069000CE2B02D00021018070474B78897843EA45
:1006A000012101809068C178117000795070704705
:1006B000C000002010B503F0C5FA034C606003F0E1
:1006C00087FAA06010BD0000C0000020FEE7000017
:1006D000F0B585B000244FF40075009500258DF825
:1006E00008508DF8095008258DF80A50050A8DF834
:1006F0000B508DF80C00080A8DF80D008DF80E10C7
:10070000100A8DF80F008DF81020180A8DF81100CE
:100710008DF812300A4F6946384600F022FE064630
:1007200040F6FF7501E0641CA4B23146384600F083
:1007300073FE002801D1AC42F5D305B0F0BD000036
:1007400000640040F0B585B0002440F2FF12009232
:1007500000228DF808208DF8092004228DF80A2047
:10076000020A8DF80B208DF80C00080A8DF80D0098
:100770008DF80E100A4F6946384600F0F2FD064625
:1007800040F6FF7501E0641CA4B23146384600F023
:1007900043FE002801D1AC42F5D305B0F0BD000006
:1007A00000640040F0B585B0002440F2FF120092D2
:1007B00000228DF808208DF8092004228DF80A20E7
:1007C000020A8DF80F208DF81000080A8DF811002C
:1007D0008DF812100A4F6946384600F0C2FD0646F1
:1007E00040F6FF7501E0641CA4B23146384600F0C3
:1007F00013FE002801D1AC42F5D305B0F0BD0000D6
:10080000006400402DE9F04F8BB00746DDF850B092
:10081000884691469A460121082002F005FF0121F1
:10082000480602F00FFF324E09220021304602F046
:1008300072F809220121304602F06DF8032002907F
:1008400002218DF80C1000248DF80E408DF80D005B
:1008500001258DF80F5002A9304602F01EF8142031
:100860008DF804008DF805508DF8075001A802F0AE
:10087000B9FB204E304600F0ABFB08A800F061FD4C
:100880008DF826408DF827408DF828408DF82940B6
:100890008DF82A408DF82B508DF822B08DF82370FA
:1008A0008DF824808DF82590ADF820A008A9304659
:1008B00000F084FC8DF81A408DF81B408DF81C5018
:1008C000ADF81040ADF81240ADF81440ADF8164048
:1008D000ADF818408DF81D5004A800F095FB0122DA
:1008E0000221304600F060FC0BB0BDE8F08F000044
:1008F000000C02400064004010B586B06C4C022130
:10090000204600F0EBFB002834D00221204600F006
:1009100067FA6849204600F04BFA01AA00212046F8
:1009200000F0CEFC019840F20522634BA0F20521B5
:1009300090427AD020DC6049A0F500700138A1F126
:10094000100135D0012847D0022859D0032811D1F1
:100950009DF810009DF80F2000EB022088819DF883
:1009600012009DF8112000EB022000B2C8819531E1
:1009700000F026FB06B010BD01296CD003297DD004
:100980000629F7D19DF810009DF80F1040EA0120CC
:1009900001B219819DF812009DF8112040EA022051
:1009A00002B25A81444B0120FA3300F05DFAE1E7CC
:1009B0009DF810209DF80F0002EB002008809DF8A4
:1009C00012009DF8112000EB022000B248803A4945
:1009D000103100F0F5FACDE79DF810009DF80F20DA
:1009E00000EB022088809DF812009DF8112000EB9A
:1009F000022000B2C8803049373100F0E1FAB9E78F
:100A00009DF810209DF80F0002EB002008819DF852
:100A100012009DF8112000EB022000B24881264907
:100A20005E3100F0CDFAA5E7FFE79DF810009DF8D4
:100A30000F1040EA012001B219809DF812009DF8C4
:100A4000112040EA022002B25A801B4B2420AC3312
:100A500000F00AFA8EE79DF810009DF80F1040EAAA
:100A6000012001B299809DF812209DF8110042EA00
:100A7000002002B2DA80104BD33300E003E02420E0
:100A800000F0F2F976E79DF810009DF80F1040EAAB
:100A9000012001B299819DF812009DF8112040EAD1
:100AA000022002B2DA81054B242000F0DDF961E773
:100AB0000064004008000032423001206331012010
:100AC000F0B585B0002440F2FF21009100218DF89F
:100AD00008108DF8091008228DF80A208DF80B10E7
:100AE0008DF80C108DF80D108DF80E10020A8DF88F
:100AF0000F208DF810008DF811108DF812100A4F8C
:100B00006946384600F02DFC064640F6FF7501E0C8
:100B1000641CA4B23146384600F07EFC002801D1A6
:100B2000AC42F5D305B0F0BD00640040F0B585B02F
:100B3000002440F2FF15009500258DF808508DF82F
:100B4000095008258DF80A50050A8DF80B508DF8CC
:100B50000C00080A8DF80D008DF80E10100A8DF8A3
:100B60000F008DF81020180A8DF811008DF8123042
:100B70000A4F6946384600F0F4FB064640F6FF751A
:100B800001E0641CA4B23146384600F045FC002860
:100B900001D1AC42F5D305B0F0BD000000680040C3
:100BA0002DE9F04F8BB08046894692469B46012145
:100BB000022002F039FD0121880602F043FD334F87
:100BC00009220521384601F0A6FE092206213846F1
:100BD00001F0A1FE6020029002268DF80C60002436
:100BE0008DF80E4003208DF80D0001258DF80F5073
:100BF00002A9384601F051FE40208DF804008DF81E
:100C000005608DF8075001A802F0ECF9204E30463F
:100C100000F0DEF908A800F094FB8DF826408DF86E
:100C200027408DF828408DF829408DF82A408DF80E
:100C30002B5014988DF822008DF823808DF8249085
:100C40008DF825A0ADF820B008A9304600F0B6FA1E
:100C50000E208DF81A008DF81B408DF81C50ADF851
:100C60001040ADF81240ADF81440ADF81640ADF8A4
:100C700018408DF81D5004A800F0C6F90122022189
:100C8000304600F091FA0BB0BDE8F08F000402404E
:100C90000068004010B586B0244C0221204600F0C8
:100CA0001DFA002826D00221204600F099F801AA5A
:100CB0000021204600F004FB019811281CD0019867
:100CC000A0F50071063915D19DF810009DF80F10A0
:100CD00040EA012001B2164881809DF812209DF85B
:100CE000113042EA032212B2C28000F137032420FD
:100CF00000F0BAF806B010BD0E489DF80F10017054
:100D00009DF8101041709DF8111081709DF812101F
:100D1000C1709DF8131001719DF8141041719DF878
:100D2000151081719DF81610C171E3E7006800404D
:100D30008A310120AC000020F0B585B0002400917C
:100D400000218DF808108DF8091008218DF80A107F
:100D500001788DF80B1041788DF80C1081788DF8A2
:100D60000D10C1788DF80E1001798DF80F104179B2
:100D70008DF8101081798DF81110C0798DF812005E
:100D80000A4F6946384600F0ECFA064640F6FF7511
:100D900001E0641CA4B23146384600F03DFB002857
:100DA00001D1AC42F5D305B0F0BD000000680040B1
:100DB0000A4A914202D1002181617047C1F31302B6
:100DC0008B0101D5C26070474B0101D502617047AC
:100DD000090101D582607047426070477000F030B1
:100DE00030B5082310240422B1F5007F33D011DC84
:100DF00020292AD007DC012922D0042923D0082960
:100E000000D1C46030BD402921D0B1F5807FF9D137
:100E1000426030BD0025B1F5004F20D008DCB1F5AF
:100E2000806F1AD0B1F5006FF3D18561426030BD9B
:100E3000B1F5803F0DD0B1F5003FF8D1446030BD31
:100E40000849816030BDC36030BD036130BD0461BD
:100E500030BD436030BD426030BD426030BD856111
:100E6000426030BD010101002DE9F04105462DED44
:100E7000028B1C46213462802088101AA08024F83E
:100E8000212900224FF40057002901DDB94202DD7B
:100E90000220207500E02275A1F2D17341F287365D
:100EA000012041F6583C4FF4FA68B34204D2227054
:100EB0006270A270E27006E0614501DD207002E020
:100EC000414500DAA0702678012E03D1414501DAB0
:100ED000607005E0A378012B02D1614500DDE07070
:100EE000B4F90400A368012E02D16678012E03D064
:100EF000A678012E08D011E0401CA08003F5005315
:100F0000A3602270627009E0E678012E06D1401ECF
:100F1000A080A3F50053A360A270E270B4F90400AE
:100F2000002803DD01EB4030E06010E005DA01EB62
:100F30004030A0F50050E06009E0A368BB4205DD49
:100F400001EB4030A0F50050E06000E0E160A068F7
:100F5000B0EB453F05DDA160E088401CE080A28049
:100F600024E0002808DA6D1E01EB4530A060E0881F
:100F7000401EE080A28019E0E068FFF782FA41ECB1
:100F8000180B6803FFF78EFA41EC100B53EC102B93
:100F90009FED090B51EC100BFFF704FA53EC182BE3
:100FA000FFF78EF9FFF78BFAC4F81500207DBDEC32
:100FB000028BBDE8F0810000000000000080764058
:100FC000213148800A88821A8A8008807047000090
:100FD00010B50C4988420AD101214C06204602F086
:100FE0003FFB2046BDE81040002102F039BB012143
:100FF0008C06204602F034FB2046BDE8104000215C
:1010000002F02EBB00640040F0B5827A01219140CD
:10101000304C226842F0010222602E4D1C352A68B5
:101020008A432A602B4A067B0C322B4B002E14D1AC
:1010300016688E4316604688C78846EA0746877A50
:1010400003EBC707C7F840660688878846EA074665
:10105000877A03EBC707C7F84466067B012E14D1D5
:1010600016680E4316604288068842EA0642867A6F
:1010700003EBC606C6F84026C288868842EA0642C6
:10108000867A03EBC603C3F84426124AC37A121DBC
:101090003BB113680B4313600E4A0389143223B12A
:1010A00006E013688B431360F6E713688B43136005
:1010B0000389012B02D113680B431360407B012885
:1010C00002D1286808432860206820F001002060D1
:1010D000F0BD0000006600400060004002460020B5
:1010E00053690B425DD0B1F5807F4AD016DC0829E8
:1010F00037D009DC01292CD002292ED0042950D167
:10110000D068082101F04AB910292ED0202930D00A
:10111000402946D11069102101F040B9B1F5004FC6
:101120003BD00CDCB1F5007F2FD0B1F5806F30D013
:10113000B1F5006F35D19069702101F02FB9B1F58B
:10114000803F1AD0B1F5003F2BD15068102101F03B
:1011500025B99068134901F021B9D068032101F045
:101160001DB9D068102101F019B91069032101F0EF
:1011700015B91069082101F011B95068082101F072
:101180000DB99069012101F009B99069022101F0BE
:1011900005B99069042101F001B95068042101F0FA
:1011A000FDB8704701010100002A03D042690A43DB
:1011B0004261704742698A434261704710B500221C
:1011C000036823F002030360036843F00103036034
:1011D0004FF6FF7300E0521C4468E40701D19A42C5
:1011E000F9D14268D2073ED08A79012A3DD00268FF
:1011F00022F080020260CA79012A3BD0026822F004
:10120000400202600A7A012A39D0026822F02002E4
:1012100002604A7A012A37D0026822F01002026086
:101220008A7A012A35D0026822F008020260CA7A5E
:10123000012A33D0026822F0040202608A78CC7856
:10124000920742EA04620C7942EA04424C79098826
:1012500042EA0452491E0A43C261016821F00101B9
:101260000160002120E0002010BD026842F08002F1
:101270000260C0E7026842F040020260C2E7026812
:1012800042F020020260C4E7026842F010020260ED
:10129000C6E7026842F008020260C8E7026842F04E
:1012A00004020260CAE7491C4268D20701D0994291
:1012B000F9D14068C00701D0002010BD012010BD49
:1012C00010B500EB0113D3F8B04104F0040414721C
:1012D000002C2CD0D3F8B041E408546003F5D87347
:1012E0001C6804F0020454725C6804F00F049472E9
:1012F0005C68240AD4749C68D4729C68240A1473B1
:101300009C68240C54739C68240E9473DC68D4731A
:10131000DC68240A1474DC68240C5474DB681B0E2B
:10132000937449B1016941F02001016110BDD3F806
:10133000B041640D1460D1E7C16841F02001C16083
:1013400010BD00218171C171017241728172C1723F
:101350008170C1700321017102214171012101805D
:10136000704730B50246002093685B010AD490684C
:10137000000101D5012005E09068C00001D50220E0
:1013800000E0042004283BD002EB0012D2F88031A8
:1013900003F00103C2F880310B7A93B3D2F8804195
:1013A0004D681C434B7A43EAC5031C43C2F8804195
:1013B0008B7A03F00F038B7202F5C072536823F02F
:1013C0000F03536053688C7A23435360CB7A8C7B32
:1013D0000D7B43EA04634C7B240444EA0524234345
:1013E0009360CB7B8C7C43EA04634C7C097C2404B3
:1013F00044EA01210B43D360116841F001011160FF
:1014000030BDFFE7D2F880314C7A23430C8843EAA1
:101410004453C2F88031CBE70022002904D00129CF
:1014200006D002290BD107E082681848024006E086
:1014300082681748024002E0826816480240164956
:10144000501A8A4218D007DC92B16FF080601018F1
:1014500010D0022809D113E0B0F5007F12D00F4957
:1014600040180BD0B0F5003F0ED00020C0B270473E
:101470000220FBE70020F9E70020F7E70020F5E76E
:101480000120F3E70120F1E70120EFE7030000046A
:101490000003000800000310000100080001FFF72E
:1014A00005489FED060A0021D0F8A624B0EE401AA8
:1014B000F0EE400A104700003E3501200000000019
:1014C000034902488968886070470000492900087C
:1014D000083A01202DE9F04186B00446002500209D
:1014E000049005908549097800290AD08449097833
:1014F00039B16060C4F8B500C4F86601C4F81702D9
:101500002EE09FED803AF8EE001AB0EE430A11EE9D
:10151000210AFDEEC00A10EE900A60609FED7A0A83
:10152000B0EE002AF0EE400A41EE420AFDEEE02A5B
:1015300012EE900AC4F8B500F0EE400A51EE210A0E
:10154000FDEEE00A10EE900AC4F86601B0EE430A20
:1015500001EE420ABDEEC00A10EE100AC4F81702EE
:1015600004AFE846B12005FB0046D6F8AC00B0F960
:10157000230000EE100A7068F8EEC00A00EE100AB0
:1015800006F10C00B8EEC00A01F078FD08EB85000A
:1015900080ED000AD6F8AC00B0F8230027F815005B
:1015A0006D1CEDB2042DDDD3042104A802F03CF93A
:1015B0000546280003D042F22E2085420BDC00981D
:1015C000E0640198C4F8FD000298C4F8AE010398E5
:1015D000C4F85F0269E0BDF9100098B103F05CFB4C
:1015E00000EE100ADDED000AB8EEC00A60EE200A37
:1015F00000EE105AB8EEC01A80EE810A10EE100A02
:10160000E06401E00098E064BDF91200A0B103F0CD
:1016100043FB00EE100ADDED010AB8EEC00A60EEF1
:10162000200A00EE105AB8EEC01A80EE810A10EEC1
:10163000100AC4F8FD0002E00198C4F8FD00BDF9ED
:101640001400A0B103F028FB00EE100ADDED020A41
:10165000B8EEC00A60EE200A00EE105AB8EEC01ACA
:1016600080EE810A10EE100AC4F8AE0102E0029882
:10167000C4F8AE01BDF91600A0B103F00DFB00EEF9
:10168000100ADDED030AB8EEC00A60EE200A00EE93
:10169000105AB8EEC01A80EE810A10EE100AC4F893
:1016A0005F0202E00398C4F85F02D4F85F0200EE24
:1016B000100ABDEEC00A10EE100A03B2D4F8AE0153
:1016C00000EE100ABDEEC00A10EE100A02B2D4F805
:1016D000FD0000EE100ABDEEC00A10EE100A01B2C5
:1016E000E06CD4F87A4400EE100ABDEEC00A10EEA9
:1016F000100A00B2A04706B0BDE8F081C00000208B
:10170000C100002000401C450000FAC370B504462B
:101710003B4A48B21379002B00D1107192F9043082
:101720008B4204D00123D3700023538110711379AD
:1017300003B91071C1EB0120C000C4F87903D4F8DB
:101740002104B0F923105189491C09B25181322971
:1017500004DBD0F8151001610220D07092F903006B
:1017600004F28135022802D001281DD02DE0D4F8E2
:101770002104D0F81510006900EE901A00EE100A4E
:1017800004F2D13001F07AFCD4F82104B0F923003E
:1017900000EE100AD4F81104F8EEC00A00EE100AA8
:1017A000284601F06BFC10E0D4F82104B0F92300C6
:1017B00000EE100AD4F87903F8EEC00A00EE100A21
:1017C0002846B8EEC00A01F059FCD4F8C103002342
:1017D00000EE100A1A46BDEEC00A10EE100A01B261
:1017E000D4F81003D4F8824400EE100AA446BDE8F1
:1017F0007040BDEEC00A10EE100A00B26047000053
:10180000D40000202DE9F0432E48A0F16401C86007
:101810000020486088602C4A0A60103188602B4E96
:101820004E602B4F0F6001F10C029060294951600E
:10183000294C14600C329060284B5360284B136085
:101840000C329060274B5360274B136002F10C055C
:10185000A860264A6A60264B2B600C35A860DFF82A
:1018600094C0C5F804C0DFF89080C5F800800C353E
:10187000A860DFF88890C5F80490DFF88490C5F878
:1018800000900C35C5E90041A860C5E90641286211
:10189000C5E90341686105F11C01C1E902760861EF
:1018A000C1E90576C861C1E9088C8862C1E90B32DB
:1018B0004863C1E90E320864C1E91132C864BDE869
:1018C000F08300006C3A0120453E000869300008B2
:1018D0004D300008F52A0008E12A0008D94A00081E
:1018E000C54A0008893C0008753C00081D2B00080B
:1018F000092B0008C1140008A1140008B93B000816
:10190000B53B00082DE9F04104462DED028B86B071
:10191000B0EE408AF0EE608A002500200490059029
:10192000B5EEC01AF1EE10FA1AD1B5EEC08AF1EE9A
:1019300010FA04D1F5EEC08AF1EE10FA10D0D4F806
:101940002604D0F8900000EE100AF1EE400A9FED58
:10195000860A04F22A4001F091FBB0EE401A04E03E
:10196000D4F8260450F8881F416078EE280A31EE3A
:10197000600ABDEEC00A10EE102A38EE680A70EE5A
:10198000011AFDEEE11A11EE901A31EE400ABDEE99
:10199000C00A10EE103A30EE810ABDEEC00A10EE19
:1019A000100A02EB82025200626001EB81014900E1
:1019B000C4F8B51003EB83014900C4F8661100EBCD
:1019C00080004000C4F8170204AFE846B12005FBD0
:1019D0000046D6F8AC00B0F9230000EE100A70689B
:1019E000F8EEC00A00EE100A06F10C00B8EEC00ACC
:1019F00001F044FB08EB850080ED000AD6F8AC004E
:101A0000B0F8230027F815006D1CEDB2042DDDD3CE
:101A1000042104A801F008FF0546280003D042F283
:101A20002E2085420BDC0098E0640198C4F8FD008C
:101A30000298C4F8AE010398C4F85F0269E0BDF9EA
:101A4000100098B103F028F900EE100ADDED000A4D
:101A5000B8EEC00A60EE200A00EE105AB8EEC01AC6
:101A600080EE810A10EE100AE06401E00098E06464
:101A7000BDF91200A0B103F00FF900EE100ADDED80
:101A8000010AB8EEC00A60EE200A00EE105AB8EE65
:101A9000C01A80EE810A10EE100AC4F8FD0002E0C0
:101AA0000198C4F8FD00BDF91400A0B103F0F4F8EA
:101AB00000EE100ADDED020AB8EEC00A60EE200A60
:101AC00000EE105AB8EEC01A80EE810A10EE100A2D
:101AD000C4F8AE0102E00298C4F8AE01BDF91600E8
:101AE000A0B103F0D9F800EE100ADDED030AB8EE5C
:101AF000C00A60EE200A00EE105AB8EEC01A80EE5E
:101B0000810A10EE100AC4F85F0202E00398C4F8DC
:101B10005F02D4F85F0200EE100ABDEEC00A10EEBC
:101B2000100A03B2D4F8AE0100EE100ABDEEC00AEE
:101B300010EE100A02B2D4F8FD0000EE100ABDEE5D
:101B4000C00A10EE100A01B2E06CD4F87A4400EE3C
:101B5000100ABDEEC00A10EE100A00B2A04706B08F
:101B6000BDEC028BBDE8F0810000000010B5144C04
:101B70001248A0601348E060134860611348A061F8
:101B80001348E0611348E062134820621348606222
:101B90001348A062134860631348206302F04EF8B4
:101BA0002060E168A4F29240884702F03FF860604C
:101BB000A0688047BDE81040FEF77CBD051800080E
:101BC000D03901203149000805190008B520000866
:101BD0009D1D0008251C0008D5140008491C00089C
:101BE0000D170008B51F00088506000810B508216C
:101BF0000A4800F0A2FE0A49D1F89204C26A01EE36
:101C0000102AC269C06800EE902AD1F8A62400EE1E
:101C1000100ABDE8104000210148104700080240AA
:101C20003E35012030B40021C0F85F12C0F8AE117B
:101C3000C0F8FD10C164D0F87A440023A44630BC3B
:101C40001A461946184660472DE9F0470446504D9C
:101C500048B2AA78002A00D1A87095F9022000267F
:101C60008A4203D001226A702E81A870022704F5EF
:101C7000487804F53479012902D0022939D070E07E
:101C80004448C4F81003D4F87003B0F9230003F0FB
:101C900003F8322865DC2889401C00B228813C28E2
:101CA00008DD2E81C4F8C862D4F87003D0F815108E
:101CB00001616F706878022853D1D4F87003D0F8AE
:101CC0001510006900EE901A00EE100A404601F06F
:101CD000D5F9D4F87003B0F9230000EE100AD4F857
:101CE0006003F8EEC00A00EE100A484601F0C6F99B
:101CF00037E02948C4F81003D4F87003B0F9230082
:101D000002F0CAFF64282CDC2889401C00B228811C
:101D1000322808DD2E81C4F8C862D4F87003D0F8E8
:101D2000151001616F70687802281AD1D4F8700319
:101D3000D0F81510006900EE901A00EE100A404627
:101D400001F09CF9D4F87003B0F9230000EE100AFA
:101D5000D4F86003F8EEC00A00EE100A484601F01D
:101D60008DF9D4F8C103D4F87E2400EE100ABDEE3C
:101D7000C00A10EE100A01B2D4F81003BDE8F04713
:101D800000EE100ABDEEC00A10EE100A00B21047B5
:101D9000D400002000803BC500A08C452DE9F04117
:101DA00086B0044600250020049005909FED801A1F
:101DB000B2EE042AB8EE003A20EE020AF0EE401A23
:101DC00000EE820AF0EE402A11EE030ABDEEC00AD0
:101DD00010EE100A606040EEC21AB0EE000AF0EE9B
:101DE000610A41EE400AFDEEE00A10EE900AC4F8E6
:101DF000B50051EE031AFDEEE10A10EE900AC4F8A8
:101E0000660141EE402ABDEEE20A10EE100AC4F867
:101E1000170204AFE846B12005FB0046D6F8AC0037
:101E2000B0F9230000EE100A7068F8EEC00A00EE68
:101E3000100A06F10C00B8EEC00A01F01FF908EB19
:101E4000850080ED000AD6F8AC00B0F8230027F832
:101E500015006D1CEDB2042DDDD3042104A801F0A2
:101E6000E3FC0546280003D042F22E2085420BDC1D
:101E70000098E0640198C4F8FD000298C4F8AE012F
:101E80000398C4F85F0269E0BDF9100098B102F050
:101E900003FF00EE100ADDED000AB8EEC00A60EEA6
:101EA000200A00EE105AB8EEC01A80EE810A10EE39
:101EB000100AE06401E00098E064BDF91200A0B1EE
:101EC00002F0EAFE00EE100ADDED010AB8EEC00AEB
:101ED00060EE200A00EE105AB8EEC01A80EE810AB9
:101EE00010EE100AC4F8FD0002E00198C4F8FD00ED
:101EF000BDF91400A0B102F0CFFE00EE100ADDED36
:101F0000020AB8EEC00A60EE200A00EE105AB8EEDF
:101F1000C01A80EE810A10EE100AC4F8AE0102E089
:101F20000298C4F8AE01BDF91600A0B102F0B4FEEB
:101F300000EE100ADDED030AB8EEC00A60EE200ADA
:101F400000EE105AB8EEC01A80EE810A10EE100AA8
:101F5000C4F85F0202E00398C4F85F02D4F85F029D
:101F600000EE100ABDEEC00A10EE100A03B2D4F85B
:101F7000AE0100EE100ABDEEC00A10EE100A02B269
:101F8000D4F8FD0000EE100ABDEEC00A10EE100AF3
:101F900001B2E06CD4F87A4400EE100ABDEEC00A3B
:101FA00010EE100A00B2A04706B0BDE8F0810000B4
:101FB00000404E4570B504460D46D4F82604D0F8CE
:101FC000900000EE100A04F22A40F1EE400A9FED64
:101FD0002C0A01F053F8BDEEC00A2A4910EE100A8F
:101FE00000B2C8802A186260401BC4F8B500C4F86B
:101FF0006621C4F817020025B12005FB0046D6F87B
:10200000AC00B0F9230000EE100A7068F8EEC00AC8
:1020100000EE100A06F10C00B8EEC00A01F02EF82E
:1020200010EE100AF0646D1CEDB2042DE4D3D4F868
:102030005F0200EE100ABDEEC00A10EE100A03B2F5
:10204000D4F8AE0100EE100ABDEEC00A10EE100A80
:1020500002B2D4F8FD0000EE100ABDEEC00A10EE88
:10206000100A01B2E06CD4F87A4400EE100AA446DB
:10207000BDE87040BDEEC00A10EE100A00B2604725
:1020800000000000D40000204FF4FA7003F0A4FB1D
:10209000FFF76CFD064CD4F892040068C27A817A8E
:1020A000D4F8960400F081FB022003F095FBF2E7E0
:1020B0003E3501202DE9F04104462DED048B86B01C
:1020C000B0EE409AF0EE608AB0EE418A0025002220
:1020D00004920592D4F82614AD4EAE4BD1F8900080
:1020E000B04200DB1A70AC4A904201D301221A7050
:1020F000B5EEC08AF1EE10FA1AD11A7804F22A412C
:10210000012A01D052B11CE000EE900AB3EE0E0A93
:10211000084600F0B3FFB0EE408A12E000EE900AED
:10212000BBEE0E0A084600F0A9FFB0EE408A08E0B8
:1021300051F8880F00EE100AB1EE400A10EE100AB6
:102140004860B5EEC09AF1EE10FA0DD0D4F826042E
:10215000D0F8900000EE100AB1EE400A02F0D6FC72
:1021600002F02EFD20EE099AF5EEC08AF1EE10FA8B
:102170000DD0D4F82604D0F8900000EE100AB1EE8D
:10218000400A02F0C3FC02F01BFD60EE288AB2EEAA
:10219000041AB8EE002A69EE010AB0EE600A48EEB1
:1021A000810AF0EE601A58EE020AFDEEE00A10EE27
:1021B000900A606008EEC10AF0EE000AB0EE401A24
:1021C00008EE601ABDEEC11A11EE100AC4F8B5008F
:1021D00018EE020ABDEEC00A10EE100AC4F866013D
:1021E00048EE601ABDEEE10A10EE100AC4F81702BC
:1021F00004AFE846B12005FB0046D6F8AC00B0F9C4
:10220000230000EE100A7068F8EEC00A00EE100A13
:1022100006F10C00B8EEC00A00F030FF08EB8500B4
:1022200080ED000AD6F8AC00B0F8230027F81500BE
:102230006D1CEDB2042DDDD3042104A801F0F4FAE5
:102240000546280003D042F22E2085420BDC009880
:10225000E0640198C4F8FD000298C4F8AE01039848
:10226000C4F85F0269E0BDF9100098B102F014FDF6
:1022700000EE100ADDED000AB8EEC00A60EE200A9A
:1022800000EE105AB8EEC01A80EE810A10EE100A65
:10229000E06401E00098E064BDF91200A0B102F032
:1022A000FBFC00EE100ADDED010AB8EEC00A60EE9C
:1022B000200A00EE105AB8EEC01A80EE810A10EE25
:1022C000100AC4F8FD0002E00198C4F8FD00BDF951
:1022D0001400A0B102F0E0FC00EE100ADDED020AED
:1022E000B8EEC00A60EE200A00EE105AB8EEC01A2E
:1022F00080EE810A10EE100AC4F8AE0102E00298E6
:10230000C4F8AE01BDF91600A0B102F0C5FC00EEA4
:10231000100ADDED030AB8EEC00A60EE200A00EEF6
:10232000105AB8EEC01A80EE810A10EE100AC4F8F6
:102330005F0202E00398C4F85F02D4F85F0200EE87
:10234000100ABDEEC00A10EE100A03B2D4F8AE01B6
:1023500000EE100ABDEEC00A10EE100A02B2D4F868
:10236000FD0000EE100ABDEEC00A10EE100A01B228
:10237000E06CD4F87A4400EE100ABDEEC00A10EE0C
:10238000100A00B2A04706B0BDEC048BBDE8F08196
:102390000000C841D40000200000C8C1024600204F
:1023A0000A4200D00120704770B50B4D0B4C2946F6
:1023B000204600F011F901280DD12946204600F0F1
:1023C00033F82946204600F045F8BDE8704004493E
:1023D000044801F0BFB970BD0088001028640240B5
:1023E00040320120202F012070B50B4D0B4C2946A7
:1023F000204600F0F1F801280DD12946204600F0D2
:1024000013F82946204600F025F8BDE8704004493D
:10241000044801F09FB970BD008800208864024024
:1024200040320120202F0120074A904201D2074864
:1024300001E005481038064A8B0001EA020101D587
:10244000C1607047816070471064024000600240C4
:102450007D0F7D0F074A904201D2074801E00548F1
:102460001038064A8B0001EA020101D5C1607047AD
:102470008160704710640240006002407D0F7D0F54
:10248000002904D0016841F0010101607047016832
:1024900021F00101016070472DE9F043016821F04E
:1024A000010101600021016041608160C160016142
:1024B000212141613E493E4A10394FF03D0890428A
:1024C00003D1C1F80880BDE8F083394A4FF4746540
:1024D0001832904201D18D60F5E7354A4FF47416F9
:1024E0003032904201D18E60EDE7314A4FF074678F
:1024F0004832904201D18F60E5E72D4B2D4A603381
:10250000984201D1CA60DEE7294C2B4B7834A042B7
:1025100001D1CB60D7E7DFF898C0284C0CF1900CC4
:10252000604501D1CC60CEE7DFF884904FF03D5C90
:1025300009F1A809484502D1C1F80CC0C3E72049F8
:10254000DFF87C900839484502D1C1F80080BAE72D
:10255000DFF86C8008F11808404501D10D60B2E742
:10256000174D3035A84201D10E60ACE7144D483507
:10257000A84201D10F60A6E7114D11496035091F2E
:10258000A84201D10A609EE70D4A7832904201D1FB
:102590000B6098E70A4A9032904201D10C6092E7B2
:1025A000074AA83290428ED1C1F800C08BE70000E4
:1025B000106002403D000020400F002000003D2040
:1025C00010640240014600200968C90700D00120BC
:1025D0007047406880B2704702460020084B9A421C
:1025E00001D2084A01E0064A103A8B0001D5526830
:1025F00000E01268044B1A400A4200D001207047E4
:1026000010640240006002407D0F7D0F0B0609D56B
:1026100022B1436943F08003436103E0436923F03F
:1026200080034361802905D001F01E011AB10268C0
:102630000A430260704702688A43026070470000E4
:1026400030B50368124A1340CC680A682243D1E9C6
:1026500005452C432243CC6922430C6A22434C6A31
:1026600022438C6A22434C6B22438C6B22431A43D5
:102670000260426922F00703D1E90B2422431A4386
:1026800042610A6942604A6882608968C16030BDFF
:102690003F801CF04160704700B50246104602F0D2
:1026A000FBFA884200DA0022104600BD70470000A5
:1026B000C82003F091F82D4E2D4C2E4FDFF8B88036
:1026C0004FF4A565D6F892040168B1F9000000F551
:1026D0002570A84202D82088401C2080B1F9020051
:1026E00000F52570A84202D82088401C2080B1F94E
:1026F000060000F52570A84202D82088401C2080E2
:10270000B1F9040000F52570A84202D82088401CC9
:102710002080B1F9080000F52570A84202D8208871
:10272000401C208091F90A00401E022802D820880F
:10273000401C208091F90B00401E022802D82088FE
:10274000401C20802088072803D100F0AFF900202A
:1027500020801F21384600F0F2F88021404600F02A
:10276000EEF8C82003F038F8ACE700003E35012051
:10277000E200002000100240000402400021C1706D
:102780008170417001708160C1608180C180016190
:10279000C0F81910C0F8151002220275A0F8251013
:1027A000A0F82310A0F82110704710B504460029A6
:1027B00022D0032920D8002A1ED0032A1CD8491E63
:1027C00001EBC1008000521E02EB420100EB8100D0
:1027D000E1680144A160D4E900209047012802D1BA
:1027E000A06800688047A068606040688047A06873
:1027F0008068BDE81040004710BD002818D010EEDA
:10280000101A0160C26800EE101A00EE902AB7EEAE
:10281000001A416820EE800A00EE902A31EE601A1C
:1028200000EE901A01EE200A10EE101A816041604D
:10283000704710EE101AC160002181604160016094
:10284000704710B5044600200A182318A25C83F8CC
:102850000721401CC0B20728F6D30C2104F5807074
:1028600002F02EF8012803D0012084F8370110BDB2
:1028700004F20714207894F82D1060F30301000986
:1028800060F3071184F82D106078A17840EA0120E8
:10289000E085002084F8300010BD2DE9F0410022D1
:1028A00001274FF0030C07FA02F50B682B40AB42EF
:1028B0002CD1066853000CFA03F4A64306600E7987
:1028C000D0F800809E4046EA080606600E79012E88
:1028D00001D0022E12D18668A64386604E79D0F8C8
:1028E00008809E4046EA080686604668AE43466019
:1028F00045688E799640B6B235434560C568A543B4
:10290000C560CC799C40C3681C43C460521C102A2B
:10291000C9D3BDE8F08110B54B07DB0E9A40C9085A
:1029200000EB8100016A0F249C40A1430162016A0F
:102930001143016210BD41837047018370474269B2
:102940004A4042617047000010B501F0D7F90648CF
:102950009FED060A0021D0F8A624BDE81040B0EE95
:10296000401AF0EE400A10473E35012000000000FA
:1029700010B503461046002B01D0084C0AE04FF674
:10298000FF7010BD13F8012B4240D2B234F8122070
:1029900082EA1020491E4A1CF4D110BD9C65000833
:1029A00010B5054C03E010F8013B5340E25C491EB2
:1029B0004B1CF8D1104610BD9C6400084FF4FA700F
:1029C00002F00AFF044800F09FFD034800F0ECFC11
:1029D000022002F001FFF8E7D83A0120FEE70000EC
:1029E000F8B500F023F8104C206A8047606A8047F1
:1029F0002068804720698047002600966569032388
:102A0000072204213046A8470096A5690323072220
:102A100004210020A847A26A01B04FF4FA71BDE872
:102A2000F040042010470000E80000200948084951
:102A30000162094941620949C161094901600949C5
:102A40004161094981610949016109498162704710
:102A50000D2F0008E80000209D3C0008613F0008A1
:102A6000ED42000805080008A10B000861410008BC
:102A7000852A000802494CF6CC40086070470000E7
:102A80000030004070B505460C4645F2555000F048
:102A900021F8284600F012F8204600F015F800F062
:102AA00005F8BDE87040FFF7E5BF000002494AF6AF
:102AB000AA200860704700000030004001494860CB
:102AC00070470000003000400149886070470000F6
:102AD00000300040014908607047000000300040AD
:102AE0000348D0F8260450F8881F41607047000062
:102AF0003E3501200349024889688860704700001C
:102B0000ED1B0008083A01200348D0F8260450F8CD
:102B1000881F4160704700003E35012010B53F4CD2
:102B2000D4F8920490F8650010F0300F04D08107BB
:102B300002D010F00C0F03D1D4F8BE1437488847E8
:102B4000D4F8920490F86510C1F3011101290DD158
:102B5000C16DD4F8A62401EE101AC16CC06B00EE52
:102B6000901A00EE100A00212C489047D4F89204E5
:102B700090F8651001F0030101290CD1C16D01EE3F
:102B8000101AC16CC06B00EE901A00EE100AD4F857
:102B9000AE1422488847D4F8920490F86510C1F327
:102BA0008101012911D1C16D01EE101AC16CC06BF8
:102BB00000EE901A00EE100AD4F8AA1417488847BD
:102BC000D4F8260450F8881F4160D4F8920490F895
:102BD0006600C00605D5D4F8B62402210F489047F8
:102BE00004E0D4F8B62401210C489047D4F89204AC
:102BF00090F86600800605D5D4F8BA24012107486C
:102C0000904705E0D4F8BA244FF0FF3103489047CD
:102C1000044903488968886010BD00003E350120E2
:102C2000D9470008083A01202DE9F047B54C216842
:102C3000B1F81D0041F27072C2F100065FEAC0797E
:102C40004FF0C80340F6B8356FF0C7074FEA660C7F
:102C50004FF000080ED05FEAC06902D5A1F813203A
:102C60001CE05FEA806902D5A1F8133016E0A1F8F4
:102C7000135013E05FEA80790ED55FEAC06902D590
:102C8000A1F813600AE05FEA806902D5A1F8137029
:102C900004E0A1F813C001E0A1F8138041070FD5AB
:102CA000C10603D52168A1F815601EE0810603D591
:102CB0002168A1F8157018E02168A1F815C014E08A
:102CC00001070FD5C10603D52168A1F815200CE036
:102CD000810603D52168A1F8153006E02168A1F826
:102CE000155002E02168A1F815802168F1EE040A70
:102CF00031F90D2F00EE102AB8EEC00A20EE200A9E
:102D0000BDEEC00A10EE102A8A81216831F90F2F1A
:102D100000EE102AB8EEC00A20EE200ABDEEC00A6E
:102D200010EE102A0A81410606D594F8651021F0AC
:102D3000C001403184F86510010606D594F865108D
:102D400021F0C001803184F86510C10505D594F8E3
:102D5000651041F0C00184F8651081050ED581062B
:102D600006D594F8661041F0400184F8661005E03D
:102D700094F8661021F0400184F86610410512D5E0
:102D8000810608D594F8661021F0100121F0200189
:102D900084F8661007E094F8661041F0100141F0E5
:102DA000200184F86610C1060CD594F8651021F056
:102DB0003001103121F00301891C21F00C01083190
:102DC00084F8651001050CD594F8651021F03001E8
:102DD000203121F00301491C21F00C01083184F855
:102DE0006510C1040ED5810606D594F8661021F051
:102DF000010184F8661005E094F8661041F00101C5
:102E000084F8661081040ED5810606D594F8661004
:102E100021F0020184F8661005E094F8661041F094
:102E2000020184F8661041040ED5810606D594F897
:102E3000661021F0040184F8661005E094F866102D
:102E400041F0040184F8661001040ED5800606D511
:102E500094F8660020F0080084F8660005E094F815
:102E6000660040F0080084F86600274D20686E4236
:102E70002A46B0F91300314601F013FF2168A1F88A
:102E8000130020682A463146B0F9150001F009FF09
:102E90002168A1F8150020682A463146B0F91700CC
:102EA00001F0FFFE2168A1F8170020682A4631468C
:102EB000B0F9190001F0F5FE2168A1F819002068A9
:102EC000B0F9130000EE100A0E48B8EEC00A343014
:102ED000FFF793FC2068B0F9150000EE100A0948CE
:102EE000B8EEC00A4430FFF788FC2068B0F919003A
:102EF000BDE8F04700EE100A0248B8EEC00A5430B0
:102F0000FFF77BBCD73401206CFDFFFF7CB50121AE
:102F1000102000F089FB0121022000F085FB012038
:102F20008DF8040000218DF8061003218DF805109E
:102F30008DF807001F2000900C4C69462046FFF7D3
:102F4000ACFC802100910A4D69462846FFF7A5FC9C
:102F500007212046FFF7F1FC18212046FFF7EBFC84
:102F600080212846FFF7E7FC7CBD000000100240EE
:102F700000040240FEE7000010B504462DED028B70
:102F8000002060806070207060609FED148AA060F7
:102F900004F10C00B0EE482AF0EE481AB0EE481AE0
:102FA000F0EE480AB0EE480A00F006F9B0EE482A02
:102FB000F0EE481AB0EE481AF0EE480AB0EE480AB1
:102FC00004F15C0000F0F8F854F8AC0FFFF7D6FB02
:102FD0000B202071BDEC028B10BD00000000000032
:102FE0007047000030B50F23C27801250178002A10
:102FF0001FD0154A126802F4E062C2F5E062C2F323
:103000000722C2F10404D3404278A24084781C40D5
:103010001443220101F1E02181F80024007800F03E
:103020001F018D404009800000F1E020C0F80051F0
:1030300030BD01F01F0085404809800000F1E0200C
:10304000C0F8805130BD00000CED00E005490020C3
:10305000C1F85F02C1F8AE01C1F8FD00C86400F01C
:103060004DBE00003E350120034902488968886052
:10307000704700001D360008083A012010B50028EE
:103080007ED010EE101A016010EE902A4260C369E3
:1030900003628369C36100EE101A00EE902A30EEDD
:1030A000600A10EE101A8161426A00EE101A00EEFA
:1030B000902A30EE800A10EE102A4262C46A04633D
:1030C000846AC46200EE101A00EE903A30EE600A94
:1030D00010EE104A8462C36800EE101A00EE903AB7
:1030E00020EE800A10EE103A4363016900EE102AC8
:1030F00000EE901A20EE800A10EE101A81634269E9
:1031000000EE104A00EE902A20EE800A10EE102AFF
:10311000C26300EE101A816C00EE901AB4EEE00A61
:10312000F1EE10FA00DB8163846B00EE101A00EE02
:10313000904AB1EE400AF4EEC00AF1EE10FA06D859
:1031400000EE101AB1EE400A10EE101A8163816B86
:1031500000EE103A00EE901A70EE200A00EE102AEF
:1031600030EE800A10EE101A0164406C00EE101A66
:1031700000EE900AB4EEE00AF1EE10FA07DB00E090
:1031800002E000EE100A10BD9FED0A0A10BD00EE2D
:10319000900A00EE101AF1EE600AB4EEE00AF1EEC9
:1031A00010FA04D800EE100AB1EE400A10BD00EE8D
:1031B000101A10BD0000000000281DD010EE101ADB
:1031C000C16010EE901A016111EE101A416111EE0A
:1031D000901A816412EE101A416400218161C1616C
:1031E00001628162C162016341628160416001608C
:1031F0000164C16381634163704738B504460020B0
:103200000A182318A25C83F80721401CC0B21428B6
:10321000F6D3192104F5807001F052FB012803D088
:10322000012084F88C0138BD04F2071420786178FD
:1032300040EA0120A4F87500A078E17840EA012076
:10324000A4F8770020798DF8000060798DF80100EE
:10325000A0798DF80200E0798DF803000098C4F899
:103260007900207A617A40EA0120A4F87D00A07AF2
:10327000E17A40EA0120A4F87F00207B617B40EAEC
:103280000120A4F88100A07BE17B40EA0120A4F8A2
:10329000830038BD2DE9F04107462DED028B002457
:1032A0003A4E9FED398AD6F88C5067E0305D55284C
:1032B00062D13019C17A55295ED1817D55295BD102
:1032C000C07D532858D104F1160030448178C2786B
:1032D00043791144027990F808C01A440A4481796C
:1032E0005318C2791344634490F809C06344A83367
:1032F000DBB2807A984243D141EA0220FDF7D2F84E
:103300009FED231B53EC112BFCF7DAFF9FED221BE3
:1033100053EC112BFCF7D4FFFDF7D1F8C6F8880069
:1033200000EE100A00EE905A30EE600A10EE101A0D
:10333000C6F890101A4A91420CDD00EE100A70EEA9
:10334000480A00EE105A30EEC00A10EE100AC6F815
:1033500090000EE0134A91420BD900EE100A70EE75
:10336000080A00EE105A30EEC00A10EE100AC6F835
:103370009000012086F89400641CE4B2BC4295D30E
:10338000BDEC028BBDE8F0810000B4439E32012009
:10339000000000000000003F0000000000806640C8
:1033A00000009643000096C310B50446D4F86201AD
:1033B0000168C97E9FED4E0A002909D0D4F8B910E2
:1033C00000EE901A70EE800A10EE901AC4F8B91050
:1033D0000168097F49B1D4F8B91000EE901A30EEB7
:1033E000C00A10EE101AC4F8B91090F86600400632
:1033F00003D54048C4F8B90002E03F48C4F8B9001A
:10340000D4F8B90000EE100AD4F85D01D0F8150028
:1034100000EE900A04F20D1030EE600ADFED370A7C
:10342000FFF72CFED4F85D01B0F9230000EE100A7E
:10343000D4F84D01F8EEC00A00EE100A04F1BD0008
:10344000FFF71CFED4F862010068B0F90F0020B34A
:1034500000EE900A9FED2A1AA168F8EEE00A00EE4D
:10346000101A60EE810A9FED271A00EEC10A10EED5
:10347000100AA06000EE100A6FF009022821BDEECC
:10348000C00A10EE100A00B201F00BFC00EE100AA8
:10349000B8EEC00A10EE100AA060D4F8AC00D0F864
:1034A000150000EE900AA06800EE100A04F15C001E
:1034B000FFF7E4FDD4F8AC00B0F9230000EE100AE9
:1034C000D4F89C00F8EEC00A00EE100A04F10C00DB
:1034D000FFF7D4FDD4F8FD00D4F86A1100EE100A0D
:1034E000BDE81040BDEEC00A10EE100A00B2084759
:1034F0009A99193F00005D4366661642000000007D
:103500000AD7233C8FC2753D10B504462DED028BC2
:103510003D48C4F866013D48C4F86A012046FFF7FB
:103520002BFD04F1B100FFF727FD00F087FBC4F885
:103530006201082000F050FBC4F8AC00072000F046
:103540004BFBC4F85D01082020709FED318AB3EE7B
:10355000040A04F15C00B0EE482AF0EE481AB0EE1E
:10356000481AF0EE480AFFF727FEB0EE482AF0EEC0
:10357000481AB0EE481AF0EE480AB1EE000A04F11B
:103580000C00FFF719FED4F8AC0050F8151FA1602D
:1035900001684160D4F8AC00D0F815100161242016
:1035A0006080072084F8B100B0EE482AF0EE481A97
:1035B000B0EE481AF0EE480A9FED160A04F20D101C
:1035C000FFF7FAFDB0EE482AF0EE481A9FED121A06
:1035D000F0EE480AB0EE080A04F1BD00FFF7ECFD7A
:1035E000E134E06FD0F8151044F8281C50F8151F8E
:1035F0004160E06FD0F815100161012024F82E0C15
:10360000BDEC028B10BD0000A5070008C10A000830
:1036100000000000000070420AD7233C0148D0F8A7
:10362000BE1408473E350120054A002903D0116821
:1036300001431160704711688143116070470000B9
:1036400030380240054A002903D011680143116057
:103650007047116881431160704700004038024094
:10366000054A002903D011680143116070471168B1
:10367000814311607047000020380240054A00294C
:1036800003D01168014311607047116881431160D4
:103690007047000044380240054A002903D01168F1
:1036A0000143116070471168814311607047000049
:1036B0002438024030B5244C216801F00C01234A23
:1036C00000291DD004291DD008291DD002602168C1
:1036D00001F0F00109091E4A535C0168D9404160BC
:1036E000236803F4E0539B0AD35C21FA03F383605D
:1036F000236803F460435B0BD25CD140C16030BDF2
:103700000260E4E70260E2E70F4B1B1F1968C1F398
:103710008055196801F03F0135B1B2FBF1F11A682B
:10372000C2F38812514305E0B2FBF1F11A68C2F30B
:10373000881251431A68C2F30142521C5200B1FB75
:10374000F2F10160C3E700000838024040787D01D3
:1037500014000020F0B5002863D0002961D0314862
:103760000278437842EA0322C2F30A050D804278C8
:103770008378D20842EA4312C2F30A024A8083786D
:10378000C4789B0943EA8403047943EA8423C3F39E
:103790000A038B8004794679640844EAC614C4F3AA
:1037A0000A04CC804679B6098E724679C6F30116B2
:1037B000CE72067C477C46EA0726C6F30A060E81CF
:1037C0008679C77946EA0726A1F80D60067A477A16
:1037D00046EA0726A1F80F60867AC77A46EA0726E6
:1037E000A1F81160067BCE76467B0E77867BC77B81
:1037F00046EA0726A1F81D60067C407C46EA0020C8
:10380000A5F580650D80A2F580624A80A3F58063EE
:103810008B80A4F58064CC80A0F5806008810120B5
:103820000873F0BD202F012030B50346B3F9000026
:1038300001F032FA05460D4C012020800FE033F9EB
:10384000120001F029FAA84206DDB4F9000033F9AC
:10385000100001F021FA05462088401C2080B4F9B0
:1038600000208A42EBDB284630BD0000E400002047
:1038700010B5044600200A182318A25C83F807211B
:10388000401CC0B21628F6D31B2104F5807001F04D
:1038900017F8012803D0012084F87B0110BD04F241
:1038A0000714207884F86200607884F86300A078B8
:1038B000E17840EA0120A4F864002079617940EAC7
:1038C0000120A4F86600A079E17940EA0120A4F87B
:1038D0006800207A617A40EA0120A4F86A00A07AA0
:1038E000E17A40EA0120A4F86C00207B617B40EA89
:1038F0000120A4F86E00A07B84F87000E07B84F8BF
:103900007100207C84F87200607C14F8731F60F3EF
:103910000001420862F34101800860F382012170D6
:103920000020607010BD000010B51D4C0A212068F9
:10393000B0F90000FEF7B0FE2168088020680A2177
:10394000B0F90200FEF7A8FE2168488020680A212D
:10395000B0F90400FEF7A0FE216888802068B0F965
:10396000020000EE100A201DB8EEC00AFEF745FF67
:103970002068B0F9000000EE100A04F11400B8EE5F
:10398000C00AFEF73AFF2068B0F9040000EE100A02
:1039900004F12400BDE81040B8EEC00AFEF72DBFC8
:1039A000D734012070B50546002443E0285DA528E2
:1039B0003DD10521284600F0A3FF012837D1281961
:1039C0004178827841EA0221A5F82F114179807966
:1039D00041EA0020A5F83101002001192A18695C8C
:1039E00082F80011401CC0B20728F6D3B5F9311196
:1039F000012930D003291AD0042918D0A1F58070EC
:103A0000013814D0B1F5817F11D0A1F5807005384F
:103A10000DD0A1F50070013815D0A1F50070023865
:103A200021D0B1F5017F02D0A1F50070053804F175
:103A30000104E4B2B5F92D01A042B7DC0E49002023
:103A400081F8330170BDE01DC1B22846FFF710FFB9
:103A50001A34E4B2EBE7E01DC1B22846FEF7F1FEEE
:103A60000B34E4B2E3E7E01DC1B22846FFF7C5FB23
:103A70001834E4B2DBE700003333012070B50E4C9C
:103A80000E4D2068297890F90A00884201D000F094
:103A900051F82068017B39B1807A032808D0FFF7FC
:103AA00043FF2168002008732068807A287070BD69
:103AB000FFF7BAF8F5E70000D7340120E000002056
:103AC00010B52DED028B00F035F8184C022120685E
:103AD000C172206881729FED168A201DB0EE480ADF
:103AE000FEF7A7FEB0EE480A04F11400FEF7A1FEAF
:103AF000B0EE480A04F12400FEF79BFEB0EE480A3F
:103B000004F13400FEF795FEB0EE480A04F14400DB
:103B1000FEF78FFEB0EE480A04F15400FEF789FE6E
:103B200000F090F82060BDEC028B10BDD73401206E
:103B30000AD7A33D184800210268D180026891800D
:103B40000268518002681180026811730268118155
:103B50000268A2F811100268A2F80F100268A2F819
:103B60000D10026811770268D1760268A2F81D1064
:103B700090F8651021F0C00180F8651090F866108B
:103B800041F0010121F0020121F0040121F00801BE
:103B900080F8661070470000D73401204FF4FA70A7
:103BA00001F01AFEFFF78CFFFFF768FF022001F01B
:103BB00013FEF9E7704700000349024889688860EE
:103BC00070470000CD3B0008083A01207047000014
:103BD00000487047AC00002009281CD2DFE800F044
:103BE0001B05070A0D10131619000C4870470B48E7
:103BF0002730704709484E30704708487530704785
:103C000006489C3070470548C33070470348EA3087
:103C10007047034870470020704700005230012071
:103C20006331012000487047C131012000487047CE
:103C3000083A0120004870479E3201200048704732
:103C4000D7340120004870474032012007499FEDDA
:103C5000081AD1F89204D1F8AE14C269C06800EE17
:103C6000902A00EE100A0148084700003E35012066
:103C7000000000000348D0F8260450F8881F416077
:103C8000704700003E35012003490248896888607A
:103C9000704700004D3C0008083A01201CB5012186
:103CA0000420FFF7C1FC01208DF8040000208DF8EE
:103CB000060003218DF805108DF8070008200090FC
:103CC00069460248FEF7E9FD1CBD000000080240FD
:103CD000F0B4049D084C0A2626706070A170E27052
:103CE000237165710020A071CE20E0712046F0BCE8
:103CF00040F20341FDF720B8CC00002070B51A4D0A
:103D000005F10C046868017821700188090A617066
:103D10008178A1704188090AE17001792171818857
:103D2000090A61718179A171C088000AE07140F2CD
:103D300001412046FDF700F8686801892170090AF1
:103D40006170817AA170C17AE170B0F81D002071B4
:103D5000000A60710020A071E0712046BDE870404B
:103D600040F20241FCF7E8BFC00000200CB5002281
:103D7000019200922749086840F4803008604FF4AF
:103D8000A043086800F4003000900198401C0190A6
:103D9000009810B901989842F3D10868800302D5C1
:103DA0000120009000E000920098012831D11948CC
:103DB0004030026842F0805202601748026842F4C4
:103DC000404202601348083002680260026842F410
:103DD00000420260026842F4A0520260021F0F4BD0
:103DE00013600A6842F080720A600A689201FCD58A
:103DF0000B4A40F205711160016821F00301016076
:103E0000016841F0020101600168C1F381010229EA
:103E1000FAD10CBD00380240007000401954400730
:103E2000003C024010B501F003FC00F047F90448E3
:103E3000006801F0F9FCBDE8104001F019BC000079
:103E400000000020884201D0012070470020704708
:103E500010B5502080F31188BFF34F8FBFF36F8FE1
:103E600002F068F918B104494FF080500860002052
:103E700080F3118810BD000004ED00E010B5124879
:103E8000016841F4700101601048016841F00101CE
:103E900001600E4A00210832116002680C4B1A4082
:103EA0000260031D0B4A1A60026822F4802202603D
:103EB00006480C300160FFF759FF03494FF00060DE
:103EC0008039086010BD000088ED00E00038024035
:103ED000FFFFF6FE1030002410B51E4C01212046D5
:103EE00000F07BF801282FD11B494888401C02B202
:103EF0004A80B2F57A7F0EDB0878404208700020D5
:103F000048808A88521C12B28A803C2A03DBCA8805
:103F1000521CCA80888091F90020104B012A02D0DF
:103F2000521C0DD010E0B1F90210502291FBF2F0BA
:103F300002FB101040B980211846FEF700FD03E097
:103F400080211846FEF7F9FC2046BDE8104001210B
:103F500000F034B800040040B4000020001002401B
:103F60007FB505460C4601210220FFF76BFB6D1E55
:103F7000ADF804500020ADF80600ADF80C00641E4A
:103F800002940D4C01A9204600F03EF81D218DF849
:103F9000001008218DF8011001218DF803106846EA
:103FA000FFF720F801221146204600F022F80121F7
:103FB000204600F006F87FBD00040040C94301829E
:103FC0007047002904D0018841F001010180704749
:103FD000018821F001010180704702460020138A08
:103FE0000B4092890A40002B02D0002A00D0012009
:103FF0007047002A03D082890A43828170478289F0
:104000008A4382817047000030B50288164C174DF4
:10401000A0420DD0A8420BD0B0F1804F08D0144B75
:10402000984205D0134B984202D0134B984203D1CB
:1040300022F070034A881A43104B984206D0104B66
:10404000984203D022F440730A891A4302804A68D6
:10405000C2620A880285A04201D0A84201D1897AB1
:1040600001860121818230BD000001400004014031
:104070000004004000080040000C00400010004018
:104080000014004000F07F0200EE102AF8EE400A13
:1040900000EE101AB8EE400A9FED061A000606D58B
:1040A00000EE810ADFED040A30EE600A704700EE90
:1040B000810A704700008043000000471CB50821BA
:1040C00015484C01CDE900100023224613A11648E3
:1040D00001F0ECFF10480621001FCDE9001000237D
:1040E000224612A1154801F0E1FF0B480721001DEF
:1040F000CDE900100023224611A1144801F0D6FF9B
:1041000005480B210830CDE900100023224610A1FC
:10411000124801F0CBFF1CBD0800002052656D6FF6
:1041200074655F5461736B009D3B00084368617365
:104130007369735F5461736B00000000892000088D
:1041400047696D62616C5F5461736B00BD29000843
:104150004465746563745F5461736B00B126000835
:1041600070B596B001213C48FFF75EFA0121C80402
:10417000FFF768FA394E08220A213046FEF7CBFBDA
:1041800008220B213046FEF7C6FB4FF44061149124
:1041900002218DF8541000248DF856408DF85510EA
:1041A00001258DF8575014A93046FEF776FB2C4EAA
:1041B000304600F0F7F94FF4E1300F90ADF8404091
:1041C000ADF84240ADF844400C20ADF84600ADF8E3
:1041D00048400FA9304600F0A1FA34208DF84C0079
:1041E0008DF84F5006208DF84D0013A8FEF7FAFE0B
:1041F000012240F22441304600F074FA0121304699
:1042000000F0BAF9174D2846FEF746F96805009008
:10421000301D0190144802900394402004900594AE
:104220000001069007940894801009904FF44030E4
:104230000A900B940C940D940E9469462846FEF750
:10424000FFF901212846FEF71BF9012240213046E3
:1042500000F09EF916B070BD040020000008024076
:10426000004C004040600240F22F012070B51B4D11
:1042700040F22441284600F015FA00282DD0184CB1
:1042800000212046FEF7FCF82046FEF79BF90028A7
:10429000FAD128881148001D008811484830FEF7DF
:1042A00098F9C0F14000C0B200210E4A0E4B03E065
:1042B0005D5C5554491C89B28142F9D3022182F8D0
:1042C0009410FEF7E7FF40212046FEF7E3F9204671
:1042D000BDE870400121FEF7D3B870BD004C00402E
:1042E000406002409E320120F22F012070B596B04E
:1042F00001213D48FFF798F901211020FFF7BEF991
:104300003A4D07220A212846FEF705FB2E15149682
:1043100002208DF8540000248DF8564003208DF8BB
:1043200055008DF8574014A92846FEF7B6FA304DCF
:10433000284600F037F92F481090ADF84440ADF80A
:104340004640ADF848600420ADF84A00ADF84C4056
:1043500010A9284600F0E2F90121284600F00CF9E6
:1043600001224021284600F013F944208DF8000076
:104370008DF8014001208DF803006846FEF732FEFB
:104380001D4D00212846FEF77BF82968C907FCD19E
:104390002846FEF781F84FF0006001901448001D98
:1043A00002901648039004941220059006940796F4
:1043B000089409944FF480700A904FF440300B90A9
:1043C0000C940D940E940F9401A92846FEF738F929
:1043D000012210212846FEF719F901212846FEF78F
:1043E0004FF816B070BD0000010040000000024010
:1043F00000100140A086010088640240202F0120A7
:1044000070B5194C40F22441204600F04BF90028C9
:1044100029D0164D00212846FEF732F82846FEF72F
:10442000D1F80028FAD120880F48001D00882846BE
:10443000FEF7CFF8C0F11900C2B200210C4B0D4CB1
:1044400003E0585C6054491C89B29142F9D31921A8
:104450002846FEF71FF901212846FEF711F8BDE8AE
:10446000704000F0B5BB70BD004400408860024061
:10447000392F01202732012070B51B4C40F2244116
:10448000204600F00FF900282CD0184E00213046AD
:10449000FDF7F6FF3046FEF795F80028FAD12088A0
:1044A0001148001D00883046FEF793F84042C2B222
:1044B0000F4DA5F8012000210E4B05F11F0403E06C
:1044C000585C6054491C89B29142F9D300F09CF9C0
:1044D00020213046FEF7DEF801213046FDF7D0FFFF
:1044E0000120287070BD0000004800402860024094
:1044F0005F320120D22F012070B51B4C40F22441C5
:10450000204600F0CFF800282DD0184D0021284675
:10451000FDF7B6FF2846FEF755F80028FAD12088A7
:104520001148001D00882846FEF753F8C0F18000AE
:1045300082B20F4CA4F82D2100210E4B03E0585CF1
:104540006054491C89B29142F9D30948FFF72AFA0D
:1045500080212846FEF79EF801212846FDF790FFAE
:10456000012084F8330170BD00140140286402402A
:1045700033330120522F0120002904D0818941F4D6
:10458000005181817047818921F4005181817047F8
:10459000002A03D0828A0A4382827047828A8A4331
:1045A0008282704710B53749884209D10121102015
:1045B000FFF772F80021BDE810401020FFF76CB83B
:1045C000314988420AD101214C042046FFF748F8BE
:1045D0002046BDE810400021FFF742B82B49884231
:1045E0000AD101218C042046FFF73AF82046BDE8A5
:1045F00010400021FFF734B8254988420AD1012133
:10460000CC042046FFF72CF82046BDE810400021DE
:10461000FFF726B81F4988420AD101210C05204620
:10462000FFF71EF82046BDE810400021FFF718B83C
:104630001949884209D101212020FFF72DF80021D6
:10464000BDE810402020FFF727B8144988420AD15E
:1046500001218C072046FFF703F82046BDE81040F3
:104660000021FEF7FDBF0E4988420AD14405012111
:104670002046FEF7F5FF2046BDE810400021FEF77A
:10468000EFBF10BD00100140004400400048004052
:10469000004C0040005000400014014000780040F1
:1046A000007C004070B5002440F66A12C1F342134A
:1046B00001F01F05012606FA05F2012B0CD0022B92
:1046C0000DD0838A1340090A8E40008830400BB118
:1046D00000B10124204670BD83891340F3E7038AAB
:1046E0001340F0E710B540F66A13C1F3421301F02E
:1046F0001F040121A140012B07D0022B07D0143049
:104700003AB102680A43026010BD0C30F8E710307D
:10471000F6E702688A43026010BD00007FB50446D8
:104720000D46208A20F44051E88808432082A08961
:1047300041F20C618843A9882A8911436A8902439E
:104740001143A181A08A20F44071A8890843A08266
:104750006846FEF7AFFF1E48844202D01D488442DF
:1047600001D1039800E00298A189090408D500EB63
:10477000C00101EB001029684900B0FBF1F007E02F
:1047800000EBC00101EB001029688900B0FBF1F0DB
:104790006422B0FBF2F109010B096FF018056B43BD
:1047A00000EB8300A3891D044FF0320307D503EB10
:1047B000C000B0FBF2F000F00700084306E003EB96
:1047C0000010B0FBF2F000F00F00084320817FBD25
:1047D000001001400014014038B50948D0F8924457
:1047E00065346078C0F3C0010091C0F38003C0F36A
:1047F000400200F0010120788009FFF769FA38BD16
:104800003E350120FEE700002DE9F0412DED028B41
:10481000294E3078012849D1002406F11F0741E0D4
:10482000385DFF283CD13D19E879FE2838D16978F8
:10483000A878FFF727FC9FED218AF61CC0EE080A36
:1048400010EE900A7060E9782879FFF71BFCC0EE43
:10485000080A10EE900A30606979A879FFF712FC17
:10486000C0EE080A10EE900AB0617068716900EE3F
:10487000100A00EE901A30EE600A10EE101AF16085
:104880003168326900EE101A00EE902A30EE600AAC
:1048900010EE102AB26031617061F61EE41DA4B200
:1048A000641CA4B2B6F80100A042B9D80020307050
:1048B000BDEC028BBDE8F0815F3201200000C842F0
:1048C00030B505460C46002D01D0022C01D8002041
:1048D00030BD0A48A11E02882846FEF749F829196A
:1048E000C2B211F8023C9A4206D111F8011CB1EB98
:1048F000102F01D1012030BD002030BDBC000020B0
:1049000030B505460C46002D01D0022C01D8002000
:1049100030BDFF22611E2846FEF742F8291911F822
:10492000011C814201D1012030BD002030BD0000BA
:104930002DE9F04704462DED028B92B00025482268
:104940004A496846FBF798FC04F27A44484860609C
:104950004848A060484820604848E06048482061D6
:1049600048486061A4F27A44E846DFED478A9FED4B
:10497000478A4FF01309B12005FB00FA0AEB040641
:104980003046FEF7F9FA6F1CF8B204F80A00D4F8C2
:1049900086148847C6F8AC0005EB450008EB80009C
:1049A000B0EE682A90ED021AD0ED010A90ED000AEF
:1049B00006F10C00F0EE481AFEF7FEFBA6F8029096
:1049C000FDB2052DD7D32420A4F8C602A4F877039E
:1049D00004F27530FEF7D0FA062084F875039DEDD9
:1049E000111ADDED100A9DED0F0AB0EE682AF0EE07
:1049F000481A04F28130FEF7DFFBF0EE481A9FED13
:104A0000248AB0EE682AB7EE001AF0EE480AB2EE39
:104A1000040A04F2D130FEF7CFFBD4F8211451F888
:104A2000150F4860C4F87D03D4F82104D0F81510A0
:104A30000161D4F8210450F8151F8160D4F88E0468
:104A40008047C4F826049FED132AF0EE481AB2EE10
:104A5000041AF0EE480A9FED100A04F22A40FEF70D
:104A6000ABFB12B0BDEC028BBDE8F0879C67000881
:104A7000450700082D0B0008D1060008D93B0008A7
:104A8000253C0008353C000800007A4600606A4674
:104A900000000000000025440000204207499FED6F
:104AA000081AD1F89204D1F8AA14C269C06800EEBD
:104AB000902A00EE100A0148084700003E35012008
:104AC000000000000348D0F8260450F8881F416019
:104AD000704700003E35012003490248896888601C
:104AE000704700009D4A0008083A012002E008C80B
:104AF000121F08C1002AFAD170477047002001E058
:104B000001C1121F002AFBD17047000010B52DED26
:104B1000028B00F055F8DFED240AB5EEC00AF2EE84
:104B2000048AF1EE10FA214C17DB10EE100A20492E
:104B3000884212DA30EEC00A00F042F820EE280A6D
:104B4000DFED1C0ABDEEC00A10EE100A04EB800077
:104B500090ED000A80EE208A21E010EE100A144940
:104B600049420844B0F5000F12D230EE600A00F05E
:104B700027F820EE280ADFED100ABDEEC00A10EE7D
:104B8000100A04EB800090ED000A80EE208A06E017
:104B900010EE100A0949884201D1BFEE008AB0EE3A
:104BA000480ABDEC028B10BD0000B442E467000867
:104BB0000000B4420000C8420000C8C200003443F4
:104BC000B5EEC00AF1EE10FA01D2B1EE400A70471C
:104BD0002F480178FE295AD1417BEE2957D181789F
:104BE000427841EA022109B200EE101AA0F1180140
:104BF000B8EEC01A9FED270AC1EE000A10EE902A07
:104C00000A600279C37842EA032212B200EE902AC7
:104C1000B8EEE01AC1EE000A10EE902A4A608279DE
:104C2000437942EA032212B200EE902AB8EEE01A6B
:104C3000C1EE000A10EE902A8A60027AC37942EA35
:104C4000032212B200EE902AB8EEE01AC1EE000A7A
:104C500010EE902A0A61827A437A42EA032212B263
:104C600000EE902AB8EEE01AC1EE000A10EE902A8B
:104C7000CA60027BC07A42EA002000B200EE900ACD
:104C8000B8EEE01AC1EE000A10EE900A48617047D3
:104C9000273201200000C842002801DA404200B259
:104CA0007047884201DD084670479042FCDA1046A2
:104CB000704700001CB5FDF793FE07480121CDE9C0
:104CC00000100A02002305A1074801F0EFF900F0E7
:104CD00095FE00201CBD000000000020537461728E
:104CE000745F5461736B0000253E00082DE9F041AC
:104CF00004460F46174EF5683068001D00F054FC5E
:104D000038B9306890F82C1001208840316981430F
:104D10003161601C07D137B13168BDE8F041091D30
:104D20000D4800F079BC2C4430684460AC4206D297
:104D30003168B06B091DBDE8F04100F055BC316829
:104D4000706B091D00F050FCB06A844200D2B4625E
:104D5000BDE8F0814C000020CC02002070B5044674
:104D600000F066FC1D4DA868401CA860286810B1C2
:104D7000686938B10CE02C60A868012808D100F0FF
:104D800085F905E02868E16AC06A884200D82C608D
:104D9000686A401C68622064E06A01212A698140D7
:104DA000114329610E4900EB800001EB8000211DB9
:104DB00000F032FC00F05CFC686900280CD0286828
:104DC000E16AC06A884207D206494FF08050086005
:104DD000BFF34F8FBFF36F8F70BD00004C000020FA
:104DE0003C01002004ED00E010B500F021FC0E4C69
:104DF0002068A0B90D4800F0E9FB0C48143000F021
:104E0000E5FB0A48E0601430206100220C210A20F2
:104E100000F0D4FE206010B105A100F0A7FCBDE8B1
:104E2000104000F025BC00003800002014010020D4
:104E3000546D72510000000070B5124E124D1CE00E
:104E400000F014FE306820B1002401F063FAA4B928
:104E500001E00124F9E700F0EBFBF068C468201DD5
:104E600000F0A2FBA868401EA8606868401E686049
:104E700000F0FEFB204600F054F868680028DFD1FF
:104E800070BD0000B80200204C00002030B40B467A
:104E9000026C002A0CD0C1681144C1604468A14270
:104EA00001D30168C160C16830BC1846FBF7E4B9A2
:104EB00030BC70472DE9F041044617460026A56B2B
:104EC000226C002A10D0C7B1E068FBF7D5F9E16881
:104ED000206C091AE1602268914202D26168081AC6
:104EE000E060022F16D017E02068A8B9606801F0D2
:104EF00087F90646002060600EE0A068FBF7BCF969
:104F0000216CA0680844A0606168884204D32068CE
:104F1000A06001E005B16D1E6D1CA5633046BDE8C3
:104F2000F08110B50446206B00F0B8FB2046BDE8C8
:104F3000104000F0B3BB00000749CA68116800299F
:104F400004D00021016019B1002070470121F9E768
:104F5000D068006870470000380000204FF4963198
:104F60000F48420706D0C01D20F007000C49411A27
:104F7000C1F596310B4A1060002353600144083993
:104F800021F00701103A11604B600B600B1A43606F
:104F900001604068906050604FF00040D060704702
:104FA0002003002098000020074E4FF08054074D4A
:104FB000FFF742FF30680128FAD92C60BFF34F8F0A
:104FC000BFF36F8FF4E700003C01002004ED00E028
:104FD00070B51D46049C002909D02260E06321645D
:104FE0000121204600F0D0FE84F84C5070BD2460B2
:104FF000F4E72DE9F0478146DDE908580A9C0E46A2
:1050000017469A46B900A522206BFBF747F9206B9B
:105010007F1E00EB870020F00707780707D050209D
:1050200080F31188BFF34F8FBFF36F8FFEE700202F
:105030002218315C82F83410315C11B1401C0A280E
:10504000F6D3002684F83D60102D00D30F25E562CD
:10505000A564E664201D00F0C4FA04F1180000F015
:10506000C0FA2461C5F11000A0616462266584F86D
:10507000546052464946384600F084FA2060B8F140
:10508000000F01D0C8F80040BDE8F08770B50024DB
:10509000114D04EB840005EB800000F097FA641CCE
:1050A000102CF6D30D4800F091FA0C48143000F0A3
:1050B0008DFA0A48283000F089FA08483C3000F0A0
:1050C00085FA0648503000F081FA054803494163EB
:1050D0001431816370BD00003C0100207C0200207F
:1050E0004C00002030B5134900E011460A688242A6
:1050F000FBD34B685C18844203D140681844486075
:1051000008460D6844682318AB420DD1094B103B8B
:105110001B689A4206D05268224442600A681268AC
:10512000026002E0036000E00260814200D008609B
:1051300030BD00009800002070B50024416000617F
:105140000C4D91420AD8D11A8269914201D30124AF
:105150000EE0011D286900F047FA09E09A4203D2E7
:10516000994201D3012403E0011DE86800F03CFAF4
:10517000204670BD3800002010B5044600F058FAF3
:10518000A06B20B1002400F073FA204610BD01246A
:10519000F9E710B5044600F04BFAA06BE16B8842CA
:1051A00001D1012400E0002400F062FA204610BD85
:1051B000F8B505460E461448C068C068C468201D8E
:1051C00000F0F2F9E069012810D1A0692B464119DD
:1051D00032462046FFF7B0FF40B1002003460146AB
:1051E00000902A46204601F025F928B1616A01B0F5
:1051F0002046BDE8F0400847502080F31188BFF3F7
:105200004F8FBFF36F8FFEE73800002030B585B0B9
:105210002B4D4BE00298002848DB049C606910B1DC
:10522000201D00F0C1F901A800F094F80246029890
:105230000A283BD2DFE800F00505053A26370505C8
:105240003A260398A169034601442046FFF774FFFC
:1052500000B3616A20468847E069012826D1002012
:1052600000900398A169002342181946204601F0D6
:10527000E1F878B9502080F31188BFF34F8FBFF366
:105280006F8FFEE70398A06128B18118134620466E
:10529000FFF752FF0AE0502080F31188BFF34F8FD1
:1052A000BFF36F8FFEE7204600F0F8F900231A469F
:1052B00002A9286800F0A4FC0028ABD105B030BDDD
:1052C00038000020F8B506460D4600F0CFFB6846D2
:1052D00000F040F80446009810B101F01BF8F8BD4A
:1052E00045B9A64206D801F015F821463046FFF729
:1052F0005FFFF8BD0C481DB10169096891B1002537
:10530000311B2A46006800F043FA01F003F8002838
:10531000EFD106494FF080500860BFF34F8FBFF3C5
:105320006F8FF8BD0125EBE73800002004ED00E0A9
:105330000748416B0968002905D0416BC968C968F5
:105340004968816270474FF0FF3181627047000009
:105350004C00002070B5054600F0E6FE0446074EFE
:10536000B068844204D200F00BF80120286001E00C
:1053700000202860B460204670BD00003800002086
:10538000F8B5194E1FE0C0680568C468201D00F01C
:105390000BF9616A20468847E069012813D1A069AA
:1053A0002844A84206D960602461211DF06800F0FD
:1053B0001BF908E000200346014600902A462046DB
:1053C00001F038F840B1F06801680029DBD1F068DD
:1053D0003169F1603061F8BD502080F31188BFF36E
:1053E0004F8FBFF36F8FFEE73800002009484068F9
:1053F000401C07D0502080F31188BFF34F8FBFF3BC
:105400006F8FFEE7502080F31188BFF34F8FBFF3FB
:105410006F8FFEE7A000002008B56846FFF78CFDFF
:105420000099FFF74FFFFFF7F1FEF6E72DE9F04196
:10543000044600F0FDF894F9455004F1240609E013
:10544000606A48B1304600F027FF08B100F042FA28
:105450006D1E6DB2002DF3DC4FF0FF3684F8456011
:1054600000F006F900F0E4F894F9445004F1100754
:1054700009E0206948B1384600F00EFF08B100F09D
:1054800029FA6D1E6DB2002DF3DC84F84460BDE88E
:10549000F04100F0EDB800002DE9F041054600268E
:1054A00000F0E4FA304F386808B9FFF757FDF868A4
:1054B00005424AD18DB1083568070ED005F00700C6
:1054C000C0F108000544680707D0502080F3118818
:1054D000BFF34F8FBFF36F8FFEE7B5B37868854298
:1054E00033D8214910310846046801E021460446BA
:1054F0006068A84202D220680028F7D13868844248
:1055000023D00E680836206808606068411B1029A7
:105510000ED96019420707D0502080F31188BFF3DD
:105520004F8FBFF36F8FFEE741606560FFF7DAFDD5
:1055300061687868401A7860BA68904200D2B860B2
:10554000F868014361600020206000F0E3FE70070E
:1055500007D0502080F31188BFF34F8FBFF36F8FB8
:10556000FEE73046BDE8F081880000200449086865
:10557000002803D00868C26C521CC26408687047D7
:105580004C00002024384FF08073036221F00101A9
:10559000C1610449816142606FF0020140F8201945
:1055A00070470000ED5300080169D0E901329A60AC
:1055B000D0E901235A604A68824201D182684A6078
:1055C000002202610868401E0860704700F108016F
:1055D00041604FF0FF328260C160016100210160D3
:1055E000704700210161704730B50C68621C02D021
:1055F00000F1080202E0026904E01A4653681D68DF
:10560000A542FAD953684B6099608A60516008617D
:105610000168491C016030BD42684A6093688B6034
:1056200093685960916008610168491C0160704786
:10563000502080F31188BFF34F8FBFF36F8F0A495B
:105640004868401C486001280CD10848006810F0E8
:10565000FF0F07D0502080F31188BFF34F8FBFF3A7
:105660006F8FFEE770470000A000002004ED00E00F
:1056700009494868002806D0401E4860002801D12A
:1056800080F311887047502080F31188BFF34F8F4B
:10569000BFF36F8FFEE70000A000002070B5002868
:1056A00027D008380446134D6068E968084207D1DE
:1056B000502080F31188BFF34F8FBFF36F8FFEE749
:1056C00022683AB1502080F31188BFF34F8FBFF3A7
:1056D0006F8FFEE78843606000F0C8F96068696812
:1056E000084468602046FFF7FDFCBDE8704000F00C
:1056F00011BE70BD8800002006484FF47A71006822
:10570000B0FBF1F14FF0E020491E4161072101613A
:10571000704700002400002010B5FAF797FD1149EA
:1057200010280ED300F1E02090F8F0030A789042A0
:1057300007D2502080F31188BFF34F8FBFF36F8FD4
:10574000FEE709480068896800F4E060884207D9EC
:10575000502080F31188BFF34F8FBFF36F8FFEE7A8
:1057600010BD0000A00000200CED00E010B50022EC
:10577000064B53F832401CB1521C082AF9D310BD15
:1057800043F8321003EBC201486010BDE002002074
:1057900070B504460D461646FFF74AFF94F94430AB
:1057A0004FF000005B1C01D184F8440094F94510CF
:1057B000491C01D184F84500FFF75AFFA06B28B9B6
:1057C0003246294604F1240000F0A4F82046BDE842
:1057D0007040FFF72BBE000010B502460020002AE3
:1057E00012D00F48006B38B1502080F31188BFF3FE
:1057F0004F8FBFF36F8FFEE700F038F9002110469E
:10580000FFF774FA00F086FD002807D105494FF034
:1058100080500860BFF34F8FBFF36F8F10BD000043
:105820004C00002004ED00E070B50446FFF700FFD7
:10583000244D04B92C68201DFFF7B6FE58B9E06A64
:10584000214A00EB800152F8211021B90121814049
:10585000286988432861A06A18B104F11800FFF78D
:10586000A3FE686A401C68622868844207D1211D33
:105870001648FFF7D1FE6868401C686007E0A8681A
:10588000401EA8602046FFF74CFBFFF751FDFFF7D5
:10589000EFFE6869002814D02868844211D1286B73
:1058A00038B1502080F31188BFF34F8FBFF36F8F53
:1058B000FEE707494FF080500860BFF34F8FBFF3FA
:1058C0006F8F70BD4C0000203C010020B80200200A
:1058D00004ED00E001490120C86170474C00002040
:1058E00010B50C4600280AD0094909681831FFF79D
:1058F0007BFE2046BDE810400121FFF7F7B950209C
:1059000080F31188BFF34F8FBFF36F8FFEE7000066
:105910004C00002070B50D46144600280DD00B49F0
:1059200009681831FFF778FE0CB14FF0FF352146BA
:105930002846BDE87040FFF7D9B9502080F31188A0
:10594000BFF34F8FBFF36F8FFEE700004C000020C6
:1059500070B50446002839D01D4DE06A2968C96A2F
:10596000884233D2A069002804DB2868C06AC0F1ED
:105970001000A061E06A174E00EB8000616906EB41
:10598000800081421FD1201DFFF70EFE012150B97A
:10599000E06A00EB800256F8222022B92A6901FA57
:1059A00000F082432A612868C06AE0622A69814067
:1059B0001143296100EB800006EB8000211DBDE84A
:1059C0007040FFF729BE2868C06AE06270BD000021
:1059D0004C0000203C010020002805D006490A6A3E
:1059E0000260C96841607047502080F31188BFF39E
:1059F0004F8FBFF36F8FFEE74C0000201CB5174898
:105A00000024CDE900402346822215A1164800F06B
:105A10004DFB012801D100F0E5FC012809D0401C14
:105A20001AD1502080F31188BFF34F8FBFF36F8FCF
:105A3000FEE7502080F31188BFF34F8FBFF36F8FC5
:105A400006484FF0FF312C38816201214161C4606A
:105A5000BDE81C4000F042B81CBD000078000020EA
:105A600049444C4500000000A94F00080248016B62
:105A7000491C0163704700004C000020154A106B60
:105A8000002802D00120D06170470020D061106949
:105A9000B0FA80F0C0F11F000F4900EB800051F810
:105AA000203073B101EB800041684968416000F12A
:105AB0000803994201D1496841604068C06810609C
:105AC0007047502080F31188BFF34F8FBFF36F8F63
:105AD000FEE700004C0000203C0100201CB53248CD
