:020000040800F2
:10000000B03E012055020008492B00084D28000889
:10001000D92A0008F10900082D4500080000000059
:100020000000000000000000000000009D0100082A
:10003000EF1E000800000000F1010008813A0008EE
:100040006F0200086F0200086F0200086F020008CC
:100050006F0200086F0200086F0200086F020008BC
:100060006F0200086F0200086F0200086F020008AC
:100070006F0200086F0200086F0200086F0200089C
:100080006F0200086F0200086F0200086F0200088C
:10009000110C00086F0200086F0200086F020008D0
:1000A0006F0200086F0200086F0200086F0200086C
:1000B0006F0200081D3B00086F0200086F02000875
:1000C0006F0200086F0200086F0200086F0200084C
:1000D0006F0200086F0200086F0200086F0200083C
:1000E0006F0200086F0200086F0200086F0200082C
:1000F0006F0200086F0200086F0200086F0200081C
:100100006F0200086F0200086F0200086F0200080B
:100110006F0200086F0200086F0200086F020008FB
:100120006F0200088D1B00086F0200086F020008B4
:100130006F0200086F0200086F0200086F020008DB
:10014000750F00086F0200086F0200086F020008B8
:10015000C51B00086F0200086F0200080541000877
:100160006F0200086F0200086F0200086F020008AB
:100170006F0200086F0200086F0200086F0200089B
:100180006F0200086F020008DFF80CD000F016FBC9
:1001900000480047014B0008B03E01202A4B196877
:1001A0000868B0E8F04F80F30988BFF36F8F4FF015
:1001B000000080F3118870470000000006480068C6
:1001C000006880F3088862B661B6BFF34F8FBFF353
:1001D0006F8F00DF00BF00BF08ED00E0DFF80C000C
:1001E000016841F470010160704700BF88ED00E0D4
:1001F000EFF30980BFF36F8F134B1A681EF0100FD7
:1002000008BF20ED108A20E9F04F106008B44FF0CD
:10021000500080F31188BFF34F8FBFF36F8F05F04D
:10022000D7FE4FF0000080F3118808BC19680868F9
:10023000B0E8F04F1EF0100F08BFB0EC108A80F34A
:100240000988BFF36F8F70474C000020EFF30580E3
:10025000704700000648804706480047FEE7FEE773
:10026000FEE7FEE7FEE7FEE7FEE7FEE7FEE7FEE766
:10027000B53A00088901000840EA01039B0703D052
:1002800009E008C9121F08C0042AFAD203E011F8D5
:10029000013B00F8013B521EF9D27047D2B201E097
:1002A00000F8012B491EFBD270470022F6E710B57B
:1002B00013460A4604461946FFF7F0FF204610BDD4
:1002C0002DE9FE4F804681EA0300C00F0C460090E6
:1002D00021F0004123F00045B8EB0200A94105D20E
:1002E0004046214690461C460B46024623F00040FD
:1002F000104347D0270DC7F30A00C3F30A510290F9
:10030000401A019040286BDAC3F3130040F4801BBD
:100310000098924620B10023D2EB030A63EB0B0B4B
:1003200001985946C0F14002504600F091F9064646
:100330000D4650465946019A00F099F910EB080015
:100340006141002487EA115284EAE7731A4340D0DE
:10035000009A62B3019A012A4FEA075215DC001B8A
:1003600061EB02014FF0004202EA0752CDE9004280
:10037000001C41F5801132462B4600F0D0F903B045
:10038000BDE8F08F40462146F9E7001B61EB020112
:10039000001C41F5801300185B412018A2F50017DE
:1003A00047EB030140EAD570B6196D4111E06D08C5
:1003B0004FEA360645EAC0754FEA0752001B61EB6B
:1003C0000201001C41F5801149084FEA3000001974
:1003D000514132462B4603B0BDE8F04F00F090B9D2
:1003E0000098012240000023D0EB020263EBE0738F
:1003F000009821464FEAE074B8EB000061EB04017D
:10040000E9E783F000435BE781F0004158E72DE91D
:10041000FE4F81EA030404F0004421F000410094FF
:100420004FF0000B23F0004350EA01045ED052EA83
:1004300003045BD0C3F30A54C1F30A552C44A4F25D
:10044000F3340194A0FB0254C1F3130141F4801171
:10045000C3F3130343F4801301FB024400FB034E78
:10046000840A970A44EA815447EA8357A4FB076841
:1004700002958D0A05FB07854FEA932C04FB0C546B
:100480002705029D4FEA065847EA1637B5EB0805DF
:100490006EEB070C870E920E47EA811742EA831231
:1004A000A7FB0201B6EB0B0164EB00042B0D43EA42
:1004B0000C335E1844EB1C50DA465146E7FB020150
:1004C000C5F313044FEA0B3343EA14534FEA0432E3
:1004D000019C43EA0603A4F10C040294009CCDE9BC
:1004E00000B400F01CF903B0BDE8F08F0020014615
:1004F000F9E72DE9F04D81EA030404F0004B21F007
:10050000004514464FF0000A23F0004150EA05026E
:1005100020D054EA01021DD0C5F30A570246C5F3A4
:100520001303C1F31300C1F30A5640F4801543F4DA
:100530008013A7EB0608101BD64608F2FD3873EBB4
:10054000050002D308F1010801E092185B41B8F1FF
:10055000000F03DA00200146BDE8F08D00204FF4C3
:100560008011064684460EE0171B73EB050705D382
:10057000121B63EB050306434CEA010C49084FEAE2
:10058000300092185B4150EA0107EDD152EA0300B6
:1005900012D082EA040083EA0501084305D0101B4B
:1005A000AB4106D20122002306E000224FF00043B7
:1005B00002E06FF0010253101AEB06004CEB0851F9
:1005C00010EB0A0041EB0B01BDE8F04D00F098B8CC
:1005D0000EB5C10F80EAE0700844CA07002140F25E
:1005E00033438DE80E000A460B4600F098F803B03E
:1005F00000BD00F0004230F000400AD0C10D01F50E
:100600006071C0F3160042EA0151C208400711436D
:10061000704700200146704701F0004330B421F0DC
:10062000004150EA010206D00A0DA2F56072C1F342
:100630001301002A02DC30BC00207047440F44EA5A
:10064000C104C100E01830BC00EBC25000F021B87A
:10065000202A04DB203A00FA02F100207047914082
:10066000C2F1200320FA03F3194390407047202A77
:1006700006DBCB17203A41FA02F043EAE07306E0CA
:1006800041FA02F3D040C2F12002914008431946DA
:1006900070470029A8BF7047401C490008BF20F0E0
:1006A0000100704710B4B0FA80FC00FA0CF050EA78
:1006B000010404BF10BC704749B1CCF1200421FAF9
:1006C00004F411FA0CF118BF012121430843A3EBF4
:1006D0000C01CB1D4FEA00614FEA102042BF002001
:1006E00010BC704700EBC35010440029A4BF10BCDD
:1006F0007047401C490008BF20F0010010BC704743
:1007000010B5141E73F1000408DA401C41F1000119
:1007100092185B411A4301D120F0010010BD2DE970
:10072000F04D92469B4611B1B1FA81F202E0B0FA67
:1007300080F220329046FFF78BFF04460F4640EAD6
:100740000A0041EA0B0153465A46084313D01146AA
:1007500053EA010019D0C8F14002504600F040F8B9
:1007600005460E46504659464246FFF771FF08437C
:1007700005D0012004E020463946BDE8F08D002078
:10078000054346EAE0762C4337430A986305E40ABA
:10079000A0EB08000022FD0A44EA47540A3002D5C3
:1007A00000200146E9E7010510196941DDE9084526
:1007B00000196941BDE8F04DA2E70000064C074D65
:1007C00006E0E06840F0010394E807009847103421
:1007D000AC42F6D3FFF7DCFC4C6D00086C6D0008F2
:1007E000202A04DB203A21FA02F00021704721FA86
:1007F00002F3D040C2F120029140084319467047ED
:1008000010B502F0B5FF0249C1F81F0010BD00008D
:10081000983301207448D0F81F00007CC8B3012829
:100820004BD17148D0F81F004078000200B26E49E9
:10083000D1F81F10097808436B4908800846D0F8A2
:100840001F00C078000200B2D1F81F108978084359
:10085000654948800846D0F81F004079000200B280
:10086000D1F81F10097908435F4988800846D0F8FD
:100870001F00C079000200B2D1F81F108979084327
:100880005949C8800020D1F81F10087457490880C2
:1008900014E0FFE755480088401C00B25349088027
:1008A0000846B0F90000B0F5FA7F05DB00204E499C
:1008B000C88088804880088000E000BF00BF4A48A8
:1008C000D0F81F00407C98B3012802D002282ED116
:1008D00047E04548D0F81F00407A4349D1F81F103F
:1008E000097A41EA0020404200B23F4908810846A7
:1008F000D0F81F00807A40B288720846D0F81F00F6
:10090000C07A40B2C8720846D0F81F00407BD1F8C8
:100910001F10097B41EA002081B23348A0F81D1066
:1009200000203149D1F81F1048743049488059E0FF
:10093000FFE72E484088401C00B22C4948800846FA
:10094000B0F90200B0F5FA7F0ADB002026490881E1
:1009500000212548A0F81D1000202349C872887284
:1009600040E00320204988720120C8720846D0F870
:100970001F0001781C4890F8230061F301001A4918
:1009800081F823000846D0F81F004178164890F8F7
:10099000230061F38200144981F823000846D0F84F
:1009A0001F008178104890F8230061F3C3000E49BE
:1009B00081F823000846D0F81F00C1780A4890F853
:1009C000230061F30410084981F823000846D0F899
:1009D0001F000179044890F8230061F34510024993
:1009E00081F8230000BF704798330120C800002021
:1009F00000BFFEE72DE9F04385B004460D461646DC
:100A00001F464FF000084FF40070009000208DF852
:100A100008008DF8090008208DF80A00200A8DF8DA
:100A20000B00E1B28DF80C10290A8DF80D10E9B217
:100A30008DF80E10310A8DF80F10F1B28DF81010EC
:100A4000390A8DF81110F9B28DF8121069460B4869
:100A500000F0DBFE814600BF03E008F101001FFA51
:100A600080F84946054800F063FF18B940F6FF706A
:100A70008045F2DB05B0BDE8F08300000064004073
:100A80002DE9F04385B004460D4616461F464FF04B
:100A9000000840F2FF10009000208DF808008DF84B
:100AA000090008208DF80A00200A8DF80B00E1B239
:100AB0008DF80C10290A8DF80D10E9B28DF80E1082
:100AC000310A8DF80F10F1B28DF81010390A8DF837
:100AD0001110F9B28DF8121069460B4800F095FE1E
:100AE000814600BF03E008F101001FFA80F8494683
:100AF000054800F01DFF18B940F6FF708045F2DB95
:100B000005B0BDE8F0830000006400402DE9F0412D
:100B10008AB004460D4616461F46DDF84080012186
:100B2000082002F061F90121480602F06DF909225E
:100B30000021354801F07FFA09220121324801F0F5
:100B40007AFA0320019002208DF8080000208DF829
:100B50000A0002208DF8090001208DF80B0001A980
:100B6000294801F020FA14208DF8000004208DF8A7
:100B7000010001208DF80300684601F0E7FF2348DB
:100B800000F0F8FB07A800F030FE00208DF82200EE
:100B900001208DF8230000208DF824008DF8250019
:100BA0008DF8260001208DF827008DF81E808DF825
:100BB0001F408DF820508DF82160ADF81C7007A9FA
:100BC000124800F010FD00208DF816008DF8170077
:100BD00001208DF818000020ADF80C00ADF80E00D3
:100BE000ADF81000ADF81200ADF8140001208DF83A
:100BF000190003A800F0DAFB01220221034800F0EB
:100C0000E9FC0AB0BDE8F081000C0240006400403D
:100C100000B585B002218B4800F04CFC00287AD04A
:100C20000221884800F05AFA8749864800F03AFACB
:100C30006A460021834800F060FD40F205220098DA
:100C4000811A904268D009DCA0F2012078B1012815
:100C500029D0022843D003287BD15EE0012979D036
:100C6000022978D0032977D0FC29F5D1E5E09DF859
:100C70000C009DF80B1000EB012000B273490880B6
:100C80009DF80E109DF80D0001EB002000B26F4999
:100C900048800846B0F90220B0F900106C4B1B20C8
:100CA00000F070FACBE09DF80C009DF80B1000EB03
:100CB000012000B2654988809DF80E109DF80D0056
:100CC00001EB002000B26149C8800846B0F9062057
:100CD000B0F904105F4B132000F054FAAFE09DF818
:100CE0000C009DF80B1000EB012000B25749088161
:100CF0009DF80E109DF80D0001EB002000B2534945
:100D000048810846B0F90A20B0F90810524B242057
:100D100000F038FA93E093E01FE09DF80C009DF896
:100D20000B1000EB012000B2484988819DF80E109D
:100D30009DF80D0001EB002000B24449C88108462F
:100D4000B0F90E20B0F90C10444B1B2000F01AFA39
:100D500075E073E01DE038E053E09DF80C009DF86D
:100D60000B1040EA012000B2384908829DF80E10AD
:100D70009DF80D0041EA002000B23449488208463F
:100D8000B0F91220B0F91010354B132000F0FAF929
:100D900055E09DF80C009DF80B1040EA012000B2D0
:100DA0002A4988829DF80E109DF80D0041EA002026
:100DB00000B22649C8820846B0F91620B0F91410CE
:100DC000284B132000F0DEF939E09DF80C009DF867
:100DD0000B1040EA012000B21C4908839DF80E1058
:100DE0009DF80D0041EA002000B2184948830846EA
:100DF000B0F91A20B0F918101B4B242000F0C2F9EA
:100E00001DE09DF80C009DF80B1040EA012000B297
:100E10000E4988839DF80E109DF80D0041EA0020D0
:100E200000B20A49C8830846B0F91E20B0F91C1068
:100E30000E4B2D2000F0A6F901E000E000BF00BF3E
:100E400005B000BD00640040080000326E30012093
:100E50008E300120B5300120DC300120033101202B
:100E60002A31012051310120783101209F310120A8
:100E70002DE9F0418AB004460D4616461F46DDF8BE
:100E800040800121022001F0AFFF0121880601F01E
:100E9000BBFF09220521354801F0CDF809220621C2
:100EA000324801F0C8F86020019002208DF8080057
:100EB00000208DF80A0003208DF8090001208DF82C
:100EC0000B0001A9294801F06EF840208DF80000C0
:100ED00002208DF8010001208DF80300684601F022
:100EE00035FE234800F046FA07A800F07EFC0020FB
:100EF0008DF822008DF823008DF824008DF8250050
:100F00008DF8260001208DF827008DF81E808DF8C1
:100F10001F408DF820508DF82160ADF81C7007A996
:100F2000134800F060FB0E208DF8160000208DF8AD
:100F3000170001208DF818000020ADF80C00ADF866
:100F40000E00ADF81000ADF81200ADF8140001204D
:100F50008DF8190003A800F029FA012202210448A3
:100F600000F038FB0AB0BDE8F08100000004024048
:100F70000068004000B585B00221464800F09AFAAA
:100F800000287DD00221434800F0A8F86A460021DD
:100F9000404800F0B2FB0098A0F2052048B1B0F53F
:100FA000FE7F22D0A0F2FD1000283AD001286CD19B
:100FB0004DE09DF80C009DF80B1040EA012000B2B6
:100FC000354908829DF80E109DF80D0041EA002079
:100FD00000B2314948820846B0F91220B0F9101029
:100FE0002E4B132000F0CEF850E09DF80B002C495A
:100FF00008709DF80C0048709DF80D0088709DF8F1
:101000000E00C8709DF80F0008719DF8100048711F
:101010009DF8110088719DF81200C87101200874B4
:1010200034E09DF80B001E4908729DF80C004872D0
:101030009DF80D0088729DF80E00C8729DF80F0093
:1010400008739DF810004873012048741EE09DF855
:101050000B000A2818D19DF81200CE2814D19DF853
:101060000C000F4908709DF80D0048709DF80E00A7
:1010700088709DF80F00C8709DF81000087101E09D
:1010800005E002E00220487400BF00BF00BF05B0C9
:1010900000BD000000680040D831012094320120DA
:1010A000C631012000220C4B994202D100238361FA
:1010B00011E0C1F3130201F000730BB1C2600AE04A
:1010C00001F080630BB1026105E001F000630BB138
:1010D000826000E0426070477000F030B1F5007F40
:1010E0003AD00FDC202928D006DC01291CD00429A5
:1010F0001DD0082940D11DE0402921D0B1F5807FC5
:101100003AD126E0B1F5004F31D006DCB1F5806F61
:1011100025D0B1F5006F2FD124E0B1F5803F12D07A
:10112000B1F5003F28D111E0154A826025E0082280
:10113000C26022E01022C2601FE0082202611CE0AF
:101140001022026119E00822426016E0102242607B
:1011500013E00422426010E0042242600DE0042209
:1011600042600AE0002282610422426005E000221F
:1011700082610422426000E000BF00BF70470000AF
:10118000010101002DE9F0412DED088B07460D46C8
:1011900090461C463E4604F12100A4F82380B4F892
:1011A0002300B4F82110401A00B2A4F82500B4F8C6
:1011B0002300A4F82100002D02DDB5F5005F03DD5A
:1011C000022084F8200002E0002084F8200041F68C
:1011D0005830854209DAB5F5FA6F06DD0020207037
:1011E0006070A0700021E1700BE041F6583085423C
:1011F00002DD0120207004E0B5F5FA6F01DA01206C
:10120000A0702078012804D1B5F5FA6F01DA60707A
:1012100008E0A078012805D141F65830854201DD6B
:101220000121E170207801280ED1607801280BD1CE
:10123000A088401C00B2A080A06800F50050A0600B
:1012400000202070607011E0A07801280ED1E078B5
:1012500001280BD1A088401E00B2A080A068A0F594
:101260000050A0600020A0700021E170B4F90400DB
:10127000002805DDB4F9040005EB4030E06020E013
:10128000B4F90400002808DA7103B4F90400401E20
:1012900001EB40302844E06013E0A08888B9A068E2
:1012A000B0F5005F08DD7103B4F90400401E01EBE6
:1012B00040302844E06004E0A068B0F5005F00DC46
:1012C000E560A0687103884207DDA560E088401CE6
:1012D00000B2E0800020A0803CE0A06800280CDA8A
:1012E000701E4FF4005101FB0050A060E088401ECA
:1012F00000B2E0800020A0802CE0E068FFF768F9F1
:1013000041EC190B7003FFF763F941EC1B0B53EC35
:101310001B2B9FED150B51EC100BFFF7EAF841EC7E
:101320001A0B53EC192BFFF772F841EC180BFFF76F
:1013300073F9A061A06900EE100AB4F9060000EE8E
:10134000900AF8EEE00A9FED0A1A00EE810A10EE0C
:10135000100A606194F82000022800D000BFBDECA4
:10136000088BBDE8F081000000000000008076409E
:101370000000B44310B504460B48844209D1012152
:10138000480601F051FD00214FF0007001F04CFDC6
:1013900008E00121880601F047FD00214FF0806040
:1013A00001F042FD10BD00000064004010B50021B6
:1013B000837A012202FA03F13D4A126842F00102E7
:1013C0003B4B1A603A4A1C3212688A43384B1C3332
:1013D0001A60027BCAB9364A0C3212688A43344B0F
:1013E0000C331A604288C38842EA0343304A4032D1
:1013F000847A42F834300288838842EA03432C4AD4
:101400004032847A02EBC4025360027B012A19D174
:10141000274A0C3212680A43254B0C331A60428863
:10142000038842EA0343224A4032847A42F8343045
:10143000C288838842EA03431D4A4032847A02EB21
:10144000C4025360C27A3AB9194A121D12688A431B
:10145000174B1B1D1A6006E0154A121D12680A433D
:10146000134B1B1D1A60028932B9114A14321268DB
:101470008A430F4B14331A600289012A06D10C4AA1
:10148000143212680A430A4B14331A60427B012A51
:1014900006D1074A1C3212680A43054B1C331A60F6
:1014A000034A126822F00102014B1A6010BD0000CD
:1014B0000066004070B504460D460026606928406D
:1014C000002871D0B5F5807F5CD010DC082D35D0B8
:1014D00006DC012D20D0022D24D0042D72D127E06E
:1014E000102D31D0202D35D0402D6BD138E0B5F501
:1014F000004F60D009DCB5F5007F49D0B5F5806FAD
:101500004CD0B5F5006F5DD14FE0B5F5803F2DD0E3
:10151000B5F5003F56D12FE0A0682D4900F02CFB17
:10152000064651E0E068032100F026FB06464BE04A
:10153000E068082100F020FB064645E0E068102145
:1015400000F01AFB06463FE02069032100F014FB7F
:10155000064639E02069082100F00EFB064633E01C
:101560002069102100F008FB06462DE06068082184
:1015700000F002FB064627E06068102100F0FCFA4C
:10158000064621E0A069012100F0F6FA06461BE0BC
:10159000A069022100F0F0FA064615E0A0690421D6
:1015A00000F0EAFA06460FE00FE0A069702100F0B3
:1015B000E3FA064608E06068042100F0DDFA06461A
:1015C00002E0FFE7002600BF00E00026304670BDC5
:1015D000010101001AB143690B43436102E0436911
:1015E0008B434361704730B50246002000231468E6
:1015F00024F002041460146844F00104146000E054
:101600005B1C546804F001041CB94FF6FF74A3423C
:10161000F6D1546804F001040CB900206CE08C7918
:10162000012C04D1146844F08004146003E01468B1
:1016300024F080041460CC79012C04D1146844F0A7
:101640004004146003E0146824F0400414600C7A31
:10165000012C04D1146844F02004146003E01468E1
:1016600024F0200414604C7A012C04D1146844F056
:101670001004146003E0146824F0100414608C7AE1
:10168000012C04D1146844F00804146003E01468C9
:1016900024F008041460CC7A012C04D1146844F0BE
:1016A0000404146003E0146824F0040414608C78CB
:1016B000A407CD7844EA05640D7944EA05444D79E0
:1016C00044EA05540D886D1E2C43D461146824F03F
:1016D00001041460002300E05B1C546804F0010462
:1016E0001CB14FF6FF74A342F6D1546804F0010414
:1016F0000CB1002000E0012030BD10B500F5D8731A
:1017000003EB01131B6803F004031372137A53B93C
:1017100000F5D87303EB01131B6840F2FF7404EA71
:101720005353136009E000F5D87303EB01131B68F2
:101730006FF0604404EAD303536000F5D87303EB01
:1017400001131B6803F00203537200F5D87303EB17
:1017500001135B6803F00F03937200F5D87303EB7A
:1017600001135B681B0AD37400F5D87303EB0113F4
:101770009B68D37200F5D87303EB01139B681C0AB6
:10178000147300F5D87303EB01139B681C0C54739E
:1017900000F5D87303EB01139B681B0E937300F5E0
:1017A000D87303EB0113DB68D37300F5D87303EB35
:1017B0000113DB681C0A147400F5D87303EB0113E2
:1017C000DB681C0C547400F5D87303EB0113DB6861
:1017D0001B0E937421B9C36843F02003C36003E078
:1017E000036943F02003036110BD00218171C171C1
:1017F000017241728172C1728170C17003210171E5
:101800000221417101210180704710B5024600207C
:10181000936803F08063B3F1806F00D110E09368A8
:1018200003F00063B3F1006F01D1012008E0936879
:1018300003F08053B3F1805F01D1022000E0042067
:10184000042874D002F5C07303EB00131B6803F087
:10185000010402F5C07303EB00131C600B7A7BB923
:101860004B7A0C8843EA445302F5C07404EB00142D
:101870002468234302F5C07404EB0014236010E0D5
:101880000B7A4C6843EAC4034C7A234302F5C074D4
:1018900004EB00142468234302F5C07404EB001425
:1018A00023608B7A03F00F038B7202F5C07303EB96
:1018B00000135B6823F00F0402F5C07303EB001301
:1018C0005C6002F5C07303EB00135B688C7A234302
:1018D00002F5C07404EB001463608B7B1C064B7B29
:1018E00044EA03440B7B44EA0323CC7A234302F506
:1018F000C07404EB0014A3608B7C1C064B7C44EA90
:1019000003440B7C44EA0323CC7B234302F5C074DD
:1019100004EB0014E36002F5C07303EB00131B68D3
:1019200043F0010402F5C07303EB00131C6010BD0B
:1019300010B50246002321B1012907D002290FD199
:1019400009E090681D4C00EA04030BE090681C4C11
:1019500000EA040306E090681A4C00EA040301E080
:10196000002300BF00BF184C181BA34216D007DC91
:1019700083B16FF08060184470B1022818D111E073
:10198000B0F5007F10D0114C204448B1B0F5003FB5
:101990000ED10BE002230DE000230BE0002309E051
:1019A000002307E0012305E0012303E0012301E018
:1019B000002300BF00BFD8B210BD00000300000428
:1019C0000003000800000310000100080001FFF7F9
:1019D00056485749C86000204860886055480860EC
:1019E00000205549886055480860554848600020E7
:1019F000544988605448086054484860002054495D
:101A00008860544808605448486000205349886002
:101A10005348086053484860002053498860534841
:101A20000860534848605348D0F8D50590F8230023
:101A300020F003004F49D1F8D51581F823004D4817
:101A4000D0F8D50590F8230020F004004949D1F8DA
:101A5000D51581F823004748D0F8D50590F8230024
:101A600020F008004349D1F8D51581F823004148FA
:101A7000D0F8D50590F8230020F010003D49D1F8AA
:101A8000D51581F823003B48D0F8D50590F8230000
:101A900020F020003749D1F8D51581F823002348DC
:101AA0002B490A6802604A68426089688160014681
:101AB000274802688A614268CA61806808620846ED
:101AC00023490A68C2604A68026189684161014627
:101AD0001C4802684A6242688A628068C862084696
:101AE00018490A6802634A68426389688163184931
:101AF0000A68C2634A6802648968416401460E4804
:101B000002688A644268CA648068086508460A49AF
:101B10000A6842654A6882658968C16506490A683B
:101B200002664A684266896881667047413A0120C8
:101B3000DD390120713A0008F9390120DD2800085B
:101B4000D9280008113A0120C92B0008C52B00082C
:101B5000293A0120BD350008B9350008353A012081
:101B6000B9200008B5200008053A0120D12D000851
:101B7000C12D0008BC3301200246002002EA010307
:101B80000BB1012000E000207047000010B50949AA
:101B9000094800F02DF901280BD10649064800F04C
:101BA0002DF80449044800F043F80449044801F0C2
:101BB00077FC10BD008800102864024030330120FB
:101BC0001C2F012010B50949094800F011F901281E
:101BD0000BD10649064800F011F80449044800F00A
:101BE00027F80449044801F05BFC10BD0088002080
:101BF00088640240303301201C2F01200246094B2B
:101C00009A4201D2084801E00648103801F000531A
:101C10001BB1064B0B40C36002E0044B0B408360DA
:101C20007047000010640240006002407D0F7D0F8D
:101C30000246094B9A4201D2084801E00648103892
:101C400001F000531BB1064B0B40C36002E0044B94
:101C50000B40836070470000106402400060024047
:101C60007D0F7D0F21B1026842F00102026003E0A6
:101C7000026822F00102026070470000016821F052
:101C8000010101600021016041608160C16001616A
:101C9000212141614A49884204D13D21484A103AF4
:101CA00091608CE046491831884205D14FF4746147
:101CB000434A103A916082E041493031884205D16F
:101CC0004FF474113E4A103A916078E03C49483133
:101CD000884205D14FF07461394A103A91606EE044
:101CE00037496031884204D13649354A103AD160CB
:101CF00065E033497831884204D13349304A103A9B
:101D0000D1605CE02E499031884204D12F492C4AA1
:101D1000103AD16053E02A49A831884205D14FF0EA
:101D20003D51274A103AD16049E02949884204D1FF
:101D30003D21274A083A116041E02549183188427F
:101D400005D14FF47461224A083A116037E0204906
:101D50003031884205D14FF474111D4A083A1160A0
:101D60002DE01B494831884205D14FF07461184A73
:101D7000083A116023E016496031884204D11149C4
:101D8000134A121F11601AE011497831884204D1B8
:101D90000D490F4A121F116011E00D499031884220
:101DA00004D10A490A4A121F116008E00849A83103
:101DB000884204D14FF03D51054A121F116070470F
:101DC000106002403D000020400F002000003D2038
:101DD00010640240014600200A6802F001020AB1C4
:101DE000012000E0002070470146486880B270473B
:101DF00030B503460A46002000240B4DAB4201D209
:101E00000A4901E00849103902F000550DB14C684B
:101E100000E00C68064D2C4004EA02050DB10120DB
:101E200000E0002030BD000010640240006002406D
:101E30007D0F7D0F10B501F080034BB122B14369D6
:101E400043F08003436103E0436923F0800343616F
:101E500080290BD02AB1036801F01E0423430360DC
:101E600004E0036801F01E04A343036010BD0000FA
:101E700010B500220268134B1A40CC680B6823434C
:101E80004C6923438C692343CC6923430C6A234365
:101E90004C6A23438C6A23434C6B23438C6B234350
:101EA0001A430260426922F00702D1E90B3423434E
:101EB0001A4342610B6943604B6883608B68C3605F
:101EC00010BD00003F801CF0416070474FF4FA7075
:101ED00003F0D2FEFEF794FC08E000F0DFF802F019
:101EE00027FBFEF797FC022003F0C6FEF5E77047DC
:101EF0004FF4FA7003F0C0FE06E08021034800F0C2
:101F0000C6F8C82003F0B8FEF7E70000000402405E
:101F10000022C27082704270027000218160C16034
:101F20008180C1809FED090A10EE101A41610161A4
:101F3000C1618161022180F82010A0F8252000F104
:101F40002101A0F82320A0F8212070470000000004
:101F500070B504460D461646032D01DC032E00DD48
:101F600070BD15B90EB901250126E168681E00EBA8
:101F7000C00001EB8001701E00EB400001EB80000F
:101F8000A060A16860682268904710B1A1680868E5
:101F90008047A0686060A16848688047A168886839
:101FA000804700BFDCE7F0B50A460021002300248B
:101FB00000BF3DE0012505FA01F3156805EA0304B9
:101FC0009C4234D105684F000326BE40B5430560EE
:101FD00015794E00B5400668354305601579012D29
:101FE00002D01579022D16D185684F000326BE4018
:101FF000B543856055794E00B540866835438560A8
:10200000456801268E40B5434560456896798E4007
:10201000B6B235434560C5684F000326BE40B543A0
:10202000C560D5794E00B540C6683543C560491CCA
:102030001029BFD3F0BDF0B5002300244D07ED0EED
:1020400002FA05F3CE1000F1200555F826504E0790
:10205000F70E0F26BE40B543CF1000F1200646F81C
:102060002750CE1000F1200555F8265045EA03040C
:10207000CE1000F1200545F82640F0BD02460020B4
:1020800013690B400BB1012000E000207047018371
:10209000704742694A4042617047000010B501F044
:1020A000CFFB0349087001F005FC0149487010BDE1
:1020B000AC0000207047000002480349896888602E
:1020C00070470000CD200008DD39012010B502481E
:1020D000D0F8FD15884710BDBC33012010B504466B
:1020E00094F8B005C01E062870D2DFE800F0031F88
:1020F00032485A7046480078B8B145484078A0B197
:102100000121F2EE040A9FED430A04F5357002F056
:10211000F3FB4FF43870005D012806D1002140F236
:102120002B200155042084F8B0056CE001223A49C7
:1021300004F21F2002F05AFB40F22B20005D012820
:1021400006D100214FF438700155052084F8B00500
:1021500059E00221F2EE040A9FED300A04F53570D1
:1021600002F0CAFB4FF43870005D012806D100214F
:102170004FF4BB700155062084F8B00543E00221FE
:1021800004F5B57001F01EFE4FF4BB70005D012830
:1021900006D1002140F22B200155072084F8B0051C
:1021A00031E002221C4904F21F2002F01FFB40F222
:1021B0002B20005D012808D10021C12001554FF4DA
:1021C00038700155082084F8B0051CE01AE002219F
:1021D00004F1B50001F08CFE0121F2EE040A9FED3E
:1021E000100A04F5357002F087FBC120005D01285C
:1021F00004D04FF43870005D012802D1092084F822
:10220000B00500E000BF00BF204602F095FC10BD05
:10221000AC00002000002A43A8E4FFFF00000000FB
:102220000000824210B511481149C1F8DD0511487E
:10223000C1F8E1051048C1F8E9051048C1F81906D0
:102240000F48C1F8E5050F48C1F8ED050E48C1F883
:10225000F5050846D0F8DD15884701F0E9FA04498C
:10226000C1F8D905D1F8ED05804710BD8D220008D1
:10227000BC33012057460008B53600080536000873
:10228000E72D0008D11900086D2F000830B5B1B056
:102290000446002560229D4919A8FDF7EDFF602244
:1022A0009A49603101A8FDF7E7FF994804F2BD544F
:1022B0002060984860609848A0609848E06098481E
:1022C000206198486061A4F2BD5400BF9BE0B52135
:1022D00001FB054000F002FC681CC1B2B520684358
:1022E00021546A1CD0B2D4F8C5158847B52101FB2A
:1022F0000541C1F8AE0005EB450101AA02EB8101E1
:10230000D1ED021AB0EE611A05EB450102EB810135
:10231000D1ED011AF0EE610A05EB450102EB8101F6
:10232000D1ED001AB0EE610AB52101FB054101F1C2
:102330005E009FED7D2ADFED7D1A00F00DFD05EBBF
:10234000450119AA02EB8101D1ED021AB0EE611A22
:1023500005EB450102EB8101D1ED011AF0EE610AB6
:1023600005EB450102EB8101D1ED001AB0EE610AE7
:10237000B52101FB054101F10E009FED6D2ADFED56
:102380006B1A00F0E9FCB52000FB0540D0F8AE0068
:102390008069B52101FB05418860B52000FB05403F
:1023A000D0F8AE008069B52101FB0541D1F8AE102F
:1023B000C861B52000FB0540D0F8AE008069B521AA
:1023C00001FB0541D1F8AE100861B52000FB0540C6
:1023D000D0F8AE008069B52101FB0541D1F8AE10FF
:1023E00048611321B52000FB054041800021B52044
:1023F00000FB054080F8B310B52000FB054080F8D5
:10240000B410681CC5B2082DFFF661AFDDED091AE6
:10241000B0EE611ADDED081AF0EE610ADDED071A83
:10242000B0EE610A9FED432ADFED401A04F5E47037
:1024300000F092FCDDED0C1AB0EE611ADDED0B1A26
:10244000F0EE610ADDED0A1AB0EE610A9FED382A5E
:10245000DFED361A04F22D2000F07EFCDDED151ABA
:10246000B0EE611ADDED141AF0EE610ADDED131A1B
:10247000B0EE610A9FED2F2ADFED2C1A04F29C408A
:1024800000F06AFC1B206080242104F5B570A4F8DC
:102490006C111321B530A4F82112242104F23E401E
:1024A000A4F84014B530A4F8F514002140F2B3505C
:1024B0000155401E0155401E015584F8B0150020FD
:1024C00084F8B40540F2BB500155401E0155401E32
:1024D0000155401E0155401E0155401E015504F591
:1024E000B5646173D4F8250080472060022021681C
:1024F00088702168487021680870D4F829008047E6
:102500006060A4F5B56431B030BD00008C6C00088B
:10251000F5090008810A000879370008D537000856
:10252000393800082939000800D0044600000000AE
:1025300000007A4600B0654610B5044694F8B00530
:10254000093807287ED2DFE800F0041C3245576DB9
:1025500082004B48007810B94948407880B1012189
:1025600004F5B57001F02EFC4FF4BB70005D01283E
:1025700006D100214FF4387001550A2084F8B005C7
:1025800078E00121F2EE040A9FED3E0A04F5357071
:1025900002F0B2F94FF43870005D012806D1002135
:1025A00040F22B2001550B2084F8B00562E0012297
:1025B000354904F21F2002F019F940F22B20005D8A
:1025C000012806D100214FF4BB7001550C2084F87E
:1025D000B0054FE0022104F5B57001F0F3FB4FF4B4
:1025E000BB70005D012806D100214FF43870015501
:1025F0000D2084F8B0053DE00221F2EE040A9FEDC3
:10260000230A04F5357002F077F94FF43870005D55
:10261000012806D1002140F22B2001550E2084F81C
:10262000B00527E00222184904F21F2002F0DEF86C
:1026300040F22B20005D012808D100214FF43870B2
:10264000015500E015E00F2084F8B00512E00121EB
:10265000F2EE040A9FED0E0A04F5357002F04CF913
:102660004FF43870005D012802D1102084F8B005C5
:1026700000E000BF00BF204602F05EFA10BD00007F
:10268000AC00002000002A43A8E4FFFF0000000087
:10269000000082424FF4FA7003F0EEFAFFF7C2FD39
:1026A0000FE0084BD3F8D535DA7A064BD3F8D53599
:1026B000997A044BD3F8D905FFF74AFC022003F0BE
:1026C000DBFAEEE7BC33012010B5044694F8B00500
:1026D000102806D011281CD0122830D0132853D12E
:1026E00040E02C48007810B92A48407880B1012198
:1026F00004F5B57001F066FB4FF4BB70005D012876
:1027000006D100214FF438700155112084F8B0052E
:102710003BE00121F2EE040A9FED1F0A04F535703B
:1027200002F0EAF84FF43870005D012806D100216C
:1027300040F22B200155122084F8B00525E001223B
:10274000164904F21F2002F051F840F22B20005DE0
:10275000012806D100214FF4BB700155132084F8E5
:10276000B00512E0022104F5B57001F02BFB4FF427
:10277000BB70005D012806D100214FF4387001556F
:10278000022084F8B00500E000BF00BF204602F040
:10279000D3F910BDAC00002000002A43A8E4FFFFDD
:1027A00010B5044694F8B00520B1012819D00228CC
:1027B00043D127E000202073D4F8AC150122B2EEFB
:1027C000040A204603F066F8207B012808D1002186
:1027D000C12001554FF438700155012084F8B0052F
:1027E0002CE0012104F1B50001F082FBC120005D65
:1027F000012806D100214FF4BB700155022084F856
:10280000B0051BE0012104F5B57001F0DBFA4FF4CF
:10281000BB70005D01280FD10121F2EE040A9FED8B
:102820000A0A04F5357002F067F800214FF4387099
:102830000155032084F8B00500E000BF00BF20462A
:1028400002F07AF910BD000000002A4300BFFEE745
:1028500038B500F021F80F49C86880470D4908696C
:1028600080470C49486980470A49886980470020A9
:102870000090084804680323072204210020A04791
:10288000002000900348446803230722042100200D
:10289000A04738BDF000002007480849C860084834
:1028A0000861084888600848086008484860084887
:1028B000486108488861704731390008F0000020FD
:1028C0007D2A0008E93B00080D0B0008710E000886
:1028D000D53F0008814100087047000002480349C5
:1028E0008968886070470000F1280008DD39012000
:1028F00010B55A48D0F8D50590F8230000F0030031
:10290000032808D15548D0F8AC150222B7EE000ACA
:1029100002F0C0FF22E05148D0F8D50590F823001E
:1029200000F00300012808D14C48D0F8AC15012272
:102930009FED4B0A02F0AEFF10E04848D0F8D505F5
:1029400090F8230000F00300022807D14348D0F894
:10295000AC1501229FED430A02F09CFF3F48D0F8DE
:10296000D50590F82300C0F3800028B101213B4831
:10297000B53001F0BDFA04E002213848B53001F06D
:10298000B7FA3648D0F8D50590F82300C0F3C00058
:1029900020B10121344801F015FA03E00221324848
:1029A00001F010FA2D48D0F8D50590F82300C0F3B7
:1029B000401040B10121F2EE040A9FED2C0A2C4890
:1029C00001F09AFF07E00221F1EE040A9FED290AC7
:1029D000274801F091FF2148D0F8D50590F8230051
:1029E000C0F3001038B101219FED230A1E48B53015
:1029F00001F05CFE06E002219FED1E0A1A48B53088
:102A000001F054FE154CD4F86D4200EE104ABDEEB4
:102A1000C00A10EE104A23B2104CD4F8B84100EEB0
:102A2000104ABDEEC00A10EE104A22B20B4CD4F888
:102A3000034100EE104ABDEEC00A10EE104A21B26A
:102A4000064CD4F84E4000EE104ABDEEC00A10EE1F
:102A5000104A20B2FDF7CEFF10BD0000BC330120AC
:102A6000666682410000F4412635012000004043A3
:102A70009036012000000000000087431CB50121B2
:102A8000102000F0B1F90121022000F0ADF9012081
:102A90008DF8040000208DF8060003208DF8050055
:102AA00001208DF807001F20009069460848FFF7B5
:102AB0007AFA8020009069460648FFF774FA1F21D1
:102AC0000348FFF7E4FA80210248FFF7E0FA1CBD53
:102AD000001002400004024000BFFEE710B50446AB
:102AE000002060806070207060609FED160A10EE1C
:102AF000100AA060002020739FED122ADFED111A4A
:102B00009FED101ADFED0F0A9FED0E0A04F10E0083
:102B100000F022F99FED0B2ADFED0A1A9FED091A4A
:102B2000DFED080A9FED070A04F15E0000F014F9DA
:102B300054F8AE0FFFF7ECF90B2020710020607104
:102B4000AE3C10BD000000007047000070B50021D1
:102B500000230F22C4781CB3174C246804F4E064EB
:102B6000C4F5E064C4F30721C1F10404E3B20A41EF
:102B700044789C40E1B28478144021430C07210E34
:102B80000E4C05786155047804F01F050124AC4013
:102B900005786D11AD0005F1E025C5F8004109E0AB
:102BA000047804F01F050124AC40054D0678761129
:102BB00045F8264070BD00000CED00E000E400E0A8
:102BC00080E100E07047000002480349896888609E
:102BD00070470000DD2B0008DD39012010B5012011
:102BE000034908700348D0F8E515884710BD000078
:102BF000EE000020BC330120B0EE401A10B99FED6A
:102C0000550A704711EE101A016010EE901A4160DB
:102C1000C16901628169C161016800EE101A4168F1
:102C200001EE901A30EE610A10EE101A8161416ACD
:102C300000EE101A816901EE901A30EE210A10EEB2
:102C4000101A4162C16A0163816AC162816900EE42
:102C5000101AC16901EE901A30EE610A10EE101AD6
:102C60008162C16800EE101A816901EE901A20EEAF
:102C7000210A10EE101A4163016900EE101A416A30
:102C800001EE901A20EE210A10EE101A81634169BC
:102C900000EE101A816A01EE901A20EE210A10EE61
:102CA000101AC163816B00EE101A816C01EE901A4C
:102CB000B4EEE10AF1EE10FA01DB816C8163816B05
:102CC00000EE101A816C01EE901AF1EE611AB4EE6A
:102CD000E10AF1EE10FA07D8816C00EE101AB1EE9D
:102CE000400A10EE101A8163416B00EE101A816BDE
:102CF00001EE901A70EE211AC16B00EE101A31EE3F
:102D0000800A10EE101A0164016C00EE101A416C7A
:102D100001EE901AB4EEE10AF1EE10FA03DB416C19
:102D200000EE101A6DE7016C00EE101A416C01EE16
:102D3000901AF1EE611AB4EEE10AF1EE10FA05D83C
:102D4000416C00EE101AB1EE400A5AE7016C00EE39
:102D5000101A56E70000000000B9704710EE101A74
:102D6000C16010EE901A016111EE101A416111EE6E
:102D7000901A816412EE101A4164DFED102A12EEEF
:102D8000901A8161C1610162DFED0C2A12EE901A86
:102D90008162C1620163DFED092A12EE901A41627D
:102DA000816041600160DFED052A12EE901A016436
:102DB000C1638163416300BFCFE7000000000000F2
:102DC0000021024880F8B31570470000BC33012091
:102DD000024803498968886070470000E52D0008B3
:102DE000DD3901207047704729B1064A1268024355
:102DF000044B1A6004E0034A12688243014B1A60D4
:102E0000704700003038024029B1064A1268024378
:102E1000044B1A6004E0034A12688243014B1A60B3
:102E2000704700004038024029B1064A1268024348
:102E3000044B1A6004E0034A12688243014B1A6093
:102E4000704700002038024029B1064A1268024348
:102E5000044B1A6004E0034A12688243014B1A6073
:102E6000704700004438024029B1064A1268024304
:102E7000044B1A6004E0034A12688243014B1A6053
:102E80007047000024380240F0B5002100220024E1
:102E9000022500260223324F3F6807F00C0121B1C2
:102EA000042905D0082937D105E02E4F076036E008
:102EB0002C4F076033E02A4F3F1F3F68C7F380560F
:102EC000274F3F1F3F6807F03F036EB1254FB7FB09
:102ED000F3F7DFF88CC0ACF1040CDCF800C0CCF3E5
:102EE000881C07FB0CF40CE01E4FB7FBF3F7DFF870
:102EF00070C0ACF1040CDCF800C0CCF3881C07FBFC
:102F00000CF4174F3F1F3F68C7F301477F1C7D003C
:102F1000B4FBF5F7076002E0124F076000BF00BF87
:102F20000F4F3F6807F0F00109090F4F7A5C0768FF
:102F3000D74047600A4F3F6807F4E051890A0A4FBB
:102F40007A5C4768D7408760054F3F6807F4604167
:102F5000490B054F7A5C4768D740C760F0BD000059
:102F60000838024040787D011400002070B5044606
:102F70000D46B5F9020000EE100AB8EEC00AF2EEF6
:102F8000040A20EE600ABDEEC00A10EE100A60606E
:102F9000B5F9000000EE100AB8EEC00AF2EE0E0A13
:102FA00020EE600ABDEEC00A10EE100AC4F8B900A7
:102FB000B5F9060000EE100AB8EEC00AF2EE040AF7
:102FC00020EE200ABDEEC00A10EE100AC4F86E0111
:102FD000B5F9040000EE100AB8EEC00AF2EE040AD9
:102FE00020EE600ABDEEC00A10EE100AC4F82302FB
:102FF000B5F9080000EE100AB8EEC00A9FEDFE1AFF
:10300000C0EE010AD4F8DC0200EE100A30EE800AAD
:1030100010EE100AC4F8DC02606800BBD4F8AE0001
:10302000406900EE900AD4F8AE00C06900EE100AC4
:1030300004F15E00FFF7E0FDD4F8AE00B0F9230024
:1030400001EE100AB8EEC11AF0EE410AD4F89E0063
:1030500000EE100A04F10E00FFF7CEFD1AE0D4F8DE
:10306000AE00B0F9230001EE100AB8EEC11AF0EE7E
:10307000410A606801EE100AB8EEC11AB0EE410ACA
:1030800004F10E00FFF7B8FDD4F8AE004069D4F8A3
:10309000AE10C861D4F8B90000BBD4F86301406930
:1030A00000EE900AD4F86301C06900EE100A04F241
:1030B0001310FFF7A1FDD4F86301B0F9230001EE6E
:1030C000100AB8EEC11AF0EE410AD4F8530100EE2E
:1030D000100A04F1C300FFF78FFD1BE0D4F8630171
:1030E000B0F9230001EE100AB8EEC11AF0EE410A61
:1030F000D4F8B90001EE100AB8EEC11AB0EE410AD8
:1031000004F1C300FFF778FDD4F863014069D4F8F7
:103110006311C861D4F86E0100BBD4F8180240698D
:1031200000EE900AD4F81802C06900EE100A04F507
:10313000E470FFF761FDD4F81802B0F9230001EE46
:10314000100AB8EEC11AF0EE410AD4F8080200EEF7
:10315000100A04F5BC70FFF74FFD1BE0D4F818020D
:10316000B0F9230001EE100AB8EEC11AF0EE410AE0
:10317000D4F86E0101EE100AB8EEC11AB0EE410AA1
:1031800004F5BC70FFF738FDD4F818024069D4F894
:103190001812C861D4F8420400BBD4F8EC044069AA
:1031A00000EE900AD4F8EC04C06900EE100A04F2B4
:1031B0009C40FFF721FDD4F8EC04B0F9230001EEA8
:1031C000100AB8EEC11AF0EE410AD4F8DC0400EEA1
:1031D000100A04F24C40FFF70FFD1BE0D4F8EC049A
:1031E000B0F9230001EE100AB8EEC11AF0EE410A60
:1031F000D4F8420401EE100AB8EEC11AB0EE410A4A
:1032000004F24C40FFF7F8FCD4F8EC044069D4F821
:10321000EC14C861D4F8CD02B0F92300642843DC73
:10322000D4F8CD02B0F9230010F1640F3CDBD4F8E0
:103230002302C8B371480088401C00B26F4908805F
:103240000846B0F9000032282EDB084600883228F4
:1032500013D1D4F8CD024069D4F8CD120861022010
:1032600067490870D4F82302002803DD012065496E
:10327000087002E0FF206349087062480078012866
:1032800003D1D4F82302002808DB5E4890F900003F
:10329000401C48B9D4F82302002805DD0020574916
:1032A000088001205649087055480078022820D12E
:1032B000D4F8CD02406900EE900AD4F8CD0200693E
:1032C00000EE100A04F27D20FFF796FCD4F8CD0240
:1032D000B0F9230001EE100AB8EEC11AF0EE410A6F
:1032E000D4F8BD0200EE100A04F22D20FFF784FC92
:1032F0001FE04348007801281BD1D4F8CD02B0F973
:10330000230001EE100AB8EEC11AF0EE410AD4F81B
:10331000230201EE100AB8EEC11AB0EE410A04F21F
:103320002D20FFF769FCD4F8CD024069D4F8CD1206
:103330000861D4F88203406900EE900AD4F8DC02F8
:1033400000EE100A04F23230FFF756FCD4F8820384
:10335000B0F9230001EE100AB8EEC11AF0EE410AEE
:10336000D4F8720300EE100A04F2E220FFF744FCE6
:10337000D4F88D0300BBD4F83704406900EE900AFE
:10338000D4F83704C06900EE100A04F2E730FFF702
:1033900033FCD4F83704B0F9230001EE100AB8EE7C
:1033A000C11AF0EE410AD4F8270400EE100A04F224
:1033B0009730FFF721FC1BE0D4F83704B0F9230065
:1033C00001EE100AB8EEC11AF0EE410AD4F88D03EE
:1033D00001EE100AB8EEC11AB0EE410A04F29730BD
:1033E000FFF70AFCD4F837044069D4F83714C861F1
:1033F000D4F8F70448BB07E00000C844CE00002022
:10340000D1000020D0000020D4F8A105406900EED2
:10341000900AD4F8A105C06900EE100A04F25150D8
:10342000FFF7EAFBD4F8A105B0F9230001EE100A7A
:10343000B8EEC11AF0EE410AD4F8910500EE100A78
:1034400004F20150FFF7D8FB1BE0D4F8A105B0F956
:10345000230001EE100AB8EEC11AF0EE410AD4F8CA
:10346000F70401EE100AB8EEC11AB0EE410A04F2F8
:103470000150FFF7C1FBD4F8A1054069D4F8A115AC
:10348000C861D4F8BD6500231A4619461846B047EE
:10349000D4F8C16500231A4619461846B04770BDD6
:1034A00000B101B97047434A1278424B5B7842EA57
:1034B0000322C2F30A020A803E4A5278D2103D4BE0
:1034C0009B7842EA4312C2F30A024A80394A927850
:1034D0009211384BDB7842EA8302364B1B7942EA81
:1034E0008322C2F30A028A80324A12795210314B87
:1034F0005B7942EAC312C2F30A02CA802D4A5279AA
:10350000121192088A722B4A5279C2F30112CA72BE
:10351000284A9279274BDB7942EA032212B2A1F8BA
:103520000D20244A127A234B5B7A42EA032213B21B
:1035300001F10D02A1F80F301E4A927A1D4BDB7A81
:1035400042EA032213B201F10D02A1F81130194A27
:10355000137BCB76537B0B77927B164BDB7B42EA5C
:10356000032301F10D02A1F81D30124A127C114B08
:103570005B7C42EA032212B20A810A88A2F58062C9
:1035800012B20A804A88A2F5806212B24A808A8802
:10359000A2F5806212B28A80CA88A2F5806212B255
:1035A000CA800A89A2F5806212B20A8101220A73D6
:1035B00000BF77E71C2F0120704700000248034935
:1035C0008968886070470000F1350008DD39012006
:1035D0004FF4FA7002F050FB00F0C6F80349C1F84E
:1035E000D50502E0022002F047FBFBE7BC330120D7
:1035F00010B50348D0F8D515D0F8F525904710BD83
:10360000BC33012070B504460221F2EE040AB3EE89
:10361000040A04F5357001F06FF9207B01281FD1F1
:10362000D4F8AE00406900EE900AD4F8AE0000690C
:1036300000EE100A04F15E00FFF7DEFAD4F8AE00E7
:10364000B0F9210001EE100AB8EEC11AF0EE410AFD
:10365000D4F89E0000EE100A04F10E00FFF7CCFA39
:10366000D4F88203406900EE900AD4F8DC0200EE40
:10367000100A04F23230FFF7BFFAD4F83704406979
:1036800000EE900AD4F8910300EE100A04F2E7303D
:10369000FFF7B2FAD4F8BD5500231A46194618466A
:1036A000A847D4F8C15500231A4619461846A8471A
:1036B00070BD000010B50446012020730121C12017
:1036C000015500214FF4BB700155012140F22B2020
:1036D00001554FF4387001554FF4BB70005D20B9AF
:1036E000022104F5B57000F06DFB4FF4BB70005D76
:1036F00001280AD1002020730021C120015540F289
:103700002B2001554FF438700155207B38B9D4F87F
:10371000AC150222B0EE000A204602F0BBF8C12030
:10372000005D20B9022104F1B50000F0E1FB40F298
:103730002B20005D28B90222094904F21F2001F064
:1037400055F84FF43870005D40B90221F2EE040ADA
:103750009FED040A04F5357001F0CEF810BD0000AD
:10376000A8E4FFFF000000000048704798330120E4
:1037700000487047C63101200146092916D2DFE80A
:1037800001F0150507090B0D0F11130009487047CB
:103790000948FCE70948FAE70948F8E70948F6E765
:1037A0000948F4E70948F2E70948F0E700BF00BF1D
:1037B0000020ECE78E300120B5300120DC30012004
:1037C000033101202A3101205131012078310120BB
:1037D0009F3101200146092916D2DFE801F01505C5
:1037E00007090B0D0F111300094870470948FCE742
:1037F0000948FAE70948F8E70948F6E70948F4E70D
:103800000948F2E70948F0E700BF00BF0020ECE7F5
:10381000F83101201F320120463201206D32012093
:1038200094320120BB320120E23201200933012011
:1038300000487047DD39012000487047AC00002087
:1038400010B580211848FEF719FC012806D1174849
:103850000088401C00B2154908800AE08021124807
:10386000FEF70CFC28B911480088401E00B20F4931
:1038700008800E48B0F90000022806DB01200C4940
:1038800008700020094908800AE00848B0F90000E3
:1038900010F1020F04DC002005490870034908807C
:1038A0000348007810BD000000000240B000002076
:1038B000B200002010B540211848FEF7DFFB0128B8
:1038C00006D117480088401C00B2154908800AE05C
:1038D00040211248FEF7D2FB28B911480088401E4B
:1038E00000B20F4908800E48B0F90000022806DB3C
:1038F00001200C4908700020094908800AE00848A6
:10390000B0F9000010F1020F04DC00200549087036
:10391000034908800348007810BD00000000024001
:10392000B4000020B6000020004870474F3301204B
:103930001CB501210846FFF757FA00208DF8040056
:103940008DF8060003208DF8050002208DF8070091
:10395000C020009069460248FEF725FB1CBD000010
:10396000000002400CB5002001900090344800682F
:1039700040F480303249086000BF3148006800F4EC
:10398000003000900198401C0190009818B90198EF
:10399000B0F5A04FF1D12A48006800F4003010B112
:1039A0000120009001E0002000900098012846D1FD
:1039B00023484030006840F0805021494031086081
:1039C0002048006840F440401E4908601C48083008
:1039D00000681B49083108600846006840F4004050
:1039E00008600846006840F4A05008601648091FA7
:1039F0000860081F006840F08070091F086000BF61
:103A00000F48006800F000700028F9D040F20570FF
:103A10000E4908600A480830006820F00300084991
:103A2000083108600846006840F00200086000BFE6
:103A300003480830006800F00C000828F8D10CBDDD
:103A4000003802400070004019544007003C02401A
:103A500010B5044601F0F6FF00F060F90348006875
:103A600002F038F902F018F810BD00000000002044
:103A700002468A4201D0012070470020FCE7000086
:103A800010B500BF502080F31188BFF34F8FBFF3F4
:103A90006F8F00BF02F0B6FE18B14FF0805004499E
:103AA000086000BF002080F3118800BF10BD000037
:103AB00004ED00E010B51548006840F470001349AB
:103AC00008601348006840F00100114908600020B8
:103AD0000F49083108600E4800680E4908400C493B
:103AE00008600D48091D0860081F006820F4802048
:103AF000091F0860002006490C310860FFF732FFFB
:103B00004FF0006001498039086010BD88ED00E089
:103B100000380240FFFFF6FE1030002410B50121EE
:103B20002A4800F09EF801284BD129480088401C03
:103B300000B2274908800846B0F90000B0F57A7F46
:103B40001CDB24480078404240B222490870002023
:103B50001F49088020480088401C00B21E49088088
:103B60000846B0F900003C2808DB1C480088401CCF
:103B700000B21A49088000201749088015480078CB
:103B8000012811D11248B0F900005A2190FBF1F23E
:103B900001FB1200A8B980211148FEF77AFA1F2113
:103BA0001048FEF776FA0CE00A4890F90000401C35
:103BB00038B980210A48FEF76AFA1F210948FEF742
:103BC00066FA0121014800F03DF810BD00040040F4
:103BD000B8000020BE000020BA000020BC00002079
:103BE00000040240001002407FB505460C4601214A
:103BF0000220FFF709F9681E80B2ADF8040000202A
:103C0000ADF80600ADF80C00601E029001A90C484A
:103C100000F042F81D208DF8000008208DF801000A
:103C200001208DF803006846FEF790FF012211463F
:103C3000034800F027F80121014800F006F87FBD95
:103C400000040040CA430282704721B1028842F05A
:103C50000102028004E002884FF6FE731A400280DF
:103C6000704730B50246002000230024158A05EA7B
:103C70000103958905EA010413B10CB1012000E0AC
:103C8000002030BD1AB183890B43838102E0838910
:103C90008B4383817047000000220288184B9842B2
:103CA0000ED0184B98420BD0B0F1804F08D0164B75
:103CB000984205D0154B984202D0154B984204D13A
:103CC0004FF68F731A404B881A43124B984207D015
:103CD000114B984204D04FF6FF431A400B891A4308
:103CE00002804B68C3620B880385054B984202D063
:103CF000044B984201D18B7A03860123838270475B
:103D000000000140000401400004004000080040A1
:103D1000000C004000100040001400401CB5154885
:103D2000072100234FF48072CDE9001012A115483D
:103D300002F022FD1448072100234FF48072CDE9E0
:103D4000001012A1144802F017FD144808210023A6
:103D50004A01CDE9001012A1144802F00DFD1448EB
:103D6000082100234A01CDE9001012A1144802F0F5
:103D700003FD1CBD0400002052656D6F74655F5427
:103D800061736B00D135000808000020446574653C
:103D900063745F5461736B00F11E00081000002013
:103DA000446174615F5461736B000000CD1E0008B4
:103DB0000C00002047726173705F5461736B0000E8
:103DC0009526000870B504460D464648007810B99F
:103DD00068B244490870434890F90000A84209D0ED
:103DE000012041490870002020734049087068B2E2
:103DF0003C490870012D01D0022D31D10320C0EBC8
:103E0000450041F27071484300EE100AB8EEC00A56
:103E1000F6EE000A20EE200ABDEEC00A10EE100AEF
:103E20006060D4F8AE10B1F9230000F063FE64289E
:103E30001CDC2E480078401C2C490870084600788D
:103E4000052813DD00200870022027490870D4F8E7
:103E5000AE008069D4F8AE1008610120207305E03F
:103E6000D4F8AE008069D4F8AE100861207B012838
:103E700020D1D4F8AE00806900EE900AD4F8AE00EC
:103E8000006900EE100A04F15E00FEF7B5FED4F8FA
:103E9000AE00B0F9230001EE100AB8EEC11AF0EE40
:103EA000410AD4F89E0000EE100A04F10E00FEF75D
:103EB000A3FE16E0207BA0B9D4F8AE00B0F9230031
:103EC00001EE100AB8EEC11AF0EE410A606801EE88
:103ED000100AB8EEC11AB0EE410A04F10E00FEF766
:103EE0008BFE70BDEA000020E9000020E800002001
:103EF00070B504460D463348007810B968B23149B0
:103F00000870304890F90000A84209D001202E49DD
:103F1000087000202D490870207368B22949087084
:103F2000012D01D0022D25D10320C0EB450041F227
:103F3000707148436060D4F8AE10B1F9230000F00E
:103F4000D9FD64281CDC21480078401C1F490870FA
:103F500008460078052813DD0020087002201A4961
:103F60000870D4F8AE008069D4F8AE100861012062
:103F7000207305E0D4F8AE008069D4F8AE10086173
:103F8000207B012806D19FED120A10EE100AC4F81A
:103F90004E0016E0207BA0B9D4F8AE00B0F92300A3
:103FA00001EE100AB8EEC11AF0EE410A606801EEA7
:103FB000100AB8EEC11AB0EE410A04F10E00FEF785
:103FC0001BFE70BDED000020EC000020EB00002087
:103FD0000000000000B597B001214448FEF704FF3F
:103FE00001211020FEF730FF07220A214048FEF78A
:103FF00022F84FF48060159002208DF858000020C0
:104000008DF85A0003208DF8590000208DF85B00D0
:1040100015A93748FDF7C7FF364800F055F936486F
:1040200011900020ADF84800ADF84A004FF48060D0
:10403000ADF84C000420ADF84E000020ADF8500063
:1040400011A92C4800F008FA01212A4800F026F9AD
:1040500001224021274800F02DF944208DF804006A
:1040600000208DF8050001208DF8070001A8FEF75B
:104070006DFD00212148FDF7F5FD00BF1F480068D8
:1040800000F001000028F9D11C48FDF7F7FD4FF0C2
:10409000006002901748001D03901948049000200A
:1040A000059012200690002007904FF48060089041
:1040B000002009900A904FF480700B904FF440302C
:1040C0000C9000200D900E900F90109002A90B48BC
:1040D000FDF7CEFE012210210848FDF7ABFE0121BD
:1040E0000648FDF7BFFD17B000BD0000010040000D
:1040F0000000024000100140A086010088640240D8
:104100001C2F012070B50024002540F224411848DE
:1041100000F052F950B300211648FDF7A3FD00BF8F
:104120001448FDF757FE0028FAD1114800881048BE
:10413000001D00880F48FDF757FEC0F1800085B2D2
:10414000002405E00C48005D0C490855601C84B251
:10415000AC42F7DB80210748FDF7B6FE0121054898
:10416000FDF780FD0120054981F8480070BD000081
:104170000014014028640240EE2F01204F3301203B
:1041800000B58FB001214048FEF72EFE012120200E
:10419000FEF75AFE082206213C48FDF74CFF082294
:1041A00007213A48FDF747FFC0200D9002208DF807
:1041B000380000208DF83A0003208DF839000020E7
:1041C0008DF83B000DA93148FDF7EDFE304800F0B9
:1041D0007BF84FF4E13008900020ADF82400ADF8F2
:1041E0002600ADF828000C20ADF82A000020ADF81C
:1041F0002C0008A9264800F02FF947208DF8300040
:1042000001208DF8330003208DF831000CA8FEF753
:104210009DFC012240F224411D4800F0F7F80121E5
:104220001B4800F03BF81B48FDF728FD4FF02060CD
:1042300000901748001D019017480290002003903D
:1042400080200490002005904FF4806006900020AC
:10425000079008904FF4807009904FF440300A9016
:1042600000200B900C900D900E9069460948FDF7C8
:10427000FFFD01210748FDF7F5FC0122402104481C
:1042800000F018F80FB000BD040040000008024024
:104290000014014028640240EE2F012021B18289E0
:1042A00042F40052828104E082894DF6FF731A4085
:1042B000828170471AB1838A0B43838202E0838A2A
:1042C0008B4383827047000010B504463248844215
:1042D00008D101211020FEF7C7FD00211020FEF7B4
:1042E000C3FD57E02D48844209D101214804FEF75F
:1042F0009BFD00214FF40030FEF796FD4AE0284870
:10430000844209D101218804FEF78EFD00214FF47B
:104310008020FEF789FD3DE02248844209D1012139
:10432000C804FEF781FD00214FF40020FEF77CFD5C
:1043300030E01D48844209D101210805FEF774FDD3
:1043400000214FF48010FEF76FFD23E017488442F0
:1043500008D101212020FEF787FD00212020FEF753
:1043600083FD17E01248844209D101218807FEF736
:104370005BFD00214FF08040FEF756FD0AE00D483E
:10438000844207D101214005FEF74EFD0021600562
:10439000FEF74AFD10BD000000100140004400403F
:1043A00000480040004C0040005000400014014014
:1043B00000780040007C004070B5024600240023D5
:1043C0000025002040F66A16B14200D100BFC1F3BB
:1043D000421501F01F03012606FA03F3012D02D155
:1043E0009689334006E0022D02D1168A334001E05F
:1043F000968A33400C12012606FA04F416883440DB
:1044000013B10CB1012000E0002070BDF0B50346EF
:10441000002400260025002040F66A17B94200D18A
:1044200000BF1846C1F3421401F01F06012707FA26
:1044300006F5012C01D10C3004E0022C01D1103022
:1044400000E014301AB107682F43076002E00768E4
:10445000AF430760F0BD00002DE9FF4705460E465B
:104460000024A14600BFA046B08900B100BF2C8A3D
:1044700024F44054F08804432C82AC8941F20C604F
:104480008443B08831890843718908430443AC816F
:10449000AC8A24F44074B0890443AC826846FEF7C9
:1044A000F3FC2048854202D01F48854202D1DDF846
:1044B0000C9001E0DDF80890A88900F4004040B1BC
:1044C00009EBC90000EB091031684900B0FBF1F7B6
:1044D00007E009EBC90000EB091031688900B0FB67
:1044E000F1F76420B7FBF0F004012009642101FB1F
:1044F0001078A88900F4004040B1322000EBC800D9
:10450000B0FBF1F000F00700044308E0322000EBBC
:1045100008106421B0FBF1F000F00F0004432C817F
:10452000BDE8FF87001001400014014000BFFEE716
:1045300070B52DED048B00243B4890F8480001280D
:104540006FD13948407F30280DDB3748407F39280C
:1045500009DC3548407F303800EB4001C1EBC0102A
:1045600004EBC00084B23048807F30280DDB2E4839
:10457000807F392809DC2C48807F303800EBC0016F
:1045800001EB001004EB800084B22748C07F302884
:104590000BDB2548C07F392807DC2348C07F303833
:1045A00000EB800004EB400084B21F4890F820002C
:1045B00030280ADB1C4890F82000392805DC1A480E
:1045C00090F820003038204484B200EE104AB8EE53
:1045D000400AF2EE040A80EE201A11EE105A284624
:1045E000FCF707F841EC190B9FED100B53EC102B67
:1045F000FBF707FF41EC180BFCF70EF80A4948647B
:104600000C480078032808D10A480078401C094962
:1046100008700548406C044908640020024981F88C
:104620004800BDEC048B70BD4F33012066666666A2
:1046300066661040BF00002002E008C8121F08C1D3
:10464000002AFAD170477047002001E001C1121F13
:10465000002AFBD1704710B5044694F8B005032832
:1046600002DA2046FEF79CF894F8B005032806DB32
:1046700094F8B005092802DA2046FDF72FFD94F8DA
:10468000B005092806DB94F8B005102802DA2046A8
:10469000FDF752FF94F8B005102806DB94F8B0053A
:1046A000142802DA2046FEF70FF810BD70B52DED84
:1046B000028B0446B0EE408A0D464748007810B998
:1046C00068B245490870444890F90000A84206D0F5
:1046D000002020734149088068B23F490870012DCD
:1046E00047D19FED3F0A10EE100AC4F84E00D4F8EF
:1046F000AE10B1F9230000F0FDF9322868DC37482C
:104700000088401C00B2354908800846B0F9000016
:104710003C280ADD002008806060D4F8AE00806983
:10472000D4F8AE10086101202073207B01284FD1FE
:10473000D4F8AE00806900EE900AD4F8AE000069AB
:1047400000EE100A04F15E00FEF756FAD4F8AE004F
:10475000B0F9230001EE100AB8EEC11AF0EE410ADA
:10476000D4F89E0000EE100A04F10E00FEF744FAA1
:104770002EE0022D2CD19FED1B0A10EE100AC4F87A
:104780004E00D4F8AE10B1F9230000F0B3F964285C
:104790001EDC12480088401C00B210490880084600
:1047A000B0F9000032280ADD002008806060D4F8EB
:1047B000AE008069D4F8AE10086101202073207B20
:1047C000012805D19FED080A10EE100AC4F84E002A
:1047D000BDEC028B70BD0000DE000020DC0000207C
:1047E00000007AC500007A440000000070B504465D
:1047F0000E46154694F8B400401C84F8B400012D10
:1048000001D0022D24D10320A0EB4500704360604D
:10481000D4F8AE10B1F9230000F06CF9B0F5FA6FDE
:104820001CDC33480088401C00B23149088008462F
:10483000B0F90000022811DD002008806060D4F883
:10484000AE008069D4F8AE1008610120207305E045
:10485000D4F8AE008069D4F8AE100861606850BB2F
:10486000012D1FD1D4F8AE00406900EE900AD4F8B3
:10487000AE00C06900EE100A04F15E00FEF7BCF95C
:10488000D4F8AE00B0F9230001EE100AB8EEC11A58
:10489000F0EE410AD4F89E0000EE100A04F10E007A
:1048A000FEF7AAF9022D21D19FED120A10EE100A8F
:1048B000C4F84E001AE0D4F8AE00B0F9230001EEBF
:1048C000100AB8EEC11AF0EE410A606801EE100A53
:1048D000B8EEC11AB0EE410A04F10E00FEF78CF9F1
:1048E000D4F8AE004069D4F8AE10886170BD000005
:1048F000DA0000200000000070B52DED028B0446A8
:10490000B0EE408AF0EE608A0D46012D46D1A068D7
:1049100000EE100ADFED6F0A30EE600A10EE100AAA
:10492000A060A06800EE100AD4F8AE00C06900EEE6
:10493000900A70EEC80AB4EEE00AF1EE10FA09D857
:10494000D4F8AE00C06900EE100A30EE480A10EE4E
:10495000100AA060D4F8AE00406900EE900A30EE74
:10496000881AD4F8AE00C06900EE900A71EE600AB1
:10497000B0EE600A00F0B4F8B4EEE80AF1EE10FA16
:1049800079D801202073D4F8AE00C06900EE100A77
:1049900030EE480A10EE100AA0606CE0022D66D1DD
:1049A000A06800EE100ADFED4C0A30EE200A10EE8F
:1049B000100AA060A06800EE900AD4F8AE00C069AA
:1049C00000EE100A30EE480AF4EEC00AF1EE10FADA
:1049D00009DBD4F8AE00C06900EE100A30EE480AD8
:1049E00010EE100AA060D4F8AE00406900EE900A04
:1049F00030EE881AD4F8AE00C06900EE900A71EE6D
:104A0000600AB0EE600A00F06BF8B4EEE80AF1EE6E
:104A100010FA0CD801202073D4F8AE00C06900EE63
:104A2000100A30EE480A10EE100AA06023E0D4F815
:104A3000AE00B0F923001E2805DDD4F8AE00B0F9B1
:104A400023001E2817DB25480088401C00B223499C
:104A500008800846B0F9000064280CDD00200880BA
:104A6000D4F8AE004069A0600120207303E0D4F8C0
:104A7000AE004069A060D4F8AE00406900EE900A34
:104A8000A06800EE100A04F15E00FEF7B5F8D4F855
:104A9000AE00B0F9230001EE100AB8EEC11AF0EE34
:104AA000410AD4F89E0000EE100A04F10E00FEF751
:104AB000A3F8D4F84E1000EE101ABDEEC00A10EEA6
:104AC000101A08B200231A461946FBF7D9FFBDECAD
:104AD000028B70BD9A99193FCDCCCC3ED4000020FA
:104AE000B5EEC00AF1EE10FA03D2F1EE400AB0EED4
:104AF000600A7047002801DA414208B2704700009E
:104B00001CB5FDF7A5FE0748012100230A02CDE9E7
:104B1000001005A1074801F02FFE01F007FA002060
:104B20001CBD00000000002053746172745F54616A
:104B3000736B0000513A000870B504460025207BD5
:104B4000A8B9D4F8AE00B0F9230001EE100AB8EE0F
:104B5000C11AF0EE410A606801EE100AB8EEC11AFF
:104B6000B0EE410A04F10E00FEF746F829E0207B82
:104B7000012820D1D4F8AE00406900EE900AD4F8A4
:104B8000AE00006900EE100A04F15E00FEF734F892
:104B9000D4F8AE00B0F9230001EE100AB8EEC11A45
:104BA000F0EE410AD4F89E0000EE100A04F10E0067
:104BB000FEF722F805E09FED730A10EE100AC4F824
:104BC0004E00012567E0B52000FB0540007BF0B9F1
:104BD000B52101FB0541D1F8AE10B1F9231001EE6A
:104BE000101AB8EEC11AF0EE410AB52101FB0541D9
:104BF000496801EE101AB8EEC11AB0EE410AB521AB
:104C000001FB054101F10E00FDF7F6FF41E0B52083
:104C100000FB0540007B012832D1B52101FB054195
:104C2000D1F8AE10896900EE901AB52101FB05415B
:104C3000D1F8AE10096900EE101AB52101FB05414B
:104C400001F15E00FDF7D8FFB52101FB0541D1F868
:104C5000AE10B1F9231001EE101AB8EEC11AF0EE41
:104C6000410AB52101FB0541D1F89E1000EE101A52
:104C7000B52101FB054101F10E00FDF7BDFF08E084
:104C80009FED400A10EE100AB52101FB0541C1F865
:104C90004E00681CC5B2032D95DB40F22B20005D51
:104CA000B0B9D4F8CD02B0F9230001EE100AB8EE85
:104CB000C11AF0EE410AD4F8230201EE100AB8EE50
:104CC000C11AB0EE410A04F22D20FDF795FF2BE04A
:104CD00040F22B20005D012820D1D4F8CD0280695C
:104CE00000EE900AD4F8CD02006900EE100A04F23A
:104CF0007D20FDF781FFD4F8CD02B0F9230001EE4D
:104D0000100AB8EEC11AF0EE410AD4F8BD0200EE66
:104D1000100A04F22D20FDF76FFF05E09FED190A40
:104D200010EE101AC4F86D12D4F88203406900EE38
:104D3000900AD4F8DC0200EE100A04F23230FDF7DB
:104D40005BFFD4F88203B0F9230001EE100AB8EE3D
:104D5000C11AF0EE410AD4F8720300EE100A04F210
:104D6000E220FDF749FFD4F8BD6500231A46194635
:104D70001846B047D4F8C16500231A4619461846AC
:104D8000B04770BD000000002DE9F04105460E4619
:104D90001C4807681C480068001D00F009FE50B957
:104DA0001948006890F82C100120884017490968BC
:104DB000814316480160681C38B936B11248016851
:104DC000091D134800F032FE1AE07C190E480068F5
:104DD0004460BC4207D20C480168091D0D480068B8
:104DE00000F00AFE0CE008480168091D0A48006846
:104DF00000F002FE09480068844201D207480460BE
:104E0000BDE8F081600000204C000020640000201C
:104E1000C802002054000020500000207C00002028
:104E200010B5044600F00EFE24480068401C2349DB
:104E300008602348006840B92148046008460068BB
:104E400001280DD100F0DEF90AE01E48006838B9EB
:104E50001B480068C06AE16A884201D818480460AB
:104E600019480068401C184908600846006820641A
:104E700094F82C100120884014490968084313490C
:104E80000860E16A01EB8101114A02EB8100211DFA
:104E900000F0CCFD00F000FE0A48006868B1084848
:104EA0000068C06AE16A884207D24FF08050094921
:104EB0000860BFF34F8FBFF36F8F10BD5C00002001
:104EC0004C000020680000207800002064000020D2
:104ED0003801002004ED00E010B500F0B3FD1048EB
:104EE0000068D0B90F4800F077FD0F4800F074FD5E
:104EF0000C480E4908600C480D49086000220C213E
:104F00000A2001F049F9064908600846006820B106
:104F100008A10348006800F073FE00F0BDFD10BD5D
:104F20004000002010010020240100203800002053
:104F30003C000020546D72510000000070B523E069
:104F400001F03EF81348006808B9012000E0002095
:104F5000054601F0ABFDBDB900F074FD0D48C06819
:104F6000C468201D00F024FD0B480068401E0A495B
:104F700008600A480068401E0849086000F08CFD7F
:104F8000204600F060F800BF044800680028D7D130
:104F900070BD0000B40200205C000020580000201A
:104FA00070B504460D46206C70B1216CE068084471
:104FB000E0606168E068884201D32068E0602846CC
:104FC000226CE168FBF758F970BD2DE9F041044609
:104FD0000F4615464FF00008A66B206C40B92068BC
:104FE00060BB606801F0B2FC80460020606025E094
:104FF0007DB93946226CA068FBF73EF9216CA068A8
:105000000844A060D4E90110884217D32068A0604A
:1050100014E03946226CE068FBF72EF9216CE06859
:10502000401AE0602168E068884203D2216C606821
:10503000401AE060022D01D106B1761E701CA063FB
:105040004046BDE8F08110B50446206B00F042FDFB
:10505000204600F03FFD10BD0146084A1268126864
:105060000AB9012200E000220A600A6822B9034A54
:105070001268D268106800E00020704738000020F5
:1050800030B54FF49633174800F007042CB1C01D1B
:1050900020F00700134C041B1B1B0246124C22601D
:1050A0000024114D6C60D018083820F007000F4C18
:1050B000206000240D4D2D686C600C4D2D682C6017
:1050C0001146441A4C60094C24680C60084D4C6829
:1050D0002C60084D4C682C604FF00044064D2C604D
:1050E00030BD00001C03002088000020900000203C
:1050F00098000020940000209C00002000BFFFF7D3
:105100001DFF064800680128F9D94FF08050044976
:105110000860BFF34F8FBFF36F8FF0E738010020B7
:1051200004ED00E02DE9F04106460D46174698468D
:10513000069C0DB9246000E02760E6632564012128
:10514000204601F037F984F84C80BDE8F0812DE964
:10515000F05F82460F4690469B460A9E0C9C4FEAA3
:105160008801A522206BFBF799F8A8F10100216BBB
:1051700001EB800929F0070909F0070008B90120AF
:1051800000E0002050B900BF502080F31188BFF329
:105190004F8FBFF36F8F00BF00BFFEE7002507E012
:1051A000795D04F134004155785D00B902E06D1C71
:1051B0000A2DF5D300BF00213D200155102E00D34C
:1051C0000F26E662A6640020E064201D00F011FCBA
:1051D00004F1180000F00DFC2461C6F11000A0617C
:1051E00064620020206584F854005A4651464846BF
:1051F00000F03AFB20600B9808B10B980460BDE802
:10520000F09F000010B5002407E004EB84010F4A72
:1052100002EB810000F0E0FB641C102CF5D30C487D
:1052200000F0DAFB0B4800F0D7FB0B4800F0D4FB92
:105230000A4800F0D1FB0A4800F0CEFB04480949B7
:10524000086004480849086010BD000038010020CB
:10525000780200208C020020A0020020B40200206E
:10526000C8020020500000205400002010B5014664
:10527000164800E0006803688B42FBD3024643688F
:1052800013448B4204D143684C6823444360014675
:105290000A464B6813440468A34211D10C4C0368BE
:1052A0002468A34208D04B680468646823444B60B8
:1052B00003681B680B6005E0054B1B680B6001E091
:1052C00003680B60884200D0016010BD8800002098
:1052D000900000202DE9F04104460D4616461F4679
:1052E0004FF0000865602461B5420CD8F01BA1693D
:1052F000884202D34FF0010811E0211D09480068DF
:1053000000F07AFB0BE0BE4204D2BD4202D34FF064
:10531000010804E0211D0448006800F06DFB4046D0
:10532000BDE8F0813C0000203800002070B5054643
:1053300000F088FBA86B08B9012400E0002400F00D
:10534000ABFB204670BD70B5054600F07BFBA86B3B
:10535000E96B884201D1012400E0002400F09CFBAD
:10536000204670BDF8B505460F4616480068C0686F
:10537000C468201D00F01CFBE06901281DD1A06954
:1053800041192B463A462046FFF7A4FFA8B100205A
:1053900003462A4601460090204601F035FC0646A9
:1053A00056B900BF502080F31188BFF34F8FBFF371
:1053B0006F8F00BF00BFFEE700BF2046616A8847CD
:1053C000F8BD00003800002070B586B06AE0039890
:1053D000002867DB059C606908B9012000E0002017
:1053E00010B9201D00F0E4FA02A800F0BDF805464F
:1053F00003980A2854D2DFE800F009050731334F3B
:105400000608323400BF00BF00BF00BF0498A26985
:10541000811803462A462046FFF75CFFE8B1204684
:10542000616A8847E069012817D10020009004983C
:10543000A169421800231946204601F0E5FB064603
:1054400056B900BF502080F31188BFF34F8FBFF3D0
:105450006F8F00BF00BFFEE700BF22E000BF20E06B
:1054600000BF0498A061A06908B1012000E00020FD
:1054700050B900BF502080F31188BFF34F8FBFF3A6
:105480006F8F00BF00BFFEE7A06941192B462A4677
:105490002046FFF71FFF04E0204600F01BFB00E062
:1054A00000BF00BF00231A4603A90448006800F0AB
:1054B0009FFE00288BD106B070BD00004000002088
:1054C000F8B505460C4600F07BFD684600F04CF848
:1054D0000646009820BB44B9B54206D801F0E6FA6A
:1054E00031462846FFF73EFF1CE03CB10E480068FD
:1054F000006808B9012000E000200446A91B2246EC
:105500000A48006800F092FB01F0D0FA50B94FF061
:10551000805007490860BFF34F8FBFF36F8F01E0E2
:1055200001F0C4FAF8BD00003C000020400000205B
:1055300004ED00E00A490968096809B9012100E0A1
:10554000002121B14FF0FF31064A116006E0044905
:105550000968C968C868034A41681160704700005B
:10556000500000207C00002070B5044601F044F992
:10557000054607480068854204D200F00BF8012078
:10558000206001E00020206001480560284670BDD1
:10559000480000202DE9F84332E024480068C06844
:1055A000056822480068C068C468201D00F000FA41
:1055B0002046616A8847E069012821D1A06946191F
:1055C000AE4207D966602461211D1848006800F0CA
:1055D00013FA15E0002003462A46014600902046B3
:1055E00001F012FB074657B900BF502080F3118825
:1055F000BFF34F8FBFF36F8F00BF00BFFEE700BF49
:105600000A480068006808B9012000E0002000286E
:10561000C3D00648D0F800800548006803490860F8
:105620000348C0F80080BDE8F8830000380000207F
:105630003C0000200E480068401C08B9012000E032
:10564000002050B900BF502080F31188BFF34F8F66
:10565000BFF36F8F00BF00BFFEE700BF502080F395
:105660001188BFF34F8FBFF36F8F00BF00BFFEE7FE
:10567000A000002008B500BF6846FFF7EDFC044617
:1056800020460099FFF71CFFFFF79EFEF4E770B578
:10569000044600F0D7F994F9455010E0606A08B963
:1056A000012000E0002038B904F1240001F0B2F933
:1056B00018B100F089FB00E003E0681E45B2002D40
:1056C000ECDC00BFFF2084F8450000F0E5F900F0B5
:1056D000B9F994F9445010E0206908B9012000E0BC
:1056E000002048B904F1100001F094F908B100F06D
:1056F0006BFB681E45B200E001E0002DECDC00BF52
:10570000FF2084F8440000F0C7F970BD2DE9F04196
:1057100004464FF0000800F053FC4648006808B902
:10572000FFF7AEFC44480068204000286BD1D4B19C
:10573000083404F00700B0B104F00700C0F108001D
:10574000044404F0070008B9012000E0002050B92B
:1057500000BF502080F31188BFF34F8FBFF36F8FCE
:1057600000BF00BFFEE7002C4DD0344800688442E3
:1057700049D8334E3046056801E02E462D686868EA
:10578000A04202D228680028F7D12A480068854242
:1057900039D0306800F10808286830606868001B5C
:1057A000102819D92F1907F0070008B9012000E0C7
:1057B000002050B900BF502080F31188BFF34F8FF5
:1057C000BFF36F8F00BF00BFFEE76868001B786003
:1057D0006C603846FFF74AFD184968680968081A7E
:1057E000164908600846006816490968884203D2CD
:1057F00012480068134908600F496868096808433F
:1058000068600020286001F051F908F0070008B92D
:10581000012000E0002050B900BF502080F3118823
:10582000BFF34F8FBFF36F8F00BF00BFFEE740464F
:10583000BDE8F081900000209C0000209400002032
:1058400088000020980000200648006830B1054913
:10585000096801F14C00C96C491C016001480068ED
:10586000704700004C000020001F4FF08073036061
:10587000001F21F001030360001F054B0360143873
:105880000260001F6FF002030360203870470000C1
:105890003556000870B52DED028B04460D46B0EE6E
:1058A000408A1646404890ED000AB4EE480AF1EEF0
:1058B00010FA04D0002020733B4880ED008A012EAE
:1058C00017D13A486060686C00EE100A286C00EE50
:1058D000900A30EE600AB4EEC80AF1EE10FA25DB49
:1058E00001202073D4F8AE004069D4F8AE100861EE
:1058F0001CE0022E18D14FF461706060686C00EEFD
:10590000100A286C00EE900A30EE600AB4EEC80A65
:10591000F1EE10FA0AD801202073D4F8AE004069E5
:10592000D4F8AE10086101E000206060207B0128FF
:1059300020D1D4F8AE00406900EE900AD4F8AE0051
:10594000006900EE100A04F15E00FDF755F9D4F885
:10595000AE00B0F9230001EE100AB8EEC11AF0EE65
:10596000410AD4F89E0000EE100A04F10E00FDF783
:1059700043F916E0207BA0B9D4F8AE00B0F92300BB
:1059800001EE100AB8EEC11AF0EE410A606801EEAD
:10599000100AB8EEC11AB0EE410A04F10E00FDF78C
:1059A0002BF9BDEC028B70BDE400002048F4FFFF32
:1059B00001460A69D1E901309860D1E901035860D4
:1059C0005068884201D188685060002008611068E2
:1059D000401E10601068704700F1080141604FF0F0
:1059E000FF31816000F10801C160016100210160A7
:1059F000704700210161704710B502460B685C1CBE
:105A00000CB9106907E002F1080000E04068446842
:105A100024689C42FAD944684C604C68A160886054
:105A200041600A611468641C146010BD42684A60D9
:105A300093688B60936859609160086103685B1C90
:105A40000360704700BF502080F31188BFF34F8F71
:105A5000BFF36F8F00BF0E480068401C0C49086000
:105A600008460068012812D10A480068C0B208B987
:105A7000012000E0002050B900BF502080F31188C1
:105A8000BFF34F8FBFF36F8F00BF00BFFEE77047BC
:105A9000A000002004ED00E00D48006850B900BFF0
:105AA000502080F31188BFF34F8FBFF36F8F00BF7B
:105AB00000BFFEE706480068401E0549086008462A
:105AC000006820B9002080F3118800BF00BF704734
:105AD000A000002070B506463546002E3FD0083D98
