S31508000000B83F01205502000895330008F12D000875
S315080000102D330008B90600087D50000800000000CE
S315080000200000000000000000000000009D0100081C
S315080000306F29000800000000F10100080D460008BD
S315080000406F0200086F0200086F0200086F020008BE
S315080000506F0200086F0200086F0200086F020008AE
S315080000606F0200086F0200086F0200086F0200089E
S315080000706F0200086F0200086F0200086F0200088E
S315080000806F0200086F0200086F0200086F0200087E
S31508000090D50800086F0200086F0200086F02000802
S315080000A06F0200086F0200086F0200086F0200085E
S315080000B06F020008A94600086F0200086F020008D0
S315080000C06F0200086F0200086F0200086F0200083E
S315080000D06F0200086F020008694C0008E14C00082E
S315080000E06F0200086F0200086F0200086F0200081E
S315080000F06F0200086F0200086F0200086F0200080E
S315080001006F0200086F0200086F0200086F020008FD
S31508000110B54A00086F0200086F0200086F0200085F
S315080001206F020008192600086F0200086F0200080F
S315080001306F0200086F0200086F0200086F020008CD
S31508000140910C00086F0200086F0200086F02000891
S31508000150512600086F0200086F020008654D000866
S315080001606F0200086F0200086F0200086F0200089D
S315080001706F0200086F0200086F0200086F0200088D
S315080001806F0200086F020008DFF80CD000F03AFA98
S3150800019000480047C5550008B83F01202A4B196892
S315080001A00868B0E8F04F80F30988BFF36F8F4FF007
S315080001B0000080F3118870470000000006480068B8
S315080001C0006880F3088862B661B6BFF34F8FBFF345
S315080001D06F8F00DF00BF00BF08ED00E0DFF80C00FE
S315080001E0016841F470010160704700BF88ED00E0C6
S315080001F0EFF30980BFF36F8F134B1A681EF0100FC9
S3150800020008BF20ED108A20E9F04F106008B44FF0BF
S31508000210500080F31188BFF34F8FBFF36F8F06F03E
S3150800022045FB4FF0000080F3118808BC1968086880
S31508000230B0E8F04F1EF0100F08BFB0EC108A80F33C
S315080002400988BFF36F8F704748000020EFF30580D9
S31508000250704700000648804706480047FEE7FEE765
S31508000260FEE7FEE7FEE7FEE7FEE7FEE7FEE7FEE758
S31508000270414600088901000840EA01039B0703D0AC
S3150800028009E008C9121F08C0042AFAD203E011F8C7
S31508000290013B00F8013B521EF9D27047D2B201E089
S315080002A000F8012B491EFBD270470022F6E710B56D
S315080002B013460A4604461946FFF7F0FF204610BDC6
S315080002C02DE9FE4F81EA030404F0004421F00041C1
S315080002D000944FF0000B23F0004350EA01045ED06F
S315080002E052EA03045BD0C3F30A54C1F30A552C44FB
S315080002F0A4F2F3340194A0FB0254C1F3130141F4B0
S315080003008011C3F3130343F4801301FB024400FB7B
S31508000310034E840A970A44EA815447EA8357A4FBA2
S31508000320076802958D0A05FB07854FEA932C04FB9F
S315080003300C542705029D4FEA065847EA1637B5EBCF
S3150800034008056EEB070C870E920E47EA811742EAFC
S315080003508312A7FB0201B6EB0B0164EB00042B0D1D
S3150800036043EA0C335E1844EB1C50DA465146E7FB69
S315080003700201C5F313044FEA0B3343EA14534FEA59
S315080003800432019C43EA0603A4F10C040294009C7F
S31508000390CDE900B400F0E8F803B0BDE8F08F00201E
S315080003A00146F9E72DE9F04D81EA030404F0004B14
S315080003B021F0004514464FF0000A23F0004150EAA8
S315080003C0050220D054EA01021DD0C5F30A57024699
S315080003D0C5F31303C1F31300C1F30A5640F480159D
S315080003E043F48013A7EB0608101BD64608F2FD381F
S315080003F073EB050002D308F1010801E092185B418E
S31508000400B8F1000F03DA00200146BDE8F08D0020A0
S315080004104FF48011064684460EE0171B73EB05075A
S3150800042005D3121B63EB050306434CEA010C490886
S315080004304FEA300092185B4150EA0107EDD152EAC3
S31508000440030012D082EA040083EA0501084305D0B6
S31508000450101BAB4106D20122002306E000224FF012
S31508000460004302E06FF0010253101AEB06004CEB52
S31508000470085110EB0A0041EB0B01BDE8F04D00F006
S3150800048064B80EB5C10F80EAE0700844CA070021B7
S3150800049040F233438DE80E000A460B4600F064F836
S315080004A003B000BD01F0004330B421F0004150EA2A
S315080004B0010206D00A0DA2F56072C1F31301002AE3
S315080004C002DC30BC00207047440F44EAC104C10076
S315080004D0E01830BC00EBC250AFF300800029A8BF7B
S315080004E07047401C490008BF20F00100704710B44F
S315080004F0B0FA80FC00FA0CF050EA010404BF10BC04
S31508000500704749B1CCF1200421FA04F411FA0CF130
S3150800051018BF012121430843A3EB0C01CB1D4FEA69
S3150800052000614FEA102042BF002010BC704700EB64
S31508000530C35010440029A4BF10BC7047401C490092
S3150800054008BF20F0010010BC704710B5141E73F1E7
S31508000550000408DA401C41F1000192185B411A4375
S3150800056001D120F0010010BD2DE9F04D92469B46C1
S3150800057011B1B1FA81F202E0B0FA80F22032904667
S3150800058000F052F804460F4640EA0A0041EA0B0119
S3150800059053465A46084313D0114653EA010019D068
S315080005A0C8F14002504600F04EF805460E46504641
S315080005B05946424600F038F8084305D0012004E0C1
S315080005C020463946BDE8F08D0020054346EAE07628
S315080005D02C4337430A986305E40AA0EB0800002277
S315080005E0FD0A44EA47540A3002D500200146E9E7E5
S315080005F0010510196941DDE9084500196941BDE899
S31508000600F04DA2E7064C074D06E0E06840F001030E
S3150800061094E8070098471034AC42F6D3FFF7B8FDC4
S31508000620C8860008E8860008202A04DB203A00FA73
S3150800063002F1002070479140C2F1200320FA03F32B
S31508000640194390407047202A04DB203A21FA02F029
S315080006500021704721FA02F3D040C2F120029140EE
S3150800066008431946704700000B4909680978AC2900
S315080006700FD109490968C979CE290AD106490968F5
S315080006804978054A1268927841EA022109B201803E
S3150800069001E0002101807047B800002010B503F082
S315080006A06DFE0349086003F02BFE0249086010BD81
S315080006B0AC000020B800002000BFFEE72DE9F0439B
S315080006C085B004460D4616461F464FF000084FF4FF
S315080006D00070009000208DF808008DF809000820A9
S315080006E08DF80A00200A8DF80B00E1B28DF80C107F
S315080006F0290A8DF80D10E9B28DF80E10310A8DF819
S315080007000F10F1B28DF81010390A8DF81110F9B2E0
S315080007108DF8121069460B4800F0D7FE814600BFD7
S3150800072003E008F101001FFA80F84946054800F081
S315080007305FFF18B940F6FF708045F2DB05B0BDE8EB
S31508000740F0830000006400402DE9F04385B00446BC
S315080007500D4616461F464FF0000840F2FF1000905F
S3150800076000208DF808008DF8090008208DF80A0089
S31508000770200A8DF80B00E1B28DF80C10290A8DF8C5
S315080007800D10E9B28DF80E10310A8DF80F10F1B27E
S315080007908DF81010390A8DF81110F9B28DF812106B
S315080007A069460B4800F091FE814600BF03E008F158
S315080007B001001FFA80F84946054800F019FF18B9E4
S315080007C040F6FF708045F2DB05B0BDE8F083000017
S315080007D0006400402DE9F0418AB004460D461646ED
S315080007E01F46DDF840800121082003F09BF901210E
S315080007F0480603F0A7F909220021344802F07AFADC
S3150800080009220121314802F075FA032001900220DD
S315080008108DF8080000208DF80A0003208DF80900DD
S3150800082001208DF80B0001A9284802F01BFA1420B4
S315080008308DF8000001208DF801008DF80300684648
S3150800084002F0AAFD224800F0F5FB07A800F02DFEED
S3150800085000208DF822008DF823008DF824008DF8ED
S3150800086025008DF8260001208DF827008DF81E80BA
S315080008708DF81F408DF820508DF82160ADF81C705A
S3150800088007A9134800F00FFD00208DF816008DF813
S31508000890170001208DF818000020ADF80C00ADF8FF
S315080008A00E00ADF81000ADF81200ADF814000120E6
S315080008B08DF8190003A800F0D9FB0122022104488B
S315080008C000F0E8FC0AB0BDE8F0810000000C024028
S315080008D00064004000B585B00221834800F04AFC58
S315080008E000286ED00221804800F05CFA7F497E48D5
S315080008F000F03CFA6A4600217B4800F05EFD40F2B3
S3150800090005220098811A904279D009DCA0F20120CC
S3150800091078B1012825D002283BD003286BD151E0B5
S31508000920012969D0062968D0072967D0FC29F5D19D
S31508000930D5E09DF80C009DF80B1000EB012000B2E5
S315080009406B4908809DF80E109DF80D0001EB0020FC
S3150800095000B267494880B1F90200664900F058FBC1
S31508000960BFE09DF80C009DF80B1000EB012000B2CB
S315080009705F4988809DF80E109DF80D0001EB002058
S3150800098000B25B49C880B1F906005B4900F040FB3C
S31508000990A7E09DF80C009DF80B1000EB012000B2B3
S315080009A0534908819DF80E109DF80D0001EB0020B3
S315080009B000B24F494881B1F90A00504900F028FBB6
S315080009C08FE08FE09DF80C009DF80B1000EB0120DE
S315080009D000B2474988819DF80E109DF80D0001EB7D
S315080009E0002000B24249C881B1F90E00444900F01E
S315080009F00FFB76E003E073E01DE038E053E09DF876
S31508000A000C009DF80B1040EA012000B23D49088011
S31508000A109DF80E109DF80D0041EA002000B23949F4
S31508000A2048800846B0F90220B0F90010364B242059
S31508000A3000F00CFA55E09DF80C009DF80B1040EA02
S31508000A40012000B22F4988809DF80E109DF80D00F0
S31508000A5041EA002000B22B49C8800846B0F90620B2
S31508000A60B0F90410294B132000F0F0F939E09DF88D
S31508000A700C009DF80B1040EA012000B221490881BC
S31508000A809DF80E109DF80D0041EA002000B21D49A0
S31508000A9048810846B0F90A20B0F908101C4B012015
S31508000AA000F0D4F91DE09DF80C009DF80B1040EA03
S31508000AB0012000B2134988819DF80E109DF80D009B
S31508000AC041EA002000B20F49C8810846B0F90E2055
S31508000AD0B0F90C100F4B132000F0B8F901E000E054
S31508000AE000BF00BF05B000BD00640040080000322A
S31508000AF0F42E0120142F01203B2F0120622F012004
S31508000B00892F0120042F0120B02F0120D72F012083
S31508000B10FE2F01202530012070B586B00446002539
S31508000B2040F2FF20019000208DF80C008DF80D0092
S31508000B3008208DF80E0000208DF80F0000218DF892
S31508000B4010108DF811108DF81210210A8DF8131057
S31508000B508DF8144000218DF815108DF8161001A98E
S31508000B60094800F0B2FC064600BF01E0681C85B2E1
S31508000B703146054800F03CFD18B940F6FF7085423D
S31508000B80F4DB06B070BD0000006400402DE9F041BA
S31508000B908AB004460D4616461F46DDF840800121F8
S31508000BA0022002F0BFFF0121880602F0CBFF0922CE
S31508000BB00521354802F09EF809220621324802F03E
S31508000BC099F86020019002208DF8080000208DF821
S31508000BD00A0003208DF8090001208DF80B0001A9F1
S31508000BE0294802F03FF840208DF8000002208DF8D1
S31508000BF0010001208DF80300684602F0CDFB23486A
S31508000C0000F018FA07A800F050FC00208DF8220022
S31508000C108DF823008DF824008DF825008DF8260020
S31508000C2001208DF827008DF81E808DF81F408DF85D
S31508000C3020508DF82160ADF81C7007A9134800F004
S31508000C4032FB0E208DF8160000208DF817000120C3
S31508000C508DF818000020ADF80C00ADF80E00ADF8C0
S31508000C601000ADF81200ADF8140001208DF8190037
S31508000C7003A800F0FBF901220221044800F00AFB50
S31508000C800AB0BDE8F0810000000402400068004098
S31508000C9000B585B00221154800F06CFA20B3022190
S31508000CA0124800F07FF86A460021104800F085FBDC
S31508000CB00098112818D19DF80B000D4908709DF869
S31508000CC00C0048709DF80D0088709DF80E00C870DD
S31508000CD09DF80F0008719DF8100048719DF81100E5
S31508000CE088719DF81200C87105B000BD0068004003
S31508000CF098000020F0B585B004460D4600260095FC
S31508000D0000208DF808008DF8090008208DF80A00E3
S31508000D1020788DF80B0061788DF80C10A1788DF885
S31508000D200D10E1788DF80E1021798DF80F10617984
S31508000D308DF81010A1798DF81110E1798DF812103F
S31508000D406946094800F0C1FB074600BF01E0701C70
S31508000D5086B23946044800F04BFC18B940F6FF70D5
S31508000D608642F4DB05B0F0BD0068004000220C4B5B
S31508000D70994202D10023836111E0C1F3130201F005
S31508000D8000730BB1C2600AE001F080630BB1026127
S31508000D9005E001F000630BB1826000E04260704735
S31508000DA07000F030B1F5007F3AD00FDC202928D04A
S31508000DB006DC01291CD004291DD0082940D11DE0D4
S31508000DC0402921D0B1F5807F3AD126E0B1F5004F10
S31508000DD031D006DCB1F5806F25D0B1F5006F2FD183
S31508000DE024E0B1F5803F12D0B1F5003F28D111E0DB
S31508000DF0154A826025E00822C26022E01022C260FD
S31508000E001FE0082202611CE01022026119E0082294
S31508000E10426016E01022426013E00422426010E0AD
S31508000E20042242600DE0042242600AE00022826148
S31508000E300422426005E0002282610422426000E04A
S31508000E4000BF00BF70470000010101002DE9F04115
S31508000E502DED088B07460D4690461C463E4604F186
S31508000E602100A4F82380B4F82300B4F82110401A0E
S31508000E7000B2A4F82500B4F82300A4F82100002D38
S31508000E8002DDB5F5005F02DD0220207501E00020D5
S31508000E90207541F65830854209DAB5F5FA6F06DD50
S31508000EA0002020706070A0700021E1700BE041F610
S31508000EB05830854202DD0120207004E0B5F5FA6F4E
S31508000EC001DA0120A0702078012804D1B5F5FA6F5F
S31508000ED001DA607008E0A078012805D141F658309B
S31508000EE0854201DD0121E170207801280ED1607864
S31508000EF001280BD1A088401C00B2A080A06800F58C
S31508000F000050A06000202070607011E0A0780128D1
S31508000F100ED1E07801280BD1A088401E00B2A0802F
S31508000F20A068A0F50050A0600020A0700021E17024
S31508000F30B4F90400002805DDB4F9040005EB4030D7
S31508000F40E0601FE0B4F90400002808DAB4F90400E8
S31508000F504FF40051C1EB40302844E06012E0A0880D
S31508000F6080B9A068B0F5005F07DDA5F50050B4F9B3
S31508000F70041000EB4130E06004E0A068B0F5005FC3
S31508000F8000DCE560A0687103884207DDA560E0889B
S31508000F90401C00B2E0800020A0802DE0A068002858
S31508000FA00CDA701E4FF4005101FB0050A060E08877
S31508000FB0401E00B2E0800020A0801DE0E068FFF738
S31508000FC060FA41EC190B7003FFF75BFA41EC1B0B57
S31508000FD053EC1B2B9FED0C0B51EC100BFFF7E2F9B2
S31508000FE041EC1A0B53EC192BFFF76AF941EC180B75
S31508000FF0FFF758FAC4F81500207D022800D000BF74
S31508001000BDEC088BBDE8F08100000000008076404A
S3150800101001F12102A1F82300B1F82320B1F821300B
S31508001020D21A12B2A1F82520B1F82320A1F821205E
S315080010307047000010B504460B48844209D10121C7
S31508001040480602F08FFD00214FF0007002F08AFD7D
S3150800105008E00121880602F085FD00214FF0806036
S3150800106002F080FD10BD00000064004010B50021AC
S31508001070837A012202FA03F13D4A126842F001021C
S315080010803B4B1A603A4A1C3212688A43384B1C3367
S315080010901A60027BCAB9364A0C3212688A43344B44
S315080010A00C331A604288C38842EA0343304A403206
S315080010B0847A42F834300288838842EA03432C4A09
S315080010C04032847A02EBC4025360027B012A19D1AA
S315080010D0274A0C3212680A43254B0C331A60428899
S315080010E0038842EA0343224A4032847A42F834307B
S315080010F0C288838842EA03431D4A4032847A02EB57
S31508001100C4025360C27A3AB9194A121D12688A4350
S31508001110174B1B1D1A6006E0154A121D12680A4372
S31508001120134B1B1D1A60028932B9114A1432126810
S315080011308A430F4B14331A600289012A06D10C4AD6
S31508001140143212680A430A4B14331A60427B012A86
S3150800115006D1074A1C3212680A43054B1C331A602B
S31508001160034A126822F00102014B1A6010BD000002
S315080011700066004070B504460D46002660692840A2
S31508001180002871D0B5F5807F5CD010DC082D35D0ED
S3150800119006DC012D20D0022D24D0042D72D127E0A3
S315080011A0102D31D0202D35D0402D6BD138E0B5F536
S315080011B0004F60D009DCB5F5007F49D0B5F5806FE2
S315080011C04CD0B5F5006F5DD14FE0B5F5803F2DD019
S315080011D0B5F5003F56D12FE0A0682D4901F012FA67
S315080011E0064651E0E068032101F00CFA06464BE09A
S315080011F0E068082101F006FA064645E0E068102195
S3150800120001F000FA06463FE02069032101F0FAF9E9
S31508001210064639E02069082101F0F4F9064633E06C
S315080012202069102101F0EEF906462DE060680821D4
S3150800123001F0E8F9064627E06068102101F0E2F9B6
S31508001240064621E0A069012101F0DCF906461BE00B
S31508001250A069022101F0D6F9064615E0A069042125
S3150800126001F0D0F906460FE00FE0A069702101F001
S31508001270C9F9064608E06068042101F0C3F9064684
S3150800128002E0FFE7002600BF00E00026304670BDFA
S31508001290010101001AB143690B43436102E0436946
S315080012A08B434361704730B502460020002314681B
S315080012B024F002041460146844F00104146000E089
S315080012C05B1C546804F001041CB94FF6FF74A34272
S315080012D0F6D1546804F001040CB900206CE08C794E
S315080012E0012C04D1146844F08004146003E01468E7
S315080012F024F080041460CC79012C04D1146844F0DD
S315080013004004146003E0146824F0400414600C7A66
S31508001310012C04D1146844F02004146003E0146816
S3150800132024F0200414604C7A012C04D1146844F08B
S315080013301004146003E0146824F0100414608C7A16
S31508001340012C04D1146844F00804146003E01468FE
S3150800135024F008041460CC7A012C04D1146844F0F3
S315080013600404146003E0146824F0040414608C7800
S31508001370A407CD7844EA05640D7944EA05444D7915
S3150800138044EA05540D886D1E2C43D461146824F074
S3150800139001041460002300E05B1C546804F0010497
S315080013A01CB14FF6FF74A342F6D1546804F0010449
S315080013B00CB1002000E0012030BD10B500F5D8734F
S315080013C003EB01131B6803F004031372137A53B972
S315080013D000F5D87303EB01131B6840F2FF7404EAA7
S315080013E05353136009E000F5D87303EB01131B6828
S315080013F06FF0604404EAD303536000F5D87303EB37
S3150800140001131B6803F00203537200F5D87303EB4C
S3150800141001135B6803F00F03937200F5D87303EBAF
S3150800142001135B681B0AD37400F5D87303EB011329
S315080014309B68D37200F5D87303EB01139B681C0AEB
S31508001440147300F5D87303EB01139B681C0C5473D3
S3150800145000F5D87303EB01139B681B0E937300F515
S31508001460D87303EB0113DB68D37300F5D87303EB6A
S315080014700113DB681C0A147400F5D87303EB011317
S31508001480DB681C0C547400F5D87303EB0113DB6896
S315080014901B0E937421B9C36843F02003C36003E0AD
S315080014A0036943F02003036110BD00218171C171F6
S315080014B0017241728172C1728170C170032101711A
S315080014C00221417101210180704710B502460020B2
S315080014D0936803F08063B3F1806F00D110E09368DE
S315080014E003F00063B3F1006F01D1012008E09368AF
S315080014F003F08053B3F1805F01D1022000E004209D
S31508001500042874D002F5C07303EB00131B6803F0BC
S31508001510010402F5C07303EB00131C600B7A7BB958
S315080015204B7A0C8843EA445302F5C07404EB001462
S315080015302468234302F5C07404EB0014236010E00A
S315080015400B7A4C6843EAC4034C7A234302F5C07409
S3150800155004EB00142468234302F5C07404EB00145A
S3150800156023608B7A03F00F038B7202F5C07303EBCB
S3150800157000135B6823F00F0402F5C07303EB001336
S315080015805C6002F5C07303EB00135B688C7A234337
S3150800159002F5C07404EB001463608B7B1C064B7B5E
S315080015A044EA03440B7B44EA0323CC7A234302F53B
S315080015B0C07404EB0014A3608B7C1C064B7C44EAC5
S315080015C003440B7C44EA0323CC7B234302F5C07413
S315080015D004EB0014E36002F5C07303EB00131B6809
S315080015E043F0010402F5C07303EB00131C6010BD41
S315080015F010B50246002321B1012907D002290FD1CF
S3150800160009E090681D4C00EA04030BE090681C4C46
S3150800161000EA040306E090681A4C00EA040301E0B5
S31508001620002300BF00BF184C181BA34216D007DCC6
S3150800163083B16FF08060184470B1022818D111E0A8
S31508001640B0F5007F10D0114C204448B1B0F5003FEA
S315080016500ED10BE002230DE000230BE0002309E086
S31508001660002307E0012305E0012303E0012301E04D
S31508001670002300BF00BFD8B210BD0000030000045D
S315080016800003000800000310000100080001FFF72E
S3150800169010B50648D0F89E2400219FED051ADFED07
S315080016A0040A9FED030A904710BD00008835012003
S315080016B000000000024803498968886070470000F6
S315080016C04D2D0008B834012070B504460D4646482D
S315080016D0007810B968B244490870434890F9000088
S315080016E0A84208D0012041490870002040490870E6
S315080016F068B23D49087041F27C506843C4F87903E2
S31508001700D4F82104B0F92300642819DCD4F821049C
S31508001710B0F9230010F1640F12DB35480078401C3D
S3150800172033490870084600783C2809DB02202F490F
S315080017300870D4F82104D0F81D00D4F821140861E3
S315080017402A480078022821D1D4F82104D0F81500B7
S3150800175000EE900AD4F82104006900EE100A04F29B
S31508001760D13001F071FED4F82104B0F9230001EE5E
S31508001770100AB8EEC11AF0EE410AD4F8110400EEC8
S31508001780100A04F2813001F05FFE15E0D4F8210456
S31508001790B0F9230001EE100AB8EEC11AF0EE410ABC
S315080017A0D4F8790301EE100AB8EEC11AB0EE410A70
S315080017B004F2813001F048FED4F8C12300EE102A65
S315080017C0BDEEC00A10EE102A11B2D4F8102300EEAE
S315080017D0102ABDEEC00A10EE102A10B2D4F87E64A4
S315080017E000231A46B04770BDC6000020C500002079
S315080017F0C400002038483949C8600020486088601D
S3150800180037480860002037498860374848603748B5
S3150800181008600020364988603648486036480860BF
S3150800182000203649886036484860364808600020F7
S31508001830354988603548486035480860002035498C
S315080018408860354848603548086000203449886013
S315080018503448486034480860002034498860344871
S315080018604860344808601C482149D1E90023896842
S31508001870C0E9002381602149D1E900238968C0E9CC
S31508001880062301621749D1E900238968C0E90323C1
S315080018904161264B0ECB24300EC03038204B0ECB80
S315080018A030300EC03C381E4B0ECB3C300EC00A49B9
S315080018B0184B0DCB48310DC10748194BD3E9002108
S315080018C09B68C0E916134265154BD3E900219B684E
S315080018D0C0E91913026670471C350120B834012087
S315080018E0FD450008C83401203534000811340008C5
S315080018F0D4340120A92E00088D2E0008E0340120DA
S31508001900795300085D530008EC340120D1430008E0
S31508001910B5430008F8340120B52F0008992F0008B0
S3150800192004350120B5160008911600081035012067
S31508001930A9420008A74200082DE9F0412DED048BC5
S3150800194086B00446B0EE408AF0EE608AB0EE419A60
S31508001950884600BF0020049005900025B5EEC09A81
S31508001960F1EE10FA1CD1B5EEC08AF1EE10FA04D1E8
S31508001970F5EEC08AF1EE10FA12D0D4F82604D0F8A3
S31508001980900000EE100AB1EE400AF0EE400A9FED14
S31508001990A00A04F22A4001F057FDB0EE409A07E08B
S315080019A0D4F82604D0F88800D4F82614C1F88C0098
S315080019B038EE280A30EE090AB1EE400ABDEEC00A32
S315080019C010EE100A606038EE680A30EE490ABDEE7D
S315080019D0C00A10EE100AC4F8B50038EE680A30EEF0
S315080019E0090AB1EE400ABDEEC00A10EE100AC4F8A4
S315080019F0660138EE280A30EE490ABDEEC00A10EE36
S31508001A00100AC4F81702606800EB800040006060A6
S31508001A10D4F8B50000EB80004100C4F8B510D4F83E
S31508001A20660100EB80004100C4F86611D4F817027D
S31508001A3000EB80004100C4F8171200262EE0B12101
S31508001A4001FB0641D1F8AC10B1F9231001EE101ACA
S31508001A50B8EEC11AF0EE410AB12101FB0641496808
S31508001A6001EE101AB8EEC11AB0EE410AB12101FB17
S31508001A70064101F10C0001F0E7FC684600EB860020
S31508001A8080ED000AB12000FB0640D0F8AC00B0F8A3
S31508001A90230004A921F81600701CC6B2042ECEDB5A
S31508001AA0042104A802F096F905461DB142F22E203B
S31508001AB085420BDC0098E0640199C4F8FD10029990
S31508001AC0C4F8AE110399C4F85F1271E0BDF81000AE
S31508001AD0A8B1BDF9100003F067FD00EE100AB8EED4
S31508001AE0C00ADDED000A60EE200A00EE105AB8EED4
S31508001AF0C01A80EE810A10EE100AE06401E0009830
S31508001B00E064BDF81200B0B1BDF9120003F04CFD57
S31508001B1000EE100AB8EEC00ADDED010A60EE200AF2
S31508001B2000EE105AB8EEC01A80EE810A10EE101AAE
S31508001B30C4F8FD1002E00199C4F8FD10BDF81400C0
S31508001B40B0B1BDF9140003F02FFD00EE100AB8EE8F
S31508001B50C00ADDED020A60EE200A00EE105AB8EE61
S31508001B60C01A80EE810A10EE101AC4F8AE1102E00F
S31508001B700299C4F8AE11BDF81600B0B1BDF9160049
S31508001B8003F012FD00EE100AB8EEC00ADDED030AF6
S31508001B9060EE200A00EE105AB8EEC01A80EE810AEE
S31508001BA010EE101AC4F85F1202E00399C4F85F1227
S31508001BB0D4F85FC200EE10CABDEEC00A10EE10CA15
S31508001BC00FFA8CF3D4F8AEC100EE10CABDEEC00A07
S31508001BD010EE10CA0FFA8CF2D4F8FDC000EE10CA47
S31508001BE0BDEEC00A10EE10CA0FFA8CF1D4F84CC03C
S31508001BF000EE10CABDEEC00A10EE10CA0FFA8CF03D
S31508001C00D4F87A74B84706B0BDEC048BBDE8F08109
S31508001C100000000010B519481949C1F8920419487E
S31508001C20C1F896041848C1F89E041848C1F8A204D9
S31508001C301748C1F8A6041748C1F8B2041648C1F8EF
S31508001C40AA041648C1F8AE041548C1F8BA041548DE
S31508001C50C1F8B60402F08EFB0949C1F88A040846A1
S31508001C60D0F89614884702F07DFB0549C1F88E0422
S31508001C70D1F892048047FEF711FD10BDF51700084C
S31508001C8088350120ED510008391900085D22000841
S31508001C90211E0008ED1C00081D1D0008C9160008B5
S31508001CA0112100086906000810B508210D4801F041
S31508001CB046F80D48D0F88A04C06A01EE100A0A48A8
S31508001CC0D0F88A04C06900EE900A0748D0F88A045A
S31508001CD0C06800EE100A0448D0F89E2400219047F8
S31508001CE010BD0000000802408835012070B5044682
S31508001CF09FED090A10EE101AC4F85F12C4F8AE1167
S31508001D00C4F8FD10E164D4F87A5400231A4619463B
S31508001D101846A84770BD00000000000070B50446CC
S31508001D200D463B48007810B968B2394908703848FA
S31508001D3090F90000A84208D0012036490870002012
S31508001D403549088068B2324908703148007810B9B8
S31508001D5068B22F49087041F27C506843C4F8C8023B
S31508001D60D4F87003B0F92300642814DCD4F870039F
S31508001D70B0F9230010F1640F0DDB27480088401CDA
S31508001D8000B2254908800846B0F900003C2802DB65
S31508001D900220204908701F480078022806D19FEDC6
S31508001DA01F0A10EE101AC4F8101319E01948007823
S31508001DB0012815D1D4F87003B0F9230001EE100AF2
S31508001DC0B8EEC11AF0EE410AD4F8C80201EE100ABC
S31508001DD0B8EEC11AB0EE410A04F5347001F034FBCE
S31508001DE0D4F8C12300EE102ABDEEC00A10EE102A60
S31508001DF011B2D4F8102300EE102ABDEEC00A10EE78
S31508001E00102A10B2D4F87E6400231A46B04770BD73
S31508001E10C3000020C2000020C0000020000000000F
S31508001E20F0B52DED048B87B00446B0EE408AF0EE8F
S31508001E30608AB0EE419A00BF002005900690002502
S31508001E409FEDB20AB0EE409AB5EEC08AF1EE10FAEE
S31508001E5013D0D4F82604D0F8900000EE900AF1EEDC
S31508001E60600AB0EE600A03F0A1FAF0EE409A03F0B9
S31508001E700FFB20EE080AB0EE408AF5EEC08AF1EEB6
S31508001E8010FA13D0D4F82604D0F8900000EE900A81
S31508001E90F1EE600AB0EE600A04F036F9F0EE409A08
S31508001EA003F0F6FA20EE280AF0EE408A38EE280A01
S31508001EB030EE090AB1EE400ABDEEC00A10EE100A6D
S31508001EC0606038EE680A30EE490ABDEEC00A10EEC8
S31508001ED0100AC4F8B50038EE680A30EE090AB1EE01
S31508001EE0400ABDEEC00A10EE100AC4F8660138EEC4
S31508001EF0280A30EE490ABDEEC00A10EE100AC4F8E8
S31508001F001702606800EB800040006060D4F8B500F6
S31508001F1000EB80004100C4F8B510D4F8660100EB68
S31508001F2080004100C4F86611D4F8170200EB80005F
S31508001F304100C4F8171200262EE0B12101FB064124
S31508001F40D1F8AC10B1F9231001EE101AB8EEC11A87
S31508001F50F0EE410AB12101FB0641496801EE101A6B
S31508001F60B8EEC11AB0EE410AB12101FB064101F1F2
S31508001F700C0001F069FA01A800EB860080ED000A62
S31508001F80B12000FB0640D0F8AC00B0F8230005A944
S31508001F9021F81600701CC6B2042ECEDB042105A853
S31508001FA001F018FF05461DB142F22E2085420BDCD2
S31508001FB00198E0640299C4F8FD100399C4F8AE11BB
S31508001FC00499C4F85F1271E0BDF81400A8B1BDF910
S31508001FD0140003F0E9FA00EE100AB8EEC00ADDEDC7
S31508001FE0010A60EE200A00EE105AB8EEC01A80EE1A
S31508001FF0810A10EE100AE06401E00198E064BDF879
S315080020001600B0B1BDF9160003F0CEFA00EE100ABC
S31508002010B8EEC00ADDED020A60EE200A00EE105A9C
S31508002020B8EEC01A80EE810A10EE101AC4F8FD1038
S3150800203002E00299C4F8FD10BDF81800B0B1BDF968
S31508002040180003F0B1FA00EE100AB8EEC00ADDED8A
S31508002050030A60EE200A00EE105AB8EEC01A80EEA7
S31508002060810A10EE101AC4F8AE1102E00399C4F8FA
S31508002070AE11BDF81A00B0B1BDF91A0003F094FA12
S3150800208000EE100AB8EEC00ADDED040A60EE200A7A
S3150800209000EE105AB8EEC01A80EE810A10EE101A39
S315080020A0C4F85F1202E00499C4F85F12D4F85FC25C
S315080020B000EE10CABDEEC00A10EE10CA0FFA8CF375
S315080020C0D4F8AEC100EE10CABDEEC00A10EE10CAB2
S315080020D00FFA8CF2D4F8FDC000EE10CABDEEC00AA5
S315080020E010EE10CA0FFA8CF1D4F84CC000EE10CAE4
S315080020F0BDEEC00A10EE10CA0FFA8CF0D4F87A7446
S31508002100B84707B0BDEC048BF0BD000000001644CC
S315080021102DE9F04104460E46D4F82604D0F890007E
S3150800212000EE100AB1EE400AF0EE400A9FED3D0AB5
S3150800213004F22A4001F088F9BDEEC00A10EE100A32
S3150800214000B2394908800846B0F90000304460609A
S315080021507042B1F900100144C4F8B5103248B0F91C
S3150800216000003118C4F8661170422F49B1F9001001
S315080021700144C4F81712002525E0B12101FB0541E9
S31508002180D1F8AC10B1F9231001EE101AB8EEC11A45
S31508002190F0EE410AB12101FB0541496801EE101A2A
S315080021A0B8EEC11AB0EE410AB12101FB054101F1B1
S315080021B00C0001F049F910EE100AB12101FB0541A6
S315080021C0C864681CC5B2042DD7DBD4F85FC200EE1C
S315080021D010CABDEEC00A10EE10CA0FFA8CF3D4F876
S315080021E0AEC100EE10CABDEEC00A10EE10CA0FFA54
S315080021F08CF2D4F8FDC000EE10CABDEEC00A10EE8F
S3150800220010CA0FFA8CF1D4F84CC000EE10CABDEE15
S31508002210C00A10EE10CA0FFA8CF0D4F87A74B847D0
S31508002220BDE8F08100000000BE000020FFF7F2FCC8
S3150800223011E0094BD3F88A341B68DA7A064BD3F8CF
S315080022408A341B68997A044BD3F88E0400F072FC22
S31508002250022004F07FF9ECE788350120F0B52DED72
S31508002260048B87B00446B0EE408AF0EE608AB0EE82
S31508002270419A00260020059006900025B5EEC09AE2
S31508002280F1EE10FA50D1DE48007820BBD4F82604C7
S31508002290D0F8900000EE100AB1EE400AF0EE400ABF
S315080022A0B3EE0E0A04F22A4001F0CEF8B0EE409AD8
S315080022B0D4F82604D0F8900000EE100AB1EE400AD1
S315080022C0F3EE040AB4EEE00AF1EE10FA34DB01206C
S315080022D0CB49087030E0CA48007801282CD1D4F8D8
S315080022E02604D0F8900000EE100AB1EE400AF0EE8F
S315080022F0400ABBEE0E0A04F22A4001F0A5F8B0EE39
S31508002300409AD4F82604D0F8900000EE100AB1EEF0
S31508002310400AFBEE040AB4EEE00AF1EE10FA0BD816
S315080023200020B749087007E0D4F82604D0F88800DA
S31508002330D4F82614C1F88C00B5EEC08AF1EE10FA6E
S3150800234013D0D4F82604D0F8900000EE900AF1EEE7
S31508002350600AB0EE600A03F029F8F0EE409A03F03E
S3150800236097F820EE080AB0EE408AF5EEC08AF1EE3C
S3150800237010FA13D0D4F82604D0F8900000EE900A8C
S31508002380F1EE600AB0EE600A03F0BEFEF0EE409A87
S3150800239003F07EF820EE280AF0EE408AB2EE040A30
S315080023A028EE000AF2EE040A08EEA00AF0EE000A89
S315080023B019EE600ABDEEC00A10EE100A6060B2EEB1
S315080023C0040A28EE000AF2EE040A08EEE00AF0EE25
S315080023D0000A09EE600ABDEEC00A10EE100AC4F83B
S315080023E0B500B2EE040A28EE000AF2EE040A08EE78
S315080023F0E00AF0EE000A19EE600ABDEEC00A10EE19
S31508002400100AC4F86601B2EE040A28EE000AF2EED3
S31508002410040A08EEA00AF0EE000A09EE600ABDEE0C
S31508002420C00A10EE100AC4F8170200262EE0B121E1
S3150800243001FB0641D1F8AC10B1F9231001EE101AD0
S31508002440B8EEC11AF0EE410AB12101FB064149680E
S3150800245001EE101AB8EEC11AB0EE410AB12101FB1D
S31508002460064101F10C0000F0EFFF01A800EB860021
S3150800247080ED000AB12000FB0640D0F8AC00B0F8A9
S31508002480230005A921F81600701CC6B2042ECEDB5F
S31508002490042105A801F09EFC05461DB142F22E2036
S315080024A085420BDC0198E0640299C4F8FD10039993
S315080024B0C4F8AE110499C4F85F1271E0BDF81400AF
S315080024C0A8B1BDF9140003F06FF800EE100AB8EED3
S315080024D0C00ADDED010A60EE200A00EE105AB8EED9
S315080024E0C01A80EE810A10EE100AE06401E0019835
S315080024F0E064BDF81600B0B1BDF9160003F054F853
S3150800250000EE100AB8EEC00ADDED020A60EE200AF7
S3150800251000EE105AB8EEC01A80EE810A10EE101AB4
S31508002520C4F8FD1002E00299C4F8FD10BDF81800C1
S31508002530B0B1BDF9180003F037F800EE100AB8EE8E
S31508002540C00ADDED030A60EE200A00EE105AB8EE66
S31508002550C01A80EE810A10EE101AC4F8AE1102E015
S315080025600399C4F8AE11BDF81A00B0B1BDF91A0046
S3150800257003F01AF800EE100AB8EEC00ADDED040AF8
S3150800258060EE200A00EE105AB8EEC01A80EE810AF4
S3150800259010EE101AC4F85F1202E00499C4F85F122C
S315080025A0D4F85FC200EE10CABDEEC00A10EE10CA1B
S315080025B00FFA8CF3D4F8AEC100EE10CABDEEC00A0D
S315080025C010EE10CA0FFA8CF2D4F8FDC000EE10CA4D
S315080025D0BDEEC00A10EE10CA0FFA8CF1D4F84CC042
S315080025E000EE10CABDEEC00A10EE10CA0FFA8CF043
S315080025F0D4F87A74B84707B0BDEC048BF0BD000078
S31508002600BC0000200246002002EA01030BB10120AB
S3150800261000E000207047000010B50949094800F09D
S315080026202DF901280BD10649064800F02DF8044972
S31508002630044800F043F80449044801F035FB10BD8E
S315080026400088001028640240B63201207933012040
S3150800265010B50949094800F011F901280BD10649B6
S31508002660064800F011F80449044800F027F8044920
S31508002670044801F019FB10BD008800208864024058
S31508002680B6320120793301200246094B9A4201D21B
S31508002690084801E00648103801F000531BB1064B04
S315080026A00B40C36002E0044B0B4083607047000098
S315080026B010640240006002407D0F7D0F0246094B00
S315080026C09A4201D2084801E00648103801F0005342
S315080026D01BB1064B0B40C36002E0044B0B40836002
S315080026E07047000010640240006002407D0F7D0FB5
S315080026F021B1026842F00102026003E0026822F09A
S315080027000102026070470000016821F001010160C2
S315080027100021016041608160C16001612121416140
S315080027204A49884204D13D21484A103A91608CE0D2
S3150800273046491831884205D14FF47461434A103A24
S31508002740916082E041493031884205D14FF47411D5
S315080027503E4A103A916078E03C494831884205D1B2
S315080027604FF07461394A103A91606EE0374960312A
S31508002770884204D13649354A103AD16065E0334972
S315080027807831884204D13349304A103AD1605CE046
S315080027902E499031884204D12F492C4A103AD160EB
S315080027A053E02A49A831884205D14FF03D51274ABE
S315080027B0103AD16049E02949884204D13D21274A87
S315080027C0083A116041E025491831884205D14FF48D
S315080027D07461224A083A116037E02049303188424C
S315080027E005D14FF474111D4A083A11602DE01B49B2
S315080027F04831884205D14FF07461184A083A116089
S3150800280023E016496031884204D11149134A121F40
S3150800281011601AE011497831884204D10D490F4AEE
S31508002820121F116011E00D499031884204D10A49FE
S315080028300A4A121F116008E00849A831884204D1E3
S315080028404FF03D51054A121F116070471060024053
S315080028503D000020400F002000003D20106402408B
S31508002860014600200A6802F001020AB1012000E0D0
S31508002870002070470146486880B2704730B5034665
S315080028800A46002000240B4DAB4201D20A4901E05A
S315080028900849103902F000550DB14C6800E00C6883
S315080028A0064D2C4004EA02050DB1012000E0002087
S315080028B030BD000010640240006002407D0F7D0FAD
S315080028C010B501F080034BB122B1436943F0800390
S315080028D0436103E0436923F08003436180290BD0F9
S315080028E02AB1036801F01E042343036004E0036869
S315080028F001F01E04A343036010BD000010B50022BA
S315080029000268134B1A40CC680B6823434C6923436F
S315080029108C692343CC6923430C6A23434C6A2343BB
S315080029208C6A23434C6B23438C6B23431A43026004
S31508002930426922F00702D1E90B3423431A43426164
S315080029400B6943604B6883608B68C36010BD0000E9
S315080029503F801CF04160704700B503460A4618469A
S3150800296002F022FE904200DA0023184600BD7047A6
S31508002970B7E05C48D0F88A040068B0F9000010F5A2
S31508002980257F0EDB5748D0F88A040068B0F90000A6
S31508002990B0F5257F05DC54480088401C00B2524932
S315080029A008805048D0F88A040068B0F9020010F58B
S315080029B0257F0EDB4B48D0F88A040068B0F9020080
S315080029C0B0F5257F05DC48480088401C00B246491A
S315080029D008804448D0F88A040068B0F9060010F563
S315080029E0257F0EDB3F48D0F88A040068B0F9060058
S315080029F0B0F5257F05DC3C480088401C00B23A4902
S31508002A0008803848D0F88A040068B0F9040010F540
S31508002A10257F0EDB3348D0F88A040068B0F9040035
S31508002A20B0F5257F05DC30480088401C00B22E49E9
S31508002A3008802C48D0F88A040068B0F9080010F518
S31508002A40257F0EDB2748D0F88A040068B0F908000D
S31508002A50B0F5257F05DC24480088401C00B22249D1
S31508002A6008802048D0F88A04006890F90A000128EE
S31508002A700DDB1C48D0F88A04006890F90A00032880
S31508002A8005DC19480088401C00B21749088015481B
S31508002A90D0F88A04006890F90B0001280DDB11486C
S31508002AA0D0F88A04006890F90B00032805DC0E4864
S31508002AB00088401C00B20C4908800B48008807288B
S31508002AC004D100F0DBF90020074908801F210748D8
S31508002AD000F037F98021064800F033F9C82003F0E2
S31508002AE039FD46E788350120E20000200010024043
S31508002AF0000402400022C2708270427002700021F7
S31508002B008160C1608180C1809FED090A10EE101AAC
S31508002B100161C0F81910C0F8151002210175A0F856
S31508002B20252000F12101A0F82320A0F821207047D4
S31508002B300000000070B504460D461646002D05DD5A
S31508002B40032D03DC002E01DD032E00DD70BD681E9B
S31508002B5000EBC000E16801EB8001701E00EB40004D
S31508002B6001EB8000A060D4E90020A1689047012805
S31508002B7002D1A16808688047A0686060A1684868B3
S31508002B808047A1688868804700BFDFE700B97047BB
S31508002B9010EE101A0160C16800EE901A016801EE85
S31508002BA0101A60EE810AC16801EE101AF7EE001AD3
S31508002BB071EEC11A416801EE101A41EE810A10EE53
S31508002BC0901A81608168416000BFE0E710EE101A34
S31508002BD0C160DFED040A10EE901A81604160016061
S31508002BE0704700000000000070B504460E46002538
S31508002BF007E07019225CE81D04F580710A54681C08
S31508002C00C5B2072DF5DB0C2104F5807002F0B6FA83
S31508002C10012822D140F20710015D94F8340161F3CE
S31508002C20030084F8340140F20710005D010994F8A6
S31508002C30340161F3071084F834014FF48470015DA0
S31508002C40401C005D41EA002104F59A70A4F835118C
S31508002C50002140F23710015503E0012140F23710F8
S31508002C60015570BDF0B50A4600210023002400BFB7
S31508002C703DE0012505FA01F3156805EA03049C42BF
S31508002C8034D105684F000326BE40B5430560157963
S31508002C904E00B5400668354305601579012D02D00A
S31508002CA01579022D16D185684F000326BE40B54317
S31508002CB0856055794E00B540866835438560456818
S31508002CC001268E40B5434560456896798E40B6B272
S31508002CD035434560C5684F000326BE40B543C56009
S31508002CE0D5794E00B540C6683543C560491C1029DC
S31508002CF0BFD3F0BDF0B5002300244D07ED0E02FA50
S31508002D0005F3CE1000F1200555F826504E07F70EAC
S31508002D100F26BE40B543CF1000F1200646F82750CF
S31508002D20CE1000F1200555F8265045EA0304CE10CA
S31508002D3000F1200545F82640F0BD41837047018320
S31508002D40704742694A4042617047000010B501F079
S31508002D507BFB0648D0F89E2400219FED051ADFED7F
S31508002D60040A9FED030A904710BD0000883501202C
S31508002D700000000030B5034613B94FF6FF7030BDAA
S31508002D8009E013F8014B82EA0400C0B2054D35F894
S31508002D90100080EA2222081EA1F10101F1D1104695
S31508002DA0EDE700006A76000830B5034605E013F83B
S31508002DB0010B80EA02040448025D081EA1F1010124
S31508002DC0F5D1104630BD0000697500084FF4FA7059
S31508002DD003F0C0FB054800F009FE05E0034800F0D3
S31508002DE061FD022003F0B6FBF8E70000463A012031
S31508002DF000BFFEE738B500F021F80F49086A80479A
S31508002E000D49486A80470C49086880470A49086995
S31508002E1080470020009008484469032307220421BC
S31508002E200020A04700200090034884690323072256
S31508002E3004210020A04738BD8B34012007480849E3
S31508002E400862084848620848C8610848086008488F
S31508002E50486108488861084808617047C93200080F
S31508002E608B340120E543000861470008394B000808
S31508002E70D50700088D0B0008954900084AF6AA20D0
S31508002E800149086070470000003000400548D0F846
S31508002E902604D0F888000349D1F82614C1F88C0016
S31508002EA07047000088350120024803498968886010
S31508002EB070470000A91C0008B834012010B51E4848
S31508002EC0D0F88A04C06D01EE100A1B48D0F88A04AF
S31508002ED0C06C00EE900A1848D0F88A04C06B00EE61
S31508002EE0100A1548D0F89E24002190471248D0F8B9
S31508002EF08A0490F8640000F0010020B108210F4808
S31508002F00FFF71DFF03E008210C48FFF716FF0A48E4
S31508002F10D0F88A0490F86400C0F3400030B106483F
S31508002F20D0F8AA244FF0FF31904704E00248D0F8C1
S31508002F30AA240121904710BD8835012000080240C7
S31508002F4010B5144AD2F88A2492F86420C2F3800194
S31508002F50104AD2F88A2492F86420C2F3001001F0CD
S31508002F605BFA0C48D0F88A04C06D01EE100A0948CD
S31508002F70D0F88A04C06C00EE900A0648D0F88A0495
S31508002F80C06B00EE100A0348D0F89E240021904733
S31508002F9010BD0000883501200548D0F82604D0F871
S31508002FA088000349D1F82614C1F88C007047000040
S31508002FB0883501200848D0F88A0490F86400C0F3E0
S31508002FC0C00020B1054806498968886003E00548BD
S31508002FD0034989688860704788350120412F0008B1
S31508002FE0B8340120BD2E000810B5B4480068B0F802
S31508002FF01D4004F0010050B1B0480068B0F8130055
S315080030000A3001B2AD480068A0F8131012E004F0C7
S31508003010020050B1A9480068B0F813000A3801B296
S31508003020A6480068A0F8131004E00021A348006829
S31508003030A0F8131004F0040050B1A0480068B0F8D6
S3150800304015000A3801B29D480068A0F8151012E06C
S3150800305004F0080050B199480068B0F815000A3025
S3150800306001B296480068A0F8151004E000219348BC
S315080030700068A0F8151091480068B0F90D0000EE38
S31508003080100AB8EEC00AF1EE040A20EE200ABDEED8
S31508003090C00A10EE100A01B288480068A0F8191094
S315080030A086480068B0F90F0000EE100AB8EEC00AAC
S315080030B0F1EE040A20EE200ABDEEC00A10EE100A50
S315080030C001B27E480068A0F81710B4F5005F3CD03E
S315080030D008DC802C65D0B4F5006F0AD0B4F5805FA3
S315080030E075D11CE0B4F5804F45D0B4F5004F6ED1CC
S315080030F06EE07348007888B1704890F8640000F074
S315080031000100C0F101006D4991F8641060F30001F7
S315080031106A4880F8641000206949087072E06848B7
S31508003120007888B1654890F86400C0F34000C0F1A3
S315080031300100624991F8641060F341015F4880F824
S31508003140641000205E4908705CE05D48007888B12C
S315080031505A4890F86400C0F30010C0F101005749BE
S3150800316091F8641060F30411544880F86410002044
S315080031705349087046E05248007888B14F4890F89D
S315080031806400C0F38000C0F101004C4991F8641056
S3150800319060F38201494880F86410002048490870A5
S315080031A030E04748007888B1444890F86400C0F396
S315080031B04010C0F10100414991F8641060F34511CF
S315080031C03E4880F8641000203D4908701AE015E072
S315080031D03B48007888B1394890F86400C0F3C000CD
S315080031E0C0F10100354991F8641060F3C301334812
S315080031F080F8641000203249087003E00120304945
S31508003200087000BF00BF2D490968B1F913002D4A9F
S31508003210514202F0CEF929490968A1F81300274955
S315080032200968B1F91500274A514202F0C2F9234943
S315080032300968A1F8150021490968B1F91700214A5A
S31508003240514202F0B6F91D490968A1F817001B4951
S315080032500968B1F919001B4A514202F0AAF917493F
S315080032600968A1F8190015480068B0F9130000EEBE
S31508003270900AF8EEE00AB0EE600A10483430FFF71C
S3150800328085FC0E480068B0F9150000EE900AF8EEC5
S31508003290E00AB0EE600A09484430FFF777FC0748B1
S315080032A00068B0F9190000EE900AF8EEE00AB0EEF0
S315080032B0600A02485430FFF769FC10BD1433012038
S315080032C0C70000206CFDFFFF1CB50121102000F08F
S315080032D029FC0121022000F025FC01208DF80400BC
S315080032E000208DF8060003208DF8050001208DF8D2
S315080032F007001F20009069460A48FFF7B3FC8020A4
S31508003300009069460848FFF7ADFC07210548FFF716
S3150800331016FD18210348FFF710FD80210248FFF724
S315080033200CFD1CBD001002400004024000BFFEE771
S3150800333010B50446002060806070207060609FEDC4
S31508003340140A10EE100AA0609FED112ADFED101A7C
S315080033509FED0F1ADFED0E0A9FED0D0A04F10C0022
S3150800336000F022F99FED0A2ADFED091A9FED081AE7
S31508003370DFED070A9FED060A04F15C0000F014F978
S31508003380D4F8AC00FFF7B6FB0B2084F8B00010BDEC
S31508003390000000007047000070B5002100230F22CE
S315080033A0C4781CB3174C246804F4E064C4F5E064DC
S315080033B0C4F30721C1F10404E3B20A4144789C40EE
S315080033C0E1B28478144021430C07210E0E4C05788F
S315080033D06155047804F01F050124AC4005786D1189
S315080033E0AD0005F1E025C5F8004109E0047804F0D0
S315080033F01F050124AC40054D0678761145F8264090
S3150800340070BD00000CED00E000E400E080E100E0A3
S315080034109FED060A10EE101A0548C0F85F12C0F8AC
S31508003420AE11C0F8FD10C16470470000000000002E
S31508003430883501200248034989688860704700007A
S31508003440153B0008B8340120B0EE401A10B99FEDBC
S31508003450550A704711EE101A016010EE901A416075
S31508003460C16901628169C161016800EE101A41688B
S3150800347001EE901A30EE610A10EE101A8161416A67
S3150800348000EE101A816901EE901A30EE210A10EE4C
S31508003490101A4162C16A0163816AC162816900EEDC
S315080034A0101AC16901EE901A30EE610A10EE101A70
S315080034B08162C16800EE101A816901EE901A20EE49
S315080034C0210A10EE101A4163016900EE101A416ACA
S315080034D001EE901A20EE210A10EE101A8163416956
S315080034E000EE101A816A01EE901A20EE210A10EEFB
S315080034F0101AC163816B00EE101A816C01EE901AE6
S31508003500B4EEE10AF1EE10FA01DB816C8163816B9E
S3150800351000EE101A816C01EE901AF1EE611AB4EE03
S31508003520E10AF1EE10FA07D8816C00EE101AB1EE36
S31508003530400A10EE101A8163416B00EE101A816B77
S3150800354001EE901A70EE211AC16B00EE101A31EED8
S31508003550800A10EE101A0164016C00EE101A416C14
S3150800356001EE901AB4EEE10AF1EE10FA03DB416CB3
S3150800357000EE101A6DE7016C00EE101A416C01EEB0
S31508003580901AF1EE611AB4EEE10AF1EE10FA05D8D6
S31508003590416C00EE101AB1EE400A5AE7016C00EED3
S315080035A0101A56E70000000000B9704710EE101A0E
S315080035B0C16010EE901A016111EE101A416111EE08
S315080035C0901A816412EE101A4164DFED102A12EE89
S315080035D0901A8161C1610162DFED0C2A12EE901A20
S315080035E08162C1620163DFED092A12EE901A416217
S315080035F0816041600160DFED052A12EE901A0164D0
S31508003600C1638163416300BFCFE70000000000008B
S31508003610F8B504460E46002507E07019225CE81D39
S3150800362004F580710A54681CC5B2142DF5DB1921FE
S3150800363004F5807001F0A2FD012857D140F2071069
S31508003640015D401C005D41EA0020A4F87C0140F2BF
S315080036500910015D401C005D41EA002104F5BE70B9
S31508003660A4F87E1140F20B10005D8DF800004FF4AF
S315080036708670005D8DF8010040F20D10005D8DF832
S3150800368002004FF48770005D8DF803000098C4F8B7
S31508003690800140F20F10015D401C005D41EA0021E7
S315080036A004F5BE70A4F8841140F21110015D401CA7
S315080036B0005D41EA002104F5BE70A4F8861140F2C7
S315080036C01310015D401C005D41EA002104F5BE703F
S315080036D0A4F8881140F21510015D401C005D41EA0E
S315080036E0002104F5BE70A4F88A1103E001214FF405
S315080036F0C6700155F8BD00002DE9F0412DED068B89
S3150800370006460025B8E05F48405D55287ED15D49EC
S3150800371005F10B00085C5528F8D105F11600085C80
S315080037205528F3D105F11700085C53286ED105F129
S315080037301604A01C085CA8300A46E11C515C01442A
S31508003740201D105C0144601D105C0144A01D105C26
S315080037500144E01D105C014404F10800105C0144BA
S3150800376004F10900105C0844C7B2114604F10A00C6
S31508003770085CB84203D0BDEC068BBDE8F081414A2F
S31508003780A11D525C3F4BE11D595C42EA0120FCF742
S3150800379078FE41EC1A0B9FED3C0B53EC102BFCF713
S315080037A001FE41EC190B9FED3A0B53EC102BFCF77D
S315080037B087FD41EC180BFCF775FE3249C1F8880005
S315080037C00846D0F8880000EE100A0846D0F88C00A3
S315080037D000EE900A30EE600A10EE100AC1F890006A
S315080037E00846D0F8900000EE100ADFED2B0AB4EE7A
S315080037F0E00AF1EE10FA18DD0846D0F8880000EE67
S31508003800100ADFED260A70EEC00A00E032E008462C
S31508003810D0F88C0000EE100A30EE800AB1EE400AAD
S3150800382010EE100AC1F8900020E01648D0F8900073
S3150800383000EE100ADFED1A0AB4EEE00AF1EE10FA0D
S3150800384014D21048D0F8880000EE100ADFED130AEB
S3150800385070EE200A0B48D0F88C0000EE100A30EE05
S31508003860C00A10EE100A0749C1F890000120054960
S3150800387081F89400681CC5B2B542FFF644AF00BF94
S3150800388079E700007D300120000000000000E040DC
S315080038900000000000806640000096430000B44324
S315080038A0000096C370B52DED028B0446D4F862016C
S315080038B0C06808EE100AD4F86201C06908EE900ADA
S315080038C0B5EEC08AF1EE10FA17D0D4F8AC00B0F90C
S315080038D0230000EE100AB8EEC00AF0EE400AB0EE79
S315080038E0480A04F10C00FFF7AFFDD4F8AC00D0F895
S315080038F01D00D4F8AC10086120E0D4F8AC00D0F86C
S31508003900150000EE900AD4F8AC00006900EE100A23
S3150800391004F15C00FFF798FDD4F8AC00B0F9230079
S3150800392001EE100AB8EEC11AF0EE410AD4F89C006E
S3150800393000EE100A04F10C00FFF786FDF5EEC08ACA
S31508003940F1EE10FA17D0D4F85D01B0F9230000EEB5
S31508003950100AB8EEC00AF0EE400AB0EE480A04F1C2
S31508003960BD00FFF771FDD4F85D01D0F81D00D4F84D
S315080039705D11086120E0D4F85D01D0F8150000EE6D
S31508003980900AD4F85D01006900EE100A04F20D10E1
S31508003990FFF75AFDD4F85D01B0F9230001EE100ACD
S315080039A0B8EEC11AF0EE410AD4F84D0100EE100A3D
S315080039B004F1BD00FFF748FDD4F8FD0000EE100A3B
S315080039C0BDEEC00A10EE100A03B2E06C00EE100A53
S315080039D0BDEEC00A10EE100A02B2D4F866510021F4
S315080039E00846A847BDEC028B70BD000010B504461A
S315080039F04348C4F866014348C4F86A012046FFF7FD
S31508003A0097FC04F1B100FFF793FC00F0B3FCC4F88F
S31508003A106201082000F078FCC4F8AC00072000F02A
S31508003A2073FCC4F85D01082020709FED372ADFED8E
S31508003A30361A9FED351ADFED340AB7EE000A04F19F
S31508003A405C00FFF7B1FD9FED302ADFED2F1A9FEDE1
S31508003A502E1ADFED2D0AB1EE000A04F10C00FFF76D
S31508003A60A3FD54F8AC0FD0F8150044F8A40C206850
S31508003A70D0F815002168C1F819002068D0F815009B
S31508003A8021680861132024F8AA0C07206071AC3C51
S31508003A909FED1D2ADFED1C1A9FED1B1ADFED1A0A92
S31508003AA09FED1A0A04F20D10FFF77EFD9FED162A08
S31508003AB0DFED151A9FED161ADFED130AB0EE080AA8
S31508003AC004F1BD00FFF770FDD4F85D01D0F81500CC
S31508003AD0C4F8B900D4F85D01D0F81500D4F85D1122
S31508003AE0C1F81900D4F85D01D0F81500D4F85D11B5
S31508003AF00861012104F1B100A4F8B31010BD00005B
S31508003B0049070008190B00080000000000002042C1
S31508003B100AD7233C10B50248D0F8B214884710BD1E
S31508003B208835012029B1064A12680243044B1A60F7
S31508003B3004E0034A12688243014B1A60704700008A
S31508003B403038024029B1064A12680243044B1A600B
S31508003B5004E0034A12688243014B1A60704700006A
S31508003B604038024029B1064A12680243044B1A60DB
S31508003B7004E0034A12688243014B1A60704700004A
S31508003B802038024029B1064A12680243044B1A60DB
S31508003B9004E0034A12688243014B1A60704700002A
S31508003BA04438024029B1064A12680243044B1A6097
S31508003BB004E0034A12688243014B1A60704700000A
S31508003BC024380240F0B500210022002402250026F0
S31508003BD00223324F3F6807F00C0121B1042905D0B2
S31508003BE0082937D105E02E4F076036E02C4F0760CD
S31508003BF033E02A4F3F1F3F68C7F38056274F3F1FC2
S31508003C003F6807F03F036EB1254FB7FBF3F7DFF8C0
S31508003C108CC0ACF1040CDCF800C0CCF3881C07FBA4
S31508003C200CF40CE01E4FB7FBF3F7DFF870C0ACF1ED
S31508003C30040CDCF800C0CCF3881C07FB0CF4174F07
S31508003C403F1F3F68C7F301477F1C7D00B4FBF5F7AC
S31508003C50076002E0124F076000BF00BF0F4F3F68C2
S31508003C6007F0F00109090F4F7A5C0768D7404760EB
S31508003C700A4F3F6807F4E051890A0A4F7A5C476899
S31508003C80D7408760054F3F6807F46041490B054FE9
S31508003C907A5C4768D740C760F0BD00000838024024
S31508003CA040787D011400002000B101B97047484AE8
S31508003CB01278474B5B7842EA0322C2F30A020A806B
S31508003CC0434A5278D210424B9B7842EA4312C2F3D7
S31508003CD00A024A803E4A927892113D4BDB7842EAC4
S31508003CE083023B4B1B7942EA8322C2F30A028A808B
S31508003CF0374A12795210364B5B7942EAC312C2F33D
S31508003D000A02CA80324A5279121192088A72304AD5
S31508003D105279C2F30112CA722D4A127C2C4B5B7C73
S31508003D2042EA0322C2F30A020A81294A9279284BF7
S31508003D30DB7942EA032212B2A1F80D20244A127A4C
S31508003D40234B5B7A42EA032213B201F10D02A1F872
S31508003D500F301F4A927A1E4BDB7A42EA032213B2CD
S31508003D6001F10D02A1F81130194A137BCB76537B6A
S31508003D700B77927B164BDB7B42EA032301F10D029C
S31508003D80A1F81D30124A127C114B5B7C42EA0322D1
S31508003D9012B20A810A88A2F5806212B20A804A889B
S31508003DA0A2F5806212B24A808A88A2F5806212B2AF
S31508003DB08A80CA88A2F5806212B2CA800A89A2F5E8
S31508003DC0806212B20A8101220A7300BF6EE7000000
S31508003DD07933012010B502460B46B2F9000001F00E
S31508003DE0E3FB044601201049088016E00E49B1F9A4
S31508003DF0001032F9110001F0D7FBA04207DD0A498D
S31508003E00B1F9001032F9110001F0CEFB044606485C
S31508003E100088401C00B2044908800348B0F9000035
S31508003E209842E3DB204610BDE000002070B504464A
S31508003E300E46002507E07019225CE81D04F580711E
S31508003E400A54681CC5B2162DF5DB1B2104F58070D3
S31508003E5001F094F901287DD140F20710005D84F83D
S31508003E6069014FF48470015D4FF4B570015540F255
S31508003E700910015D401C005D41EA002104F2691049
S31508003E80A4F86B1140F20B10015D401C005D41EA7D
S31508003E90002104F26910A4F86D1140F20D10015DBD
S31508003EA0401C005D41EA002104F26910A4F86F1174
S31508003EB040F20F10015D401C005D41EA002104F24A
S31508003EC06910A4F8711140F21110015D401C005DE3
S31508003ED041EA002104F26910A4F8731140F21310A4
S31508003EE0015D401C005D41EA002104F26910A4F856
S31508003EF0751140F21510015D40F2771001554FF427
S31508003F008B70015D4FF4BC70015540F21710015DCE
S31508003F1040F2791001554FF48C70015D4FF4BD7075
S31508003F20005D61F300004FF4BD7108554FF48C70C5
S31508003F30005D41084FF4BD70005D61F341004FF428
S31508003F40BD7108554FF48C70005D81084FF4BD7043
S31508003F50005D00E009E061F382004FF4BD71085589
S31508003F60002140F27B10015503E0012140F27B104D
S31508003F70015570BD10B524490968B1F900000A2138
S31508003F80FEF7EAFC2049096808801F490968B1F963
S31508003F9002000A21FEF7E0FC1B49096848801A4915
S31508003FA00968B1F904000A21FEF7D6FC1649096822
S31508003FB0888015480068B0F9020000EE900AF8EE0D
S31508003FC0E00AB0EE600A1048001DFEF7DFFD0E4855
S31508003FD00068B0F9000000EE900AF8EEE00AB0EECC
S31508003FE0600A09481430FEF7D1FD07480068B0F9A1
S31508003FF0040000EE900AF8EEE00AB0EE600A024805
S315080040002430FEF7C3FD10BD1433012070B50446F5
S31508004010002585E0605DA5282ED10521204601F002
S31508004020CDF801287AD1681C215CA81C205C41EADD
S31508004030002000B2A4F82F01681D215CA81D205C91
S3150800404041EA002000B2A4F83101002606E0701902
S31508004050215C04F580708155701CC6B2072EF6DB0C
S31508004060B4F83101012808D1E81DC1B22046FEF78F
S31508004070BBFD05F10B00C5B250E0B4F831010328C9
S315080040804CD0B4F83101042848D0B4F9310140F2D3
S315080040900111884242D0B4F93101B0F5817F3DD093
S315080040A0B4F93101091D884238D0B4F9310140F21A
S315080040B00121884208D1E81DC1B22046FFF7B6FEA5
S315080040C005F11A00C5B229E0B4F9310140F202211E
S315080040D0884208D1E81DC1B22046FFF799FA05F1D2
S315080040E01800C5B21AE0B4F93101B0F5017F15D050
S315080040F0B4F9310140F2052188420FD0B4F93101F3
S31508004100491C88420AD0B4F93101491C884205D0B5
S31508004110B4F93101B0F5027F00D000BF681CC5B202
S31508004120B4F92D01A8423FF775AF0020014981F87F
S31508004130330170BD1231012010B51148006890F99D
S315080041400A0010490978884201D000F055F80C4851
S315080041500068007B68B10A480068807A032802D1A3
S31508004160FEF742FF01E0FFF705FF00200449096852
S31508004170087303480068807A0249087010BD000079
S3150800418014330120C800002010B500F035F80220CD
S3150800419017490968C8721649096888729FED150A91
S315080041A01348001DFEF712FD9FED120A1048143041
S315080041B0FEF70CFD9FED0F0A0D482430FEF706FDAD
S315080041C09FED0C0A0A483430FEF700FD9FED090AF8
S315080041D007484430FEF7FAFC9FED060A04485430B7
S315080041E0FEF7F4FC00F0CAF80149086010BD0000AB
S315080041F0143301200AD7A33D002025490968C88041
S31508004200234909688880224909684880204909683D
S3150800421008801F49096808731D4909680881002133
S315080042201B480068A0F8111019480068A0F80F107C
S3150800423017480068A0F80D1015480068017714485B
S315080042400068C17612480068A0F81D10104890F85A
S31508004250640020F002000E4981F8640041080C4809
S3150800426090F8640061F38200094981F864008108C6
S31508004270074890F8640061F30000054981F8640076
S31508004280084690F8640020F0100081F86400704732
S3150800429014330120FFF778FF04E0FFF74DFF0220F3
S315080042A002F058F9F9E770470248034989688860B7
S315080042B070470000BD420008B834012010B52DED46
S315080042C0028B0E48D0F88A040068B0F9000000EEA8
S315080042D0100AB8EEC00AF2EE040A20EE200AB0EE82
S315080042E0408A0648D0F8AE24BDEEC80A10EE100A79
S315080042F001B202489047BDEC028B10BD88350120FB
S3150800430000487047980000200146092916D2DFE8C0
S3150800431001F0150507090B0D0F1113000948704721
S315080043200948FCE70948FAE70948F8E70948F6E7BB
S315080043300948F4E70948F2E70948F0E700BF00BF73
S315080043400020ECE7142F01203B2F0120622F0120CB
S31508004350892F0120B02F0120D72F0120FE2F012001
S315080043602530012000487047B834012000487047BE
S315080043707D300120004870471433012000487047FB
S31508004380B632012010B50948D0F88A04C06900EE93
S31508004390900A0648D0F88A04C06800EE100A034856
S315080043A0D0F8A6149FED021A884710BD883501205B
S315080043B0000000000548D0F82604D0F88800034914
S315080043C0D1F82614C1F88C00704700008835012002
S315080043D002480349896888607047000085430008D9
S315080043E0B83401201CB501210420FFF79BFB0120EE
S315080043F08DF8040000208DF8060003208DF80500CE
S3150800440000208DF807000820009069460148FEF74D
S3150800441029FC1CBD0008024070B505460C460A205A
S31508004420084908700846457084700020C8700871ED
S3150800443048718871CE20C87140F203410148FCF7E3
S3150800444059FC70BDB000002010B5274800680078F8
S3150800445026490870244800680088000A48702248DF
S31508004460006880788870204800684088000AC8700C
S315080044701D480068007908711B4800688088000A92
S315080044804871194800688079887117480068C0889B
S31508004490000AC87140F201411448FCF72BFC124887
S315080044A00068007A114908700F4800680089000AF8
S315080044B048700D480068807A88700B480068C07A92
S315080044C0C87009480068407F087107480068B0F856
S315080044D01D000012487100208871C87140F202411F
S315080044E00248FCF707FC10BDAC000020B000002015
S315080044F00CB50020019000903448006840F48030E4
S315080045003249086000BF3148006800F40030009066
S315080045100198401C0190009818B90198B0F5A04F71
S31508004520F1D12A48006800F4003010B1012000904B
S3150800453001E0002000900098012846D12348403029
S31508004540006840F0805021494031086020480068E2
S3150800455040F440401E4908601C48083000681B4962
S31508004560083108600846006840F4004008600846BC
S31508004570006840F4A05008601648091F0860081F24
S31508004580006840F08070091F086000BF0F48006887
S3150800459000F000700028F9D040F205700E49086056
S315080045A00A480830006820F0030008490831086006
S315080045B00846006840F00200086000BF034808305B
S315080045C0006800F00C000828F8D10CBD003802403D
S315080045D00070004019544007003C024010B50446DC
S315080045E001F09EFE00F07EF90348006801F0E0FF46
S315080045F001F0C0FE10BD0000E400002002468A4219
S3150800460001D0012070470020FCE7000010B500BF6C
S31508004610502080F31188BFF34F8FBFF36F8F00BF11
S3150800462002F05EFD18B14FF080500449086000BFE3
S31508004630002080F3118800BF10BD000004ED00E0E3
S3150800464010B51548006840F470001349086013480F
S31508004650006840F001001149086000200F49083140
S3150800466008600E4800680E4908400C4908600D4865
S31508004670091D0860081F006820F48020091F0860CB
S31508004680002006490C310860FFF732FF4FF0006042
S3150800469001498039086010BD88ED00E00038024005
S315080046A0FFFFF6FE1030002410B50121264800F061
S315080046B094F8012843D125480088401C00B22349B4
S315080046C008800846B0F90000B0F57A7F1CDB204860
S315080046D00078404240B21E49087000201B490880F5
S315080046E01C480088401C00B21A4908800846B0F9E0
S315080046F000003C2808DB18480088401C00B2164910
S3150800470008800020134908801148007801280DD137
S315080047100E48B0F90000502190FBF1F201FB12009F
S3150800472068B980210D48FEF70CFB08E0084890F9A7
S315080047300000401C18B980210848FEF700FB01213B
S31508004740014800F03BF810BD00040040A00000201E
S31508004750A6000020A2000020A400002000100240AD
S315080047607FB505460C4601210220FFF7EBF9681EC6
S3150800477080B2ADF804000020ADF80600ADF80C00D4
S31508004780601E029001A90C4800F042F81D208DF821
S31508004790000008208DF8010001208DF80300684606
S315080047A0FEF7FAFD01221146034800F027F8012119
S315080047B0014800F006F87FBD00040040CA430282A3
S315080047C0704721B1028842F00102028004E00288A3
S315080047D04FF6FE731A400280704730B50246002035
S315080047E000230024158A05EA0103958905EA0104D0
S315080047F013B10CB1012000E0002030BD1AB1838945
S315080048000B43838102E083898B43838170470000D1
S3150800481000220288184B98420ED0184B98420BD0AB
S31508004820B0F1804F08D0164B984205D0154B9842E8
S3150800483002D0154B984204D14FF68F731A404B8815
S315080048401A43124B984207D0114B984204D04FF6A0
S31508004850FF431A400B891A4302804B68C3620B88D0
S315080048600385054B984202D0044B984201D18B7AB6
S31508004870038601238382704700000140000401403B
S315080048800004004000080040000C004000100040F2
S315080048900014004000F07F0200EE102AB8EEC00AAD
S315080048A0F0EE400A00EE101AB8EE400AB0EE401AD2
S315080048B000F0800252B1DFED091AB0EE410A00EEAF
S315080048C0A10ADFED071A30EE610A7047B0EE410A19
S315080048D0DFED021A00EEA10AF7E7000000008043A8
S315080048E0000000471CB51648082100234A01CDE9F7
S315080048F0001014A1164802F0ADFB16480621002345
S315080049004FF48072CDE9001013A1174802F0A2FBFC
S315080049101648072100234FF48072CDE9001014A130
S31508004920164802F097FB16480B2100234FF48072B5
S31508004930CDE9001013A1164802F08CFB1CBD00003F
S31508004940D000002052656D6F74655F5461736B000B
S3150800495095420008CC000020436861737369735F51
S315080049605461736B000000002D220008D40000205B
S3150800497047696D62616C5F5461736B00CD2D0008E9
S31508004980D80000204465746563745F5461736B00D6
S315080049907129000800B597B001214148FFF7C2F810
S315080049A00121C804FFF7CEF808220A213D48FEF780
S315080049B0A1F908220B213B48FEF79CF94FF4406009
S315080049C0159002208DF8580000208DF85A00022014
S315080049D08DF8590001208DF85B0015A93148FEF7BE
S315080049E041F9314800F018FA4FF4E13010900020F0
S315080049F0ADF84400ADF84600ADF848000C20ADF817
S31508004A004A000020ADF84C0010A9274800F0CCFA5F
S31508004A1034208DF8500001208DF8530006208DF8BB
S31508004A20510014A8FEF7B8FC012240F224411E48A2
S31508004A3000F094FA01211C4800F0D8F91B48FDF74C
S31508004A4063FE4FF0006001901748001D0290184859
S31508004A5003900020049040200590002006904FF413
S31508004A60806007900020089009904FF480700A90A3
S31508004A704FF440300B9000200C900D900E900F9044
S31508004A8001A90A48FDF73AFF01210848FDF730FE5B
S31508004A9001224021044800F0B5F917B000BD000016
S31508004AA00400200000080240004C0040406002401C
S31508004AB04B34012070B5002540F224411A4800F015
S31508004AC023FA80B300211948FDF712FE00BF1748E4
S31508004AD0FDF7C6FE0028FAD113480088C5B2124869
S31508004AE0001D0088C5B211484830FDF7C3FEC0F165
S31508004AF04000C5B2002405E00D48005D0D49085583
S31508004B00601C84B2AC42F7DB02200A4981F89400A3
S31508004B102846FEF7F1FD40210448FDF71BFF012159
S31508004B200248FDF7E5FD70BD004C004040600240BC
S31508004B304B3401207D30012000B597B0012144484F
S31508004B40FEF7F0FF01211020FFF71CF807220A21C3
S31508004B504048FEF7CFF84FF48060159002208DF894
S31508004B60580000208DF85A0003208DF859000020BF
S31508004B708DF85B0015A93748FEF774F8364800F03B
S31508004B804BF9364811900020ADF84800ADF84A00B8
S31508004B904FF48060ADF84C000420ADF84E000020BC
S31508004BA0ADF8500011A92C4800F0FEF901212A4859
S31508004BB000F01CF901224021274800F023F944207F
S31508004BC08DF8040000208DF8050001208DF80700F7
S31508004BD001A8FEF7E1FB00212148FDF789FD00BF8A
S31508004BE01F48006800F001000028F9D11C48FDF7AD
S31508004BF08BFD4FF0006002901748001D039019487E
S31508004C0004900020059012200690002007904FF48B
S31508004C1080600890002009900A904FF480700B90ED
S31508004C204FF440300C9000200D900E900F9010908D
S31508004C3002A90B48FDF762FE012210210848FDF77C
S31508004C403FFE01210648FDF753FD17B000BD0000E1
S31508004C50010040000000024000100140A08601004B
S31508004C60886402407933012070B5002540F224415A
S31508004C70174800F049F950B300211648FDF738FDEA
S31508004C8000BF1448FDF7ECFD0028FAD1104800884B
S31508004C90C5B20F48001D0088C5B20E48FDF7EAFDEB
S31508004CA0C0F11900C5B2002405E00B48005D0B49A8
S31508004CB00855601C84B2AC42F7DB19210548FDF79C
S31508004CC049FE01210348FDF713FD00F0EBFB70BD1B
S31508004CD0004400408860024092330120643001207D
S31508004CE070B5002540F22441194800F00DF968B363
S31508004CF000211848FDF7FCFC00BF1648FDF7B0FD7B
S31508004D000028FAD1124800881148001D0088114869
S31508004D10FDF7B0FD4042C5B20F48A0F80150002487
S31508004D2005E00E48005D0E490855601C84B2AC4289
S31508004D30F7DB00F0A5F920210648FDF70BFE012157
S31508004D400448FDF7D5FC01200349087070BD000032
S31508004D500048004028600240D53201202B3401204B
S31508004D60F432012070B50024002540F224411B4886
S31508004D7000F0CAF888B300211948FDF7B9FC00BF4E
S31508004D801748FDF76DFD0028FAD114480088134826
S31508004D90001D00881248FDF76DFDC0F1800085B240
S31508004DA028B21049A1F82D01002405E00E48005D3F
S31508004DB00C490855601C84B2AC42F7DB0948FFF77A
S31508004DC025F980210648FDF7C5FD01210448FDF7B0
S31508004DD08FFC0120034981F8330170BD001401409E
S31508004DE02864024012310120AB33012021B18289A7
S31508004DF042F40052828104E082894DF6FF731A401C
S31508004E00828170471AB1838A0B43838202E0838AC0
S31508004E108B4383827047000010B5044632488442AB
S31508004E2008D101211020FEF7BDFE00211020FEF753
S31508004E30B9FE57E02D48844209D101214804FEF7FE
S31508004E4091FE00214FF40030FEF78CFE4AE0284818
S31508004E50844209D101218804FEF784FE00214FF41B
S31508004E608020FEF77FFE3DE02248844209D10121D9
S31508004E70C804FEF777FE00214FF40020FEF772FE05
S31508004E8030E01D48844209D101210805FEF76AFE73
S31508004E9000214FF48010FEF765FE23E01748844290
S31508004EA008D101212020FEF77DFE00212020FEF7F3
S31508004EB079FE17E01248844209D101218807FEF7D6
S31508004EC051FE00214FF08040FEF74CFE0AE00D48E7
S31508004ED0844207D101214005FEF744FE0021600502
S31508004EE0FEF740FE10BD00000010014000440040DF
S31508004EF000480040004C00400050004000140140AB
S31508004F0000780040007C004070B50246002400236B
S31508004F100025002040F66A16B14200D100BFC1F351
S31508004F20421501F01F03012606FA03F3012D02D1EB
S31508004F309689334006E0022D02D1168A334001E0F5
S31508004F40968A33400C12012606FA04F41688344071
S31508004F5013B10CB1012000E0002070BDF0B5034686
S31508004F60002400260025002040F66A17B94200D121
S31508004F7000BF1846C1F3421401F01F06012707FABD
S31508004F8006F5012C01D10C3004E0022C01D11030B9
S31508004F9000E014301AB107682F43076002E007687B
S31508004FA0AF430760F0BD00002DE9FF4705460E46F2
S31508004FB00024A14600BFA046B08900B100BF2C8AD4
S31508004FC024F44054F08804432C82AC8941F20C60E6
S31508004FD08443B08831890843718908430443AC8106
S31508004FE0AC8A24F44074B0890443AC826846FEF760
S31508004FF0E9FD2048854202D01F48854202D1DDF8E6
S315080050000C9001E0DDF80890A88900F4004040B152
S3150800501009EBC90000EB091031684900B0FBF1F74C
S3150800502007E009EBC90000EB091031688900B0FBFD
S31508005030F1F76420B7FBF0F004012009642101FBB5
S315080050401078A88900F4004040B1322000EBC8006F
S31508005050B0FBF1F000F00700044308E0322000EB53
S3150800506008106421B0FBF1F000F00F0004432C8116
S31508005070BDE8FF87001001400014014000BFFEE7AD
S3150800508010B53B48007801286DD1002466E0394800
S31508005090005DFF2860D13749E01D085CFE285BD11A
S315080050A00B46621C995CA21C985CFFF7F3FB9FED0C
S315080050B0321AC0EE010A10EE900A2D49C1F807000F
S315080050C02C4BE21C995C221D985CFFF7E3FB9FEDD5
S315080050D02A1AC0EE010A10EE900A2549C1F8030003
S315080050E0244B621D995CA21D985CFFF7D3FB9FEDCC
S315080050F0221AC0EE010A10EE900A1D49C1F81B00DB
S315080051000846D0F8070000EE100A0846D0F817003F
S3150800511000EE900A30EE600A10EE100AC1F80F0091
S315080051200846D0F8030000EE100A0846D0F8130027
S3150800513000EE900A30EE600A10EE100AC1F80B0075
S315080051400846D0F80300C1F813000846D0F807004F
S31508005150C1F81700E01D84B2601C84B20448B0F898
S315080051600100A04293DC00200149087010BD000030
S31508005170D5320120F43201200000C84270B5054638
S315080051800C4600260DB1022C01D8002070BDA11EC8
S31508005190094802882846FDF7EDFD0646F1B2A01E2D
S315080051A0285C814206D1601E285CB0EB162F01D11F
S315080051B00120EBE70020E9E7A800002070B50546C6
S315080051C00C4600260DB1022C01D8002070BD611EC8
S315080051D0FF222846FDF7E8FD0646601E285CB04219
S315080051E001D10120F2E70020F0E7000030B593B0C6
S315080051F0044600254822434901A8FBF73DF84248E2
S31508005200C4F87E044148C4F87A044148C4F88204C4
S315080052104048C4F8860400BF3EE0B12101FB0540C2
S31508005220FEF786F8681CC1B2B120684321546A1C8F
S31508005230D0B2D4F882148847B12101FB0541C1F8E0
S31508005240AC0005EB450101AA02EB8101D1ED021A7A
S31508005250B0EE611A05EB450102EB8101D1ED011AA9
S31508005260F0EE610A05EB450102EB8101D1ED001A6A
S31508005270B0EE610AB12101FB054101F10C009FED79
S31508005280262ADFED261AFEF78FF91321B12000FB37
S3150800529005404180681CC5B2062DBEDBD4F8210442
S315080052A0D0F81500D4F82114C1F81900C4F87D0304
S315080052B0D4F82104D0F81500D4F821140861D4F8DC
S315080052C02104D0F81500D4F82114C1F81D002421B2
S315080052D004F53170A4F8C612D4F886048047C4F8D9
S315080052E026049FED0F2ADFED0F1AB2EE041ADFED42
S315080052F00D0A9FED0D0A04F22A40FEF755F913B080
S3150800530030BD00006C78000849070008BD06000893
S31508005310094300086D43000800007A4600606A46A3
S3150800532000002544000000000000204210B509488E
S31508005330D0F88A04C06900EE900A0648D0F88A04B4
S31508005340C06800EE100A0348D0F8A2149FED021AAE
S31508005350884710BD88350120000000000548D0F8B0
S315080053602604D0F888000349D1F82614C1F88C0021
S31508005370704700008835012002480349896888601B
S31508005380704700002D530008B834012002E008C811
S31508005390121F08C1002AFAD170477047002001E0A1
S315080053A001C1121F002AFBD17047000010B52DED70
S315080053B0028BB0EE408AB0EE480A00F069F8B0EE0B
S315080053C0408AB5EEC08AF1EE10FA20DB9FED2C0A72
S315080053D0B4EEC08AF1EE10FA19D2DFED290A70EEA2
S315080053E0C80AB0EE600A00F053F8F2EE040A20EE9E
S315080053F0200ABDEEC00A10EE100A224901EB800011
S3150800540090ED000ADFED200AC0EE208A32E09FED1B
S315080054101C0AB4EEC08AF1EE10FA22DB9FED1B0AD5
S31508005420B4EEC08AF1EE10FA1BD2DFED150A78EE5B
S31508005430600AB0EE600A00F02BF8F2EE040A20EEDD
S31508005440200ABDEEC00A10EE100A0E4901EB8000D4
S3150800545090ED000ADFED0C0A80EE201AF1EE418A83
S3150800546008E09FED0A0AB4EE408AF1EE10FA01D17F
S31508005470FFEE008AB0EE680ABDEC028B10BD000094
S315080054800000B442B47800080000C8420000344363
S31508005490B5EEC00AF1EE10FA03D2F1EE400AB0EE0C
S315080054A0600A70473D480078FE2875D13B48407B26
S315080054B0EE2871D1394880783849497840EA012080
S315080054C000B200EE100AF8EEC00A9FED351A80EE1B
S315080054D0810A10EE100A33490860304800792F49CE
S315080054E0C97840EA012000B200EE100AF8EEC00AB8
S315080054F09FED2B1A80EE810A10EE100A29494860A2
S31508005500264880792549497940EA012000B200EE0B
